:1000000000000120B5020000DD020000DF02000058
:10001000E1020000E3020000E50200000000000031
:10002000000000000000000000000000E7020000E7
:10003000E902000000000000EB020000ED020000F9
:10004000EF02000029300000F11B0000EF02000069
:10005000EF020000EF020000EF020000EF020000DC
:10006000EF020000EF020000EF020000EF020000CC
:10007000EF020000EF020000EF020000EF020000BC
:10008000EF020000EF020000EF020000EF020000AC
:1000900021340000EF020000EF020000EF02000038
:1000A000EF020000EF02000011390000EF02000033
:1000B000EF020000EF02000000000000000000005E
:1000C000EF020000EF020000EF020000EF0200006C
:1000D000EF020000EF020000EF020000000000004D
:1000E0000000000000000000000000000000000010
:1000F0000000000000000000000000000000000000
:1001000000000000000000000000000000000000EF
:1001100000000000000000000000000000000000DF
:1001200000000000000000000000000000000000CF
:1001300000000000000000000000000000000000BF
:1001400000000000000000000000000000000000AF
:10015000000000000000000000000000000000009F
:10016000000000000000000000000000000000008F
:10017000000000000000000000000000000000007F
:10018000000000000000000000000000000000006F
:10019000000000000000000000000000000000005F
:1001A000000000000000000000000000000000004F
:1001B000000000000000000000000000000000003F
:1001C000000000000000000000000000000000002F
:1001D000000000000000000000000000000000001F
:1001E000000000000000000000000000000000000F
:1001F00000000000000000000000000000000000FF
:1002000010B5054C237833B9044B13B10448AFF350
:1002100000800123237010BDA80000200000000012
:100220007C4D000008B5034B1BB103490348AFF3F5
:10023000008008BD00000000AC0000207C4D0000E4
:10024000154B002B08BF134B9D46A3F5803A0021A8
:100250008B460F461348144A121A03F0B5FB0F4B96
:10026000002B00D098470E4B002B00D09847002061
:10027000002104000D000D48002802D00C48AFF307
:10028000008003F06FFB2000290002F0ABFA03F0BE
:1002900055FB00BF00000800000001200000000026
:1002A00000000000A8000020180B00200000000043
:1002B000000000000649074A074B9B1A03DD043B78
:1002C000C858D050FBDC02F0CDFAFFF7B9FF0000B0
:1002D000CC4D000000000020A8000020FEE7FEE753
:1002E000FEE7FEE7FEE7FEE7FEE7FEE7FEE7FEE7E6
:1002F000F0B595B0002415460F4608461E4601F09D
:100300005FFB384623460895082205A91A9D0996E1
:100310000D950A948DF82C400C9401F0B5FB9DF8D6
:1003200014308DF81140DDE9061003F00302012AB4
:10033000CDE9020127D0022A04D0384601F044FB5F
:1003400015B0F0BDBDF81650C3F3C2038DF81030E0
:10035000AD090826082D2C4628BF0824334622461E
:100360000EA9384601F090FB2D1B214608AB02AACE
:100370000EA8264400F0DCFC002DEBD1384601F03D
:1003800023FB15B0F0BDBDF81460059DC6F38316C0
:10039000C3F3C204B2000EA9384608238DF81040FA
:1003A000C5F3952501F070FB08AB324628460EA92F
:1003B000009302AB00F046FC384601F005FB15B097
:1003C000F0BD00BF704700BF00B583B0044B009381
:1003D000044A4023FFF78CFF03B05DF804FB00BF25
:1003E000E9030000C800002038B50E480E4D037820
:1003F0000E4CEB5C0025D2B2257053B1043002F0F4
:10040000DFF858B90A4B1B7813B12378002BFCD0C6
:1004100038BD0C3001F036FE0028F3D000F034FD7A
:10042000F0E700BF000000205C0A00200801002067
:10043000C400002030B51448144A0378D35C89B056
:10044000BBB1043002F01EF8114D0FCD6C460FC445
:1004500095E80F00062584E80F00002269460A4847
:10046000009501F087FB40B90A4B00221A7009B0D1
:1004700030BD0C3001F09AFDE6E700F005FD054BBC
:1004800000221A7009B030BD000000205C0A002074
:10049000A4490000C400002030B50E4D0FCD89B036
:1004A0006C460FC495E80F00062584E80F00002273
:1004B00069460948009501F05DFB20B9074B002211
:1004C0001A7009B030BD00F0DFFC044B00221A7036
:1004D00009B030BDA449000000000020C400002085
:1004E00008B5FFF7D9FF0421034800F01DFB034BBB
:1004F00001225A7108BD00BFA04D00001400002069
:10050000064B074810B501221A7001F00BFA044699
:1005100010B9044801F0ECFA204610BDDC010020BF
:10052000B04D0000E4490000A9B1124B12495B1A1A
:10053000DB081AD030B4114C2288824217D0002236
:1005400003E034F8225085420AD001329342F8D1B8
:10055000002030BC7047084A02EBC00210687047A8
:1005600001EBC202106830BC7047184670470A465B
:10057000F8E700BFA04D0000804D0000A40000205F
:10058000094B013903EBC00003290BD8DFE801F068
:1005900002080604022070474079704700797047CE
:1005A0000420704700207047804D00002DE9F04383
:1005B0008B4CD4E901239A4285B060D00023C4F863
:1005C0001834BFF34F8FA568EAB2D31C04EB830144
:1005D00014F82330580718D566680B7803F0030326
:1005E000012B42D0022B03D14B88023505EB93152A
:1005F000EAB2D4F81804D31C04EB830128B9AE4244
:1006000039D914F823305B07E7D404EB82026B1C62
:10061000D2680192DBB204EB830302F00302DB68D1
:100620000293022A05F102062DD0012A00F08A80E9
:10063000D4F810543DB12B6828469B689847EB6866
:100640001D68002DF7D16748674B6849C01AC0087C
:10065000000440F0020000F0CFF8D4E90130C01AE5
:1006600018BF012005B0BDE8F0830B880235C3F345
:1006700083131D44BCE7A66005B0BDE8F0830020ED
:1006800005B0BDE8F083BDF8063059484FEA93192C
:10069000B9F1500FC84628BF4FF0500868F38F13C8
:1006A00008F10801ADF8063001F03EF907460028D0
:1006B000BED0F543EDB201F083F90135002301A965
:1006C0000822384601F0ACF9AD00F3B20333A84577
:1006D00004EB830173D9A8EB050808232A463846A2
:1006E0005FFA88F801F09CF9424605F10803414998
:1006F000384601F095F909F1030806EB9808D4F89B
:100700001834002B65D1D4F8105465B1EB685A79D0
:1007100028463946002A58D02B681B689847EB6852
:100720001D68002DF2D1384601F04EF9002000F08E
:10073000F3FBD4F818340BB9C4F80880002000F09B
:10074000F3FB8AE7BDF804202948C2F38313062B84
:1007500028BF062363F3891202339900ADF8042001
:1007600001F0E2F8074600283FF462AF01F028F9F3
:100770000023082201A9384601F052F9BDF80430DF
:1007800013F4707F29D06FF00109A9EB0509082542
:10079000F1B203312B46042204EB8101384601F00B
:1007A0003FF9BDF8043006F1010809EB0802C3F374
:1007B00083139342464605F10405E9D89FE7424674
:1007C0000823384601F02CF995E71D68002D9DD1CE
:1007D000A9E7384601F0F8F83FE7B0468FE700BFD9
:1007E000DC010020984D0000804D0000F049000021
:1007F000B04D0000E80100202DE9F04F604C87B0BB
:1008000007460020884600F087FBD4E9015303F532
:1008100080735B1B012B00F2B18004F21C4604F5CF
:10082000836A04F214490121304600F091FB5046DE
:1008300000F0A6FB484600F0A3FBA368D8B2C21C98
:1008400004EB820114F8222012F0040200F09380DD
:1008500003F1020C91F800E00EF0030EBEF1010F5F
:10086000E34600F08380BEF1020F00F1030E6ED06C
:1008700004EB8E01002AEDD104EB80000133C26845
:100880000392DBB204EB830302F00302012AD9686E
:1008900056D0022A52D1BDF80E309B090333090C01
:1008A0000BEB930B4846019100F076FB0199002871
:1008B00042D03046C4F808B000F04AFBD4E9013217
:1008C00002F58072D21A012AADD9DAB203320233AC
:1008D0000521002044F82210636000F025FB002170
:1008E000284800F02BFB80F310006B1CDBB204EBFC
:1008F00083020004EBB2033340EA1740D06014F8DF
:10090000232067F3C50204F8232054F8231068F36A
:100910009F2121F4717222F0030242F0010244F897
:10092000231024F8232023781BB1FFF73FFE002873
:10093000FBD107B0BDE8F08F3046BDE70021B1E73D
:10094000BDF80C30C3F38313090C9B44AAE74B8812
:100950000CEB9313D8B2C11C03F1020C14F8212044
:10096000E34604EB810102F0040283E70B88C3F342
:1009700083136344EEE703F1020B7DE72B46A4E704
:10098000DC010020F80500202DE9F04F644C87B011
:10099000074600208946019200F0BEFAD4E90153CF
:1009A00003F580735B1B022B00F2B78004F21C4638
:1009B00004F5836A04F214480121304600F0C8FAB5
:1009C000504600F0DDFA404600F0DAFAA368D8B2EB
:1009D000C21C04EB820114F8222012F0040200F081
:1009E000998003F1020C91F800E00EF0030EBEF1C5
:1009F000010FE34600F08980BEF1020F00F1030E03
:100A000074D004EB8E01002AEDD104EB8000013399
:100A1000C2680392DBB204EB830302F00302012AF3
:100A2000D9685CD0022A58D1BDF80E309B09033337
:100A3000090C0BEB930B4046009100F0ADFA0099C6
:100A4000002848D03046C4F808B000F081FAD4E954
:100A5000013202F58072D21A022AADD9DAB203321B
:100A600003334521002044F82210636000F05CFA53
:100A7000AB1CDBB204EB8303019A2A48DA60002145
:100A800000F05CFA80F310006B1CDBB204EB830314
:100A90000004EDB2033540EA1740D86014F8253061
:100AA00067F3C50304F8253054F8252069F39F2225
:100AB00022F4717323F0030343F0410344F825202B
:100AC00024F8253023781BB1FFF770FD0028FBD1F7
:100AD00007B0BDE8F08F3046B7E70021ABE7BDF8BF
:100AE0000C30C3F38313090C9B44A4E74B880CEB35
:100AF0009313D8B2C11C03F1020C14F82120E34671
:100B000004EB810102F004027DE70B88C3F3831339
:100B10006344EEE703F1020B77E72B469EE700BF45
:100B2000DC010020F8050020F0B41B4ED6F810348C
:100B30000746002B2DD0DC68257900218D42084620
:100B400017D0234603E0DB681A798A4211D01B686C
:100B5000002BF8D1FB681871D6F810349BB1DA6815
:100B6000FB6812681A60D6F81034DB681F60F0BCAE
:100B70007047092901F1010301D01946DEE74FF062
:100B8000FF30F0BC7047C6F81074FA681360F0BC10
:100B900070471846DEE700BFDC01002038B5084B7F
:100BA000D3F8104401251D704CB1E3685D712368D2
:100BB00020465B689847E3681C68002CF5D138BD77
:100BC000DC01002030B5C38883B004460D4613BB5A
:100BD000217A05291DD0637AA08873B9124B53F886
:100BE00021400021FFF7A0FC104903462246284679
:100BF00003B0BDE8304000F03FBAFFF7C1FC0C4B3A
:100C00000C4953F82020284600F036FA217AA088B3
:100C1000E4E703B030BD084A00920849084A284674
:100C200000F02AFAD4E700BF7C4A0000704A0000B6
:100C3000084A00006C4A0000644A00004C4A000068
:100C4000444A00002DE9F04385B01D460C9C00236A
:100C500081460E46174694F80C8023732146284699
:100C6000FFF7B0FF062F09D8DFE807F0042E343B6A
:100C7000444F1F004946204600F0FEF92B7A052B11
:100C800005D06B7A5BB92749204600F0F5F920467C
:100C900000F0E6F984F80C8005B0BDE8F083224A44
:100CA0002249204600F0E8F9EDE7D6E90413F2689E
:100CB0000393B3680291CDE900324946D6E9002397
:100CC000204600F0D9F9D9E732684946204600F0BD
:100CD000D3F9D3E74946D6E90023204600F0CCF902
:100CE000CCE7B36800934946D6E90023204600F0DC
:100CF000C3F9C3E7D6E90232019200934946D6E927
:100D00000023204600F0B8F9B8E7D6E90321B3681C
:100D10000291CDE900324946D6E90023204600F091
:100D2000ABF9ABE7404A0000644A00006C4A00009F
:100D3000082900D970472DE9F04F1D4683B00024E3
:100D40001B7B2C7307460E4610462946914601939D
:100D5000DFF8C8A0DFF8C880FFF734FF05E03A5D90
:100D6000013400F089F9082C09D0A64241462846F2
:100D7000F5D85146013400F07FF9082CF5D122490D
:100D8000DFF8A0A0214CDFF8A080284600F074F91D
:100D90004FF0000B0EE012F8081011F0970F08BF8B
:100DA0002E22214628460BF1010B00F065F9BBF11C
:100DB000080F10D05E4505D917F80B207E2AEAD916
:100DC0002E22EEE7514628460BF1010B00F054F9B4
:100DD000BBF1080FEED199F80830052B02D099F835
:100DE00009305BB90A49284600F046F9284600F068
:100DF00037F9019B2B7303B0BDE8F08F054A064914
:100E0000284600F039F9EDE7384A00003C4A000076
:100E1000404A0000644A00006C4A0000344A000066
:100E20002C4A0000784A0000E14B0000C20730B4B1
:100E30001AD54FF0A0430322C3F844274FF40035DE
:100E4000C3F848274FF48024C3F84C274FF40021FF
:100E5000C3F850274FF48012C3F80855C3F808456B
:100E6000C3F80815C3F8082583070AD54FF0A04337
:100E70000C22C3F83427C3F83827C3F83C27C3F83B
:100E8000402730BC704700BF00B585B000230390F9
:100E9000194601AA44F20100CDE9013300F004F83B
:100EA00005B05DF804FB00BF10B572B6FFF776FE23
:100EB000FFF77CFB0028FBD1104B114C1149E41AC1
:100EC000E408240444F00100FFF796FC0E4B1B6875
:100ED000DB0700D500BE44F002000C49FFF78CFC94
:100EE000BFF34F8F0A490B4BCA6802F4E062134309
:100EF000CB60BFF34F8F00BFFDE700BF804D000008
:100F0000984D0000E84A0000F0ED00E0F44A0000CF
:100F100000ED00E00400FA0572B6024A13680133DE
:100F20001360704794060020034A1368013B136066
:100F300003B962B6704700BF9406002050E8002F46
:100F40000B4640E8003C9CF0000FF7D1104670477C
:100F500050E8003F03EB010240E8002C9CF0000F3A
:100F6000F6D11046704700BF50E8003FA3EB0102E6
:100F700040E8002C9CF0000FF6D11046704700BFEF
:100F8000012350E8002F42EA030C40E800C191F031
:100F9000000FF6D160467047002350E800CF0CEAFE
:100FA000030240E8002191F0000FF6D1604670473F
:100FB000B8B130B4D0E90112521A0468D2B2531E4B
:100FC0002160DBB242B101680A685C1E551C0D60ED
:100FD0001370E3B2FF2BF6D103680020187130BC08
:100FE00070470E20704700BF38B504460020FFF759
:100FF00093FFD4E900311A688A4215D9511E19604D
:101000002168A3680868258A12F8012CE4681B1A75
:101010000879DBB2984205FB024400D20B71002034
:10102000FFF782FF204638BD00240020FFF77CFF39
:10103000204638BD38B5054600200C46FFF76CFF4A
:101040002A681368591C1160E9682A8A641AB4FB7B
:10105000F2F41C700020BDE83840FFF765BF00BF08
:10106000826842B110B50446436901680069984737
:101070000023A36010BD70470EB400B582B0039981
:1010800021B104AB01AA019300F0B2F802B05DF8FF
:1010900004EB03B0704700BF2DE9F04F8A4683B0E0
:1010A0009245164605469846DDE90CB1C0F09C8095
:1010B00053460127B3FBF6F39E4207F10107F9D926
:1010C000474538BF474611F00103AA68009302D193
:1010D000BBF1000F68D1012403E008F1FF3806FBE3
:1010E00004F4B8F1010FF8D8BAFBF4F08642F6D94F
:1010F000DFF8F8904FF00D0807E0B442B4FBF6F3C8
:101100001CD3BAFBF3F0AA681C4619F80030296812
:101110000A2B04FB10AA01EB020E02F1010028D0F9
:10112000A8608EF80030D5E901329A42E5D328460E
:10113000FFF796FFB4FBF6F3B442E2D2009BABB1EB
:10114000BBF1000F12D0BB4510D92024AB682A6830
:10115000591CA960D454D5E901329A420BF1FF3BE6
:101160001ED2BBF1000F01D0BB45EFD103B0BDE8EB
:10117000F08FA86001F80280D5E90120904204D2E6
:101180002A6802EB000E0130CAE728460193FFF7F8
:1011900067FFAA682968019B501C01EB020EBFE79C
:1011A0002846FFF75DFFDCE78B0717D42024BB45FB
:1011B00091D92B68511CA9609C54D5E901329A42FF
:1011C0000BF1FF3B05D2BBF1000F84D0BB45F0D142
:1011D00081E72846FFF744FFAA68F4E7B8F1000F5B
:1011E0000CBF30242024E2E7012769E7044B00000C
:1011F000002900F0E8822DE9F04F054685B09146C0
:101200000C460E78DFF814A74FF00D0B13E0AB6817
:1012100028680A2E03F1010200EB030100F0268189
:10122000AA600E70D5E901329A4280F011812678C9
:10123000002E00F014810134002E00F01081252EC4
:10124000E5D12146002711F8012B2D2A00F0E58079
:10125000302A00F0E6802B2A00F0D6802A2A00F0FF
:101260001181A2F13006F3B2092B03D922E2A3F1D6
:1012700030060146084606EB860310F8012BA2F162
:101280003004092C02EB4303F1D92E2A00F0068129
:101290004FF0000802F0FB03682B01F1010405D1B7
:1012A00014F8012B02F0FB03682BF9D0253A532ADE
:1012B000BDD801A353F822F04D1600002F120000F4
:1012C0002F1200002F1200002F1200002F1200001A
:1012D0002F1200002F1200002F1200002F1200000A
:1012E0002F1200002F1200002F1200002F120000FA
:1012F0002F1200002F1200002F1200002F120000EA
:101300002F1200002F1200002F1200002F120000D9
:101310002F1200002F1200002F1200002F120000C9
:101320002F1200002F1200002F1200002F120000B9
:101330002F1200002F1200002F1200002F120000A9
:101340002F1200002F1200002F1200002F12000099
:101350002F1200002F1200002F1200002F12000089
:101360002F1200002F1200002F1200002F12000079
:101370002F1200002F1200002F1200002F12000069
:101380002F120000651600002F1200002F1200001F
:101390002F1200002F1200002F1200002F12000049
:1013A0002F1200002F1200002F1200002F12000039
:1013B0002B140000C71500002F1200002F12000090
:1013C0002F1200002F120000C71500002F1200007E
:1013D0002F1200002F1200002F1200002F12000009
:1013E0002F1200003F1500002F1200002F120000E6
:1013F000E51400002F120000C91400002F12000095
:101400002F1200006516000047F004070C46214625
:1014100011F8012B2D2A7FF41BAF47F001070C4672
:10142000F5E747F002070C46F1E7D9F800301A1D3E
:10143000C9F800201E78AB680A2E00F04C822A689A
:10144000591CA960D654D5E901329A42FFF4EFAE97
:101450002846FFF705FE2678002E7FF4ECAE2B7BA6
:10146000002B40F0218105B0BDE8F08FAA6000F8A4
:1014700003B0D5E901329A4280F00E812968114407
:101480000132CDE6D9F800301A1DC9F80020627883
:101490001E682E2A04F102007FF4FAAE4A78A2F107
:1014A0003003092B01464FF000083FF6F3AE08EB7E
:1014B000880802EB480811F8012FA2F13003092B2C
:1014C000A8F13008F3D9E5E6D9F800301A1DC9F8BB
:1014D000002019680197434600960A222846FFF724
:1014E000DBFDA4E6D9F800301A1DC9F8002017F07A
:1014F0000107D3F8008040F0EA80B8F1000F03D074
:10150000404602F081FA0746BE4240F25D81002E5D
:1015100000F05A81202102E0BE4200F05581AA6805
:101520002B68501CA8609954D5E90123934206F119
:10153000FF36F1D32846FFF793FD2021ECE7D9F8D9
:101540000020131DC9F80030AB6829681768581CC3
:101550003022A860CA54D5E90123934280F0F1807B
:101560002A68581C7821A860D154D5E901239342F8
:1015700080F0E2800F2F03D93A4612090F2AFCD8D7
:101580004FF0805606E00F2E4FEA16137FF64FAE4F
:101590001E46AB68B7FBF6F21AF802802868B8F16D
:1015A0000A0F06FB127700EB030103F1010267D07B
:1015B000AA6081F80080D5E901329A42E3D3284637
:1015C000FFF74EFDDFE7D9F800301A1DC9F80020FB
:1015D000196881EAE172A2EBE172092A4FF0010079
:1015E0000BDDDFF83CC300E01A46ACFB02E3632AE4
:1015F00000F101004FEAD303F6DC4045034638BF53
:101600004346029307F00203002E57D00029C0F290
:101610009D80780700F19A80002B00F09980B8F146
:10162000000F40F095800029C0F236817B0700F161
:10163000468107F00303022B00F0FD80CDE900672F
:1016400043460A222846FFF727FDF0E5AB682A68E3
:10165000581C2521A860D154D5E901329A42FFF4E3
:10166000E6ADF5E6D9F800301A1DC9F80020196872
:1016700001974346009610222846FFF70DFDD6E558
:10168000AA6000F803B0D5E901329A4280F0938055
:101690002B68991801328BE72846FFF7E1FCAB680D
:1016A00029685A1C1944BBE5284605B0BDE8F04F2F
:1016B000FFF7D6BC084600262146E6E52BB1B8F177
:1016C000000F00F02581FB07ADD40026ABE798F8AA
:1016D0000020002A00F02081AB684746C8F10101D4
:1016E000D5F800E00A2A01EB07080EEB030C03F122
:1016F000010054D0A8608CF80020D5E90123934262
:1017000042D217F8012F002AEAD146457FF68FAD65
:10171000202702E046453FF48AADAA682B68511C99
:10172000A9609F54D5E901329A4206F1FF36F1D300
:101730002846FFF795FCEDE72846FFF791FCAB68DC
:1017400018E72846FFF78CFCAB6809E7013E63E722
:10175000FA073FF568AF002EB7D0029B9E427FF696
:1017600062AF2023AA68501CA86028688354D5E97A
:101770000102824206F1FF3680F0BC80002EA4D028
:10178000029A9642EED14EE728460291FFF768FC96
:1017900017F8012F002AB8D0AB680299A0E7A8601B
:1017A0000EF803B0D5E90130984260D22B6803EB04
:1017B000000C01309EE72846FFF752FCA9682B6811
:1017C0004A1C1944F4E6704798F80060002E3FF474
:1017D0002EADAB6828680A2E03F1010200EB03016D
:1017E00011D0AA600E70D5E9012393421BD218F8DC
:1017F000016F002E3FF41BAD28680A2E03F1010291
:1018000000EB0301EDD1AA6000F803B0D5E9013285
:101810009A4239D2296811440132AA600E70D5E982
:1018200001239342E3D32846FFF71AFC18F8016F0F
:10183000002ECED1FBE4B8F1000F7FF4FFAE002EF6
:1018400068D0029B9E427FF6F9AE3023AA68501CF6
:10185000A86028688354D5E90102824206F1FF3668
:101860004FD2002E56D0029A9642EFD1E6E6284695
:10187000CDE90221FFF7F4FBAB682A68581C02EBA4
:10188000030CDDE9022135E72846FFF7E9FBAB68E9
:1018900029685A1C1944A4E7AA68531CAB602B683A
:1018A0002D209854D5E901329A42C1F10001FFF48C
:1018B000C0AE28460391FFF7D3FB0399B9E6AA68A7
:1018C000531CAB602B682B209854D5E901329A4207
:1018D000FFF4AFAEEDE72A68591CA96002F803B027
:1018E000D5E901239342FFF4AAAD2846FFF7B8FBE0
:1018F000AB68A4E528460391FFF7B2FB20230399C8
:101900003CE728460391FFF7ABFB30230399A8E798
:10191000464688E6002691E69046F6E6044B00002F
:10192000CDCCCCCCFFF744BB2DE9F041058ACF1CD0
:10193000043D2F440646B7FBF5F7FFF755FB00289B
:1019400034D0FFB24FF48073013F0446C580066077
:1019500083802CD08046002509E06379AF4203F1F3
:1019600001036371C8F80000066080461FD030464E
:10197000FFF73AFB01350028EFD194F8058027687E
:10198000B8F1010316D03D46013083422D68FBD1EA
:10199000B8F1000F0AD0002601E03C463F6821461E
:1019A00001362846FFF746FBB045F6D8002420460E
:1019B000BDE8F08121463846FFF73CFBF6E700BF63
:1019C00004300121FFF7C4BA2DE9F041012104469A
:1019D0000430FFF7C9FAC0B208B1BDE8F08194F84D
:1019E00005802568B8F1010314D02E4601308342EA
:1019F0003668FBD1B8F1000FEFD0002701E02C468C
:101A00002D68214601373046FFF714FBB845F6D85C
:101A1000BDE8F08121462846BDE8F041FFF70ABB4A
:101A20002DE9F8430546C6884079144606FB00F2C6
:101A3000043A04EB030C1F1D624538BFD41ABE42A2
:101A40008846B7FBF6F106FB117002D801392D6804
:101A5000FCD1371AA74228BF27469CB14FF0000996
:101A60000430E41B28443A4608EB090101F09EFFCC
:101A7000A642B9442D6837464FF0000028BF2746DC
:101A8000002CEDD1BDE8F8832DE9F8430546C68862
:101A90004079144606FB00F2043A04EB030C1F1DC8
:101AA000624538BFD41ABE428846B7FBF6F006FB43
:101AB000107102D801382D68FCD1771AA74228BFCF
:101AC00027469CB14FF0000904312944E41B3A46F3
:101AD00008EB090001F06AFFA642B9442D683746B9
:101AE0004FF0000128BF2746002CEDD1BDE8F88358
:101AF0008268002393608268136182685361826800
:101B0000D3608268536082681360704730B585B0D7
:101B1000047845688DF80040D0E90240064A074B3A
:101B2000039053F8213001958DF8084052F82110A8
:101B30006846984705B030BD980600209C060020F6
:101B400030B585B0047845688DF80040D0E9024092
:101B5000064A074B039053F8213001958DF8084051
:101B600052F821106846984705B030BD980600200D
:101B70009C060020F0B5194B0678194D0C6991F8B8
:101B80001DE045F826408446164803F806E040F874
:101B900026200C4617460FCC89B06D460FC594E839
:101BA0000F0085E80F000496BEF1000F0AD0002F49
:101BB0000D4A69460CF1040008BF3A4600F07AFB72
:101BC00009B0F0BD002F094A69460CF10C0008BFAE
:101BD0003A4600F01FF909B0F0BD00BF5C0A0020D2
:101BE000980600209C0600200D1B0000411B0000F1
:101BF000014B1B68184700BFA006002038B50C4BEE
:101C0000984213D100200D46FFF786F9094B1C7945
:101C100024B10020FFF788F9112038BD01222046A9
:101C20001D601A71FFF780F9204638BD002038BDCD
:101C300000200040A0060020034B984203D1034B34
:101C400000221A601A71704700200040A006002090
:101C500030B56E4AD2F8043399058BB066D5D2F808
:101C60002431002B62D00023C2F82431D2F8243171
:101C700001934FF40171664B0198C2F8081393F871
:101C8000291009B901215160604902228DF81820FC
:101C9000D1F88024C1F880249869D968099200227B
:101CA000CDE90710C3E90622D3E9001406A8A0472E
:101CB000564AD2F81C31C3B1554B5869196A88424B
:101CC00069D993F8281001F0FF00002963D1C2F808
:101CD0001C01D2F81C11039103999C68186A196AB7
:101CE000205C01311962C2F81C05484AD2F844311F
:101CF000D3B10021464BC2F84411D2F8440193F805
:101D000029100090009800295CD19A6962B10022E4
:101D1000586AD9689A610122CDE907108DF8182018
:101D200006A8D3E9001290470BB030BD374AD2F86D
:101D300004335B07BCD5D2F80831002BB8D0344B44
:101D40009969002941D00021C2F80811D2F8081180
:101D500004910499D868596AD2F8182542545A6AED
:101D6000996901325A625A6A8A42A1D1DA691968BC
:101D7000002A33D0D8685D6A1C699A6107900022F6
:101D80000120DC60DA615A628DF8180008955B6802
:101D900006A898478CE71D4A0021C2F81C11D2F80A
:101DA0001C210292029A5A69002A9ED058699A68A8
:101DB0008DF8181008905961079206A8D3E900120F
:101DC000904792E7012111609FE7C2F80811D2F80D
:101DD000080105900598D2F81825C4E793F8292042
:101DE00012B90A4A01205060084A4FF40170C2F843
:101DF0000803586ADA6808900024012007928DF8D9
:101E000018005A689C6106A8904751E700200040DE
:101E1000A80600202DE9F041DFF88C8107792C26F7
:101E200006FB078682B096F82A30002B40F08780A8
:101E30000C460546584900681646FFF7DFFE0028A5
:101E400079D12368591C0CD001224FF0A04102FA2D
:101E500003F3C1F80835236803F5E073032241F862
:101E6000232063685A1C06D003F5E0734FF0A042AC
:101E7000002142F823102B68A269C3F82425217D94
:101E8000637D2A680B43C2F86C35D4E900122B68D5
:101E9000C3F81425C3F80C15237D012B59D02C232E
:101EA00003FB07F308EB03025660226948F803209E
:101EB00076B32A68237F394C0021C2F81C11D2F86E
:101EC0001C2100922A68009EC2F84411D2F84411E5
:101ED0002A6801910199C2F804432A68120B51B291
:101EE0005B010029DBB22EDB01F1604101F56141AC
:101EF00081F8003329680A0B53B2002B09DB01215A
:101F00005B09274C02F01F0201FA02F244F8232079
:101F100029682C2303FB0783002201250424C1F830
:101F2000004583F82A50C3E9062283F829205A6124
:101F300002B0BDE8F081112002B0BDE8F0810820B8
:101F400002B0BDE8F081174902F00F0211440B7690
:101F5000D0E7A368591C06D003F5E0734FF0A04208
:101F6000002142F82310E3685A1C0DD001224FF0E3
:101F7000A04102FA03F3C1F80835E36803F5E07302
:101F8000032241F82320E3682A68A168C2F80835D3
:101F9000C2F8101583E700BF511C0000800002004A
:101FA00000E100E0FCEC00E0A8060020F8B5324EAD
:101FB000047902682C2303FB046300215B68C2F8E8
:101FC0000015B3B103682D4AC3F808230368190B41
:101FD0004AB2002A0EDB520920320123284D01F0BB
:101FE0001F0103FA01F145F82210BFF34F8FBFF331
:101FF0006F8F0368D3F80CC5D3F81475D3F80815A0
:10200000D3F810554FF0FF32C3F81425C3F80C2550
:1020100003689445C3F80825C3F8102506D00CF5CD
:10202000E07C4FF0A043022243F82C207B1C06D01A
:1020300007F5E0774FF0A043022243F827206A1CFF
:1020400006D005F5E0754FF0A043022243F82520A5
:102050004B1C06D001F5E0714FF0A043022243F87B
:1020600021200068FFF7E8FD2C2303FB0464002314
:1020700084F82A306360F8BDA806002084020200BC
:1020800000E100E02DE9F041314E05792C2303FBFE
:1020900005630446586984B000284CD15A619960A0
:1020A000186283F828002268C2F81C01D2F81C11BB
:1020B000226802910121029F91602268D3F808C032
:1020C000C2F81C01D2F81C11019101991F6A196A0A
:1020D0001CF8077001311962C2F81C755A6812B1F8
:1020E00004B0BDE8F0815F691A6A216897421BD984
:1020F000864602E093F828200ABBD1F81C21002A6A
:10210000F8D0C1F81CE1D1F81C210392039AD3F84E
:1021100020801A6A1CF8088001321A62C1F81C85F6
:102120001A6A9742E9D82168D1F81C31002BFBD0FC
:102130000123CB6004E0112004B0BDE8F0810F2042
:102140002C2303FB056500236B6104B0BDE8F0811F
:10215000A8060020F0B5554BD3F824218BB0002AF7
:1021600073D00021C3F82411D3F824210492022251
:102170008DF81820049AD3F880044D4AC3F88004DF
:102180000990D3F83C05D3680890C2E9061107937B
:102190001168536806A89847444BD3F8442152B1BC
:1021A0000021434AC3F84411D3F8440191690390D4
:1021B0000398002938D13D4BD3F820215AB1002192
:1021C000C3F82011D3F8202102920120384A029C42
:1021D000D8605069D8B9354BD3F85821AAB100213D
:1021E000C3F85811D3F85801314A01900198506949
:1021F00058B1D3F84C05936808908DF818105161C8
:10220000079306A8D2E9001398470BB0F0BDD3F8A6
:102210004C05936808908DF818105161079306A833
:10222000D2E900139847D6E7D3F83C35D168089334
:1022300000240025012307918DF81830C2E90645D6
:10224000D2E9001306A89847B5E7D3F81011002982
:10225000A2D0C3F81021D3F81011154805910599A3
:102260008169D3F83C458C4296D1C569C768D0E9ED
:1022700000168DB1D3F800C285612CF02005C26133
:10228000C3F800520369C3600122CDE907748DF8D9
:10229000182006A8B0477FE701238561CDE90774C0
:1022A0008DF8183006A8B04776E700BF0020004040
:1022B000D80600202DE9F04307796D4E4FEAC70894
:1022C00008EB070506EB850587B095F82030002B55
:1022D00040F0A1800D460446664900689146FFF72C
:1022E0008DFC002840F093802B68591C0CD00122F3
:1022F0004FF0A04102FA03F3C1F808352B6803F54B
:10230000E073032241F823206B685A1C06D003F5C2
:10231000E0734FF0A042002142F823102368A9691E
:10232000C3F82415297D6A7D23680A43C3F86C2508
:10233000D5E900312268C2F80C35C2F814152B7D9E
:10234000012B72D008EB07029200B318C3F8049077
:102350002B69B3502168B9F1000F47D000222B7FC1
:10236000C1F81021D1F8101101912168DDF804C0E5
:10237000C1F82021D1F8201102912168DDF808C0B0
:10238000C1F82421D1F8241103912168DDF80CC093
:10239000C1F84421D1F8441104912168DDF810C03E
:1023A000C1F85821D1F8581122680591324D05998C
:1023B000C2F804532268120B51B25B010029DBB250
:1023C0002DDB01F1604101F5614181F800332168A5
:1023D0000A0B53B2002B09DB01215B09274D02F0E8
:1023E0001F0201FA02F245F82320216808EB0703D7
:1023F00006EB8303002201250824C1F8004583F879
:102400002050C3E906225A6107B0BDE8F0831120CD
:1024100007B0BDE8F083082007B0BDE8F083184995
:1024200002F00F0211440B76D1E7AB68591C06D0BD
:1024300003F5E0734FF0A042002142F82310EB684F
:102440005A1C0DD001224FF0A04102FA03F3C1F84B
:102450000835EB6803F5E073032241F82320EB68AD
:102460002268A968C2F80835C2F810156AE700BFEB
:10247000D8060020552100001003420000E100E0D2
:10248000FCEC00E02DE9F04106794A4C0268F500C9
:10249000AB1904EB830382B05B68B3B1464BC2F85F
:1024A000083303681B0B59B200290EDB49092031A0
:1024B0000127DFF808C103F01F0307FA03F34CF804
:1024C0002130BFF34F8FBFF36F8FA91904EB810148
:1024D000D2F80032896923F02003C2F8003241B1FA
:1024E0000023C2F84431D2F844310093012300990B
:1024F00053600023C2F85831D2F858310193AB1918
:10250000012104EB8303019FD1609969D2F858310E
:10251000002BFBD019B1D2F84431002BF6D00023A8
:10252000C2F8003503684FF0FF31D3F80C85D3F8BB
:1025300014E5D3F80875D3F810C5C3F80C15C3F823
:10254000141503688845C3F80815C3F8101506D09C
:1025500008F5E0784FF0A043022143F82810BEF1BF
:10256000FF3F06D00EF5E07E4FF0A043022143F876
:102570002E10BCF1FF3F06D00CF5E07C4FF0A043DD
:10258000022143F82C107B1C06D007F5E0774FF0B2
:10259000A043022143F827101046FFF74DFB3544B6
:1025A00004EB8504002384F82030636002B0BDE8AA
:1025B000F08100BFD80600201003420000E100E0D7
:1025C00001F06043B3F1005F2DD1F0B40579284EDE
:1025D000EF007C1906EB840482B06369002B3FD1C5
:1025E0006261A1600268C2F82031D2F820C102689D
:1025F000CDF804C0DDF804C0C2F85831D2F8582133
:1026000000920268DDF800C0D4F814C0C2F8441586
:10261000C2F848C5026801219160626832B118466B
:1026200002B0F0BC7047102318467047026800E003
:10263000DBB9D2F82011D2F858310029F8D0A3B96B
:102640000121D1600168D1F85821002AFBD03D4416
:1026500006EB850600221846726102B0F0BC704796
:102660001123184602B0F0BC70470F23EFE700BFFC
:10267000D806002038B50378012B1FD093B1022B68
:102680000FD1314B314C324D3249E41AE408240465
:1026900044F004042046FEF7AFF8284600F0FAFEA6
:1026A00080B138BD2948284B2B49C01AC008000406
:1026B00040F00400BDE83840FEF79EB82348224BA6
:1026C0002649F2E7264801F087F9AA7902F00703C4
:1026D000591E03294FF400304FF0A04127D912F0C2
:1026E000060FC1F8080501D0052B25D94FF0A041F0
:1026F0004FF48020C1F80805033B032B4FF0A043A3
:102700004FF4002194BFC3F80C15C3F808154FF01F
:10271000A0434FF4801150074CBFC3F80C15C3F809
:10272000081520460F49BDE83840FEF72DB912F0D4
:10273000060FC1F80C05D9D04FF0A0414FF480200E
:10274000C1F80C05D8E700BF804D0000984D00008F
:10275000600A0020A44B0000804B0000944B000056
:10276000B84B0000C84B0000F0B51C4EDFF870C03D
:1027700006F1080393E803008BB002AF06F11005E1
:1027800087E803000FCD04AC0FC495E80300D6E939
:10279000003284E80300009308240121002304A8E8
:1027A00001928DF823408DF81110CDF814C08DF8EA
:1027B000243000F063FC08B10BB0F0BD684600F0B7
:1027C000EDFE0028F8D101A800F05CFF0028F3D14D
:1027D0002146384600F0EAFF0BB0F0BD284B000060
:1027E0007526000008B50120FEF720FB00210846F1
:1027F000FDF786FE38BBFDF773FE4FF080430021E6
:102800000122C3F8001119461A60D1F80031002BDB
:10281000FBD0FFF7A9FFE0B90F4B10481049C01AD1
:10282000C008000440F00400FDF7E6FF00F06EFE73
:1028300060B9FDF7BBFE0028FBD120BFFDF7B6FE57
:102840000028F6D1F9E7FEF71FFBD4E7FEF71CFBE3
:10285000EFE7FEF719FBDFE7804D0000984D000021
:10286000504B000030B4AC4B1B68591C04BFAB4B41
:102870001B78062B05D1AA4BAA4A1B68C3F3042375
:102880001360A64B1B78062B00F0E780A24B1B6859
:102890005A1C04BFA14B1B78062B05D1A24BA34A9F
:1028A0001B68C3F3423313609C4B1B78062B00F06C
:1028B000C780994B1B685D1C04BF984B1B78062B87
:1028C00008D14FF080430022C3F80C21C3F8102137
:1028D000C3F83825914B1B78062B00F09B808E4B5C
:1028E0001A68541C1FD0924B062A1B6823D0914AA9
:1028F000D2F8883043F47003C2F88830BFF34F8FAA
:10290000BFF36F8F4FF01023D3F80022002AC0F2DC
:10291000D280D3F80432002BC0F2CD80864B874A98
:102920001A6030BC70477D49854B09781B680629C1
:10293000DDD1C3F30313033B012B48D94FF0805281
:10294000804BD2F80414C3F82015D2F80814C3F849
:102950002415D2F80C14C3F82815D2F81014C3F8B3
:102960002C15D2F81414C3F83015D2F81814C3F883
:102970003415D2F81C14C3F84015D2F82014C3F84B
:102980004415D2F82414C3F84815D2F82814C3F813
:102990004C15D2F82C14C3F85015D2F83014C3F8E3
:1029A0005415D2F83414C3F86015D2F83814C3F8AB
:1029B0006415D2F83C14C3F86815D2F84014564890
:1029C000C3F86C15D2F844140268C3F87015501C93
:1029D0006CD0062A8BD15C4B4F4A1B685B4912684E
:1029E00003F04F030B60511C42D0062A7FF47FAFE7
:1029F0004FF08043D3F80034DA0745D44C4B1B68C2
:102A0000033B022B7FF673AF514A136843F4806394
:102A100013606CE74A4B1B68C3F30313032B7FF46B
:102A20005EAF4C4D4C482B604C4C4D494D4A0523F4
:102A30000360012500203F232560086013604EE7F6
:102A40003F4B1B68C3F30313032B7FF432AF464A9B
:102A5000D36823F08073D3602BE7394B1B68C3F333
:102A60000313032B7FF412AF404B414A1A600DE76A
:102A70002A4B1B78062B7FF43AAF4FF08043D3F8F4
:102A80000034DB077FF533AF234B1B684FF08042E8
:102A90006FF00101062BC2F800147FF428AF244B1D
:102AA0001B68033B022B7FF622AFADE71B4B1B7865
:102AB000062B90D01BE72F4A0123C2F80435D2F829
:102AC0000034002BFBD04FF010231521294AC3F806
:102AD0000012D2F80034002BFBD04FF01023152148
:102AE000244AC3F80412D2F80034002BFBD0002390
:102AF0002049C2F80435D1F80034002BFBD0BFF3D5
:102B00004F8F0C491C4BCA6802F4E0621343CB6040
:102B1000BFF34F8F00BFFDE730010010E00F00F062
:102B20002403001040350140440200103C050040E1
:102B30003401001000ED00E01C0000200090D003E4
:102B4000E80F00F000C0004058020010E40E004002
:102B50003C170040A0050040105600408856004039
:102B60001856004014560040F0ED00E074C00740D5
:102B70000DF0ADBA00E001400400FA05064A074B2B
:102B8000527C07490748C1F81405013A43EA024359
:102B9000C1F81835704700BF200000202000000158
:102BA0000010004006000300074B084A5B7C084900
:102BB000C2F81415013B40EA034343EA002343F003
:102BC0008073C2F8183570472000002000100040C4
:102BD0000001010010B50B4B0B4C1B680B490C4A54
:102BE00043F00403C4F800320B68D07C9847094ACC
:102BF00009490A4BC4F804250948086004221A70E0
:102C000010BD00BF34000020001000404C0A00201E
:102C1000FC06002084080020480A00202407002029
:102C2000392D0000F0B41B4BD3F82425D3F824151C
:102C3000D3F82405D3F82465D3F82845D3F82855CC
:102C4000D3F82875D3F828C5D3B2C1F3072293422D
:102C500014D0C0F30740834210D0B3EB166F0DD0F1
:102C6000E4B2A3420AD0C5F30725AB4206D0C7F3AE
:102C70000747BB4202D0B3EB1C6F08D1064A13686A
:102C800023F0807323F0010343F080731360F0BCE2
:102C9000704700BF0010004074170040F8B5214C89
:102CA000A36A072B2DD8204B1A78012A2BD11F4E4F
:102CB0003278202A25D8236A54F823C08CF80020C3
:102CC0000F4605461A490CF1050000F06FFE226A16
:102CD000184B54F822004570D3F8483583700771BB
:102CE00073780132DB4303F00103072AC37084BF0A
:102CF00000232362A36A98BF22620133A3620120EA
:102D0000F8BD0020F8BD256A5A7854F825C01AB9D4
:102D10008CF80020054ED3E7DA7C044E8CF80020B6
:102D2000CEE700BF30070020FC060020840800200A
:102D300086080020001000402DE9F047AA4CD4F886
:102D40000054002D00F0BF80A84B9B6A072B00F2B7
:102D5000FB80D4F80824A64DA64ED4F80C0435F810
:102D60002230717898424FEA510E79D001274FF006
:102D7000000C94002B19A048DFF86C9283F802E055
:102D8000037DD9F80CE425F822E01BB111F0010A0B
:102D900000F0F380994B944A1B6843F00803C2F893
:102DA000003290F80080B8F1000F00F0C180B8F157
:102DB000010F61D192498B6A002B00F0A880D2F8F4
:102DC00008E4904850F82EE0BEF1000F00F09F801C
:102DD000D2F808E4DFF8488250F82E9005EB040E94
:102DE000D9F800909EF803E0C8F80090BEF1000FFB
:102DF0001ED0BCF1000F1BD1D2F808E450F82E20F1
:102E000082F804C050F82E20013B92688B6240F893
:102E10002E20002B00F0D380002A00F0D0807A49C9
:102E2000D2F800900B68C8F8009043F001030B60E3
:102E3000764B1A68B9F1000F00F0CA802B190121F6
:102E4000D97099F80000DFF8DC919047D8F80010AD
:102E5000484611F8052B00F8022B00F0A7FD63E0AF
:102E600094002B199B7873450BBF002701274FF067
:102E7000010C4FF0000C7DE7DFF8A891644A5A4B33
:102E800005211170D3F80814624AC3F82C15624961
:102E9000C3F8049511600FB9BDE8F087524B254483
:102EA000D3F80804A978C0B2FFF7F8FE0028F3D0E1
:102EB000554A5A4913684FF4801043F004031360D5
:102EC000C1F80001E8E7DFF834814B4AD8F8001078
:102ED0004E4BC4F800121B68D07C9847454BC4F891
:102EE00004350123C4F8105122462361D2F8103171
:102EF000002BFBD00023C2F81031D8F8003001219C
:102F000043F00403C2F800325160BDE8F0872B198A
:102F10003E4ADFF8109112684FF0000883F80380F2
:102F20004046904789F80080737889F80130A5E71A
:102F3000364BDFF8F0901B6840469847337889F8A5
:102F4000003089F8018099E7DFF8B0802A4AD8F884
:102F500000102E4BC4F800121B68D07C9847254BFC
:102F6000C4F8043500220123C4F81021224623614D
:102F7000D2F81031002BFBD0BCE7DFF88080234B68
:102F8000D8F80020C9F800221B68C07C98470123AC
:102F9000C9F804654A46C9F810A1C9F81030D2F83A
:102FA0001031002BFBD00023C2F81031D8F80030CC
:102FB000012143F00403C2F8003251606BE7124A6A
:102FC00012491368C8F800C043F0010313600A688F
:102FD000DFF850902B194FF0000883F8038040462B
:102FE000904789F800809FE70010004030070020DC
:102FF000A808002084080020FC06002034000020DF
:10300000C8080020880A00201C0700204C0A002065
:1030100024070020480A0020D52B000000E100E032
:10302000440A00201C0A0020124BD3F8002132B1C0
:10303000D3F80423D00744BF0022C3F800210D4B6E
:10304000D3F80C2132B1D3F80423110744BF002276
:10305000C3F80C21074BD3F8102152B1D3F8042345
:10306000D20606D50021044AC3F81011136803B133
:103070001847704700100040480A0020002800F060
:103080008E812DE9F84FDFF88C8398F800300546E3
:1030900043B3C549C548C64AC64B4FF47054C1F83E
:1030A0000845002421461470C0E9084484622022A7
:1030B000C1489C62C3E9084488F8004000F084FCE1
:1030C00021460822BD4800F07FFCBD4B4FF4801222
:1030D000C3F88020BFF34F8FBFF36F8FB94B03222C
:1030E000C3F80022B84CB94B6A681A602946182206
:1030F000204600F05BFC0025B54BAF481D6029461B
:10310000202200F061FC29460822AC4800F05CFC5B
:10311000AC4A237AA17AC2F80C15C2F81035042BF8
:1031200000F23F81DFE813F005001D0119010500E1
:103130001D01A84A492313601368A1893E339942AF
:1031400018D213683E33A38101252278637AE07C8C
:10315000B2B1012A18D1A049A04A0A60012B00F09F
:103160000C81002B00F00181022B19D09047072021
:10317000BDE8F88F2278637AE07C0125002AE8D147
:103180009549974A0A60E9E7934A012B126800F0D3
:10319000F3805DB2002D00F0E880022BE6D100251F
:1031A000884B90494FF6FF76C3F83C65C3F8381555
:1031B0000223DFF81092C9F834359047002DD6D09D
:1031C00089487C4DDFF850A2884A894B7749764E72
:1031D000884FDFF848C24FF0E73E4FF0433BC9F855
:1031E0001CE5C9F820B5C9F824A500F1250A02F1AB
:1031F000250EC5F804A000F16F0AC1F804E0C3F879
:103200000CE0C5F80CA000F14A0E00F1B90AC5F8AF
:1032100008E0C5F814A04A3200F1940E00F2031A37
:103220008A60C5F810E0C5F81CA000F1DE0E02F1BE
:10323000250A714AC5F818E04FF0000EC9F8282594
:10324000AAF16F020AF1250B28600A600AF14A0010
:103250001A60C5E908EE0AF19402C5F828E00AF1FF
:103260006F05C1E903ABC1E90505C1E908EEC1F885
:1032700028E0CA61A0F16F0183F804E0C3F808E018
:1032800083F810E0C3F814E09961C3F824A0C3F8F0
:1032900030B0D8639D645A6583F81CE0C3F820E021
:1032A00083F828E0C3F82CE083F834E0C3F838E072
:1032B00083F840E0C3F844E083F84CE0C3F850E002
:1032C00083F858E0C3F85CE0042140F2022A4B483E
:1032D0004B4D4C4A4C4BC7E900EEC7E902EEC7E93B
:1032E00004EEC7E906EECCF81015CCF808E5CCF8EA
:1032F00000A2C6F86005C6F864C5C6F86855C6F8E9
:103300006C25C6F87035627CA37C2D493F4CC6F80D
:10331000744500F5104052015B014430D2B2DBB27B
:10332000C6F87805C6F87C9581F8012381F8143336
:103330004FF480130B601E4901224FF0805381F837
:1033400000E088F80020D3F8043103F47F43B3F59C
:103350008A4F1CD07046BDE8F88F1E4AFA231360CE
:10336000EAE61C4A30231360E6E616490023C1F85A
:103370003C35C1F838351CE70025124BFF2640F2DA
:103380000711C3F83C65C3F83815012311E7204A3B
:10339000136843F4806313607046BDE8F88F0E2015
:1033A00070470025D1E600BF00F00140C8080020AA
:1033B0002407002030070020A8080020280700204C
:1033C00000E100E000100040FC060020180700208B
:1033D0001C070020400A00204C0A00207D2B000022
:1033E000A92B0000211001005C070020F408002038
:1033F000A80A0020880A0020A363E31300110040FC
:103400000411004010A0004040A1004010100040F6
:103410003C17004014070020E743C32300A00040EE
:1034200030B5174B174A1B78126883B001922BB343
:10343000154B0222C3F88020BFF34F8FBFF36F8F6D
:10344000124900200D6808601A60114C2368ABB166
:10345000E90703D58DF8000068469847AA0705D507
:1034600001238DF800306846236898476B0705D51F
:10347000022223688DF800206846984703B030BDCB
:10348000140700202007002000E100E01C070020B6
:10349000180700201A4B1B7873B378B310B5194C7A
:1034A000A36A3BB3184B0222C3F88020BFF34F8FAF
:1034B000BFF36F8F636A54F823100A7802704B7859
:1034C000437091F9023083700B790371CB78C3702C
:1034D0000531053000F06AFA636A0133072B88BFB3
:1034E00000236362A36A013BA362074B02221A60B6
:1034F000002010BD052010BD082070470E20704729
:10350000140700203007002000E100E01B490B7881
:103510008BBBF0B403F0FF02194B1A481A4D1B4C39
:103520004FF0FF36C3F80863C3F810210068184E47
:10353000266040F00400AF7CEE7CC3F8000210204F
:10354000C3F80403134C144D042008700221C3F87F
:103550003075C3F80865C3F80455C4F880112160BC
:103560000121C3F80421C3F80821C3F810215960D0
:103570001046F0BC70471120704700BF24070020A0
:10358000001000403400002020000020480A0020E5
:10359000392D000000E100E084080020344B1B7846
:1035A000002B5FD100285FD010B54FF08053314C15
:1035B000D3F8043103F47F43B3F5844F10D1617C19
:1035C0002D4A0368052918BF4FF07F4293FAA3F3F1
:1035D0001A4205D1294BD3F8243513F0FF0F45D0FB
:1035E00001460422234800F0E1F9236893FAA3F38B
:1035F000224A4FF08051C2F81C35D1F8043103F44F
:103600007F43B3F5844F1DD04FF08053D3F804317E
:1036100003F47F43B3F58A4F01D0002010BD174952
:10362000607C154BD1F81C25D1F82015052818BF52
:103630004FF07F431A400B409A42EED1FFF7F2FA67
:10364000002010BDD2F850360D4923F00103C2F816
:1036500050360B6823F0807323F0010343F080732E
:103660000B60D1E7112070470E207047072010BD76
:1036700024070020200000200000FFFF0010004071
:1036800074170040434B1B78002B5AD100287FD081
:1036900010B54FF08053404CD3F8043103F47F430E
:1036A000B3F5844F2ED1617C3C4A0368052918BFCD
:1036B0004FF07F4293FAA3F31A4223D1384BD3F849
:1036C000242512F47F4F61D0D3F8242512F47F0F04
:1036D0005CD0D3F8242512F07F4F57D0D3F828259B
:1036E00012F07F4F52D0D3F8282512F47F0F4DD01F
:1036F000D3F8282512F47F4F48D0D3F8283513F09B
:10370000FF0F43D001460422264800F04FF96368BA
:1037100093FAA3F3224A4FF08051C2F82035D1F832
:10372000043103F47F43B3F5844F1FD04FF080532F
:10373000D3F8043103F47F43B3F58A4F03D000205C
:1037400010BD112070471649607C144BD1F81C2520
:10375000D1F82015052818BF4FF07F431A400B40C1
:103760009A42ECD1FFF75EFA002010BDD2F8503635
:103770000D4923F00103C2F850360B6823F0807323
:1037800023F0010343F080730B60CFE7072010BDE7
:103790000E20704724070020200000200000FFFFBB
:1037A00000100040240000207417004038B5524B30
:1037B0001B78002B40F08380002800F09B800829B4
:1037C0007FD84FF080534D4CD3F8043103F47F433E
:1037D000B3F5844F37D1627C494B052A18BF4FF0AF
:1037E0007F4300296FD0474AD2F81C251A4202D1E4
:1037F0000278002A65D0434AD2F820251A4222D105
:10380000012920D04378002B5BD002291BD083787C
:10381000002B56D0032916D0C378002B51D0042991
:1038200011D00379002B4CD005290CD04379002B03
:1038300047D0062907D08379002B42D0082902D12E
:10384000C379002B3DD00D462A4601462E4800F094
:10385000ADF8C5F10802FF231341A3742574A368D2
:1038600093FAA3F3274A1BBAC2F82435E36893FA04
:10387000A3F34FF080511BBAC2F82835D1F80431B8
:1038800003F47F43B3F5844F0ED1D2F850361F496D
:1038900023F00103C2F850360B6823F0807323F045
:1038A000010343F080730B604FF08053D3F8043171
:1038B00003F47F43B3F58A4F09D0002038BD1120AF
:1038C00038BD072038BD0F4BD3F82035BBE70D4975
:1038D000607C0B4BD1F81C25D1F82015052818BFAA
:1038E0004FF07F431A400B409A42E6D1FFF79AF916
:1038F000002038BD0E2038BD240700202000002005
:103900000000FFFF00100040280000207417004056
:10391000074BD3F8402132B10021064AC3F84011C9
:103920001378032B00D07047034B01221A617047B4
:1039300000A00140240700200010004008B5074BFC
:10394000044613B10021AFF30080054B1868836A69
:1039500003B19847204601F017F800BF00000000AF
:10396000E44C000070B50D4D0D4C641BA4100026F6
:10397000A64209D10B4D0C4C01F008F8641BA410B1
:103980000026A64205D170BD55F8043B9847013684
:10399000EEE755F8043B98470136F2E79C0000201B
:1039A0009C0000209C000020A00000200A449142BE
:1039B00000F1FF3300D1704710B511F8014B03F847
:1039C000014F9142F9D110BD02440346934200D108
:1039D000704703F8011BF9E70FB40A4B13B51C68D5
:1039E00024B1A36913B9204600F06EF805AB049A20
:1039F000A1680193204600F08BF902B0BDE81040A9
:103A000004B0704738000020034613F8012B002A49
:103A1000FBD1181A01387047002310B50446C0E9DD
:103A20000033836081814366C281C0E904338361CE
:103A3000194608225C30FFF7C7FF054B6362054B50
:103A4000A362054BE362054B2462236310BD00BFF4
:103A500095420000B7420000EF420000134300000F
:103A6000014900F0AFB800BFED45000070B54A1E37
:103A7000682555430E4605F1740100F0C5F804466B
:103A800040B10021C0E900160C30A06005F16802C9
:103A9000FFF79AFF204670BD014800F0B2B800BFA2
:103AA000100B0020014800F0ADB800BF100B002043
:103AB000014800F0A6B800BF0B0B0020014800F041
:103AC000A1B800BF0B0B002010B50446FFF7F0FFB4
:103AD000A3691BB1BDE81040FFF7F0BFC4E9123382
:103AE0002365134B134A1B68A262A34204BF012340
:103AF000A361204600F020F86060204600F01CF82A
:103B0000A060204600F018F80022E0600421606800
:103B1000FFF782FF01220921A068FFF77DFF022243
:103B20001221E068FFF778FF0123A361D2E700BF0D
:103B3000E44C0000613A0000F8B50746FFF7ACFF1F
:103B40001E4B1E68B36913B93046FFF7BDFF4836F8
:103B5000D6E90134013B03D533680BB33668F7E788
:103B6000B4F90C50D5B9164BE36004F15800656602
:103B700000F046F8FFF796FF2560C4E90155C4E957
:103B80000455A5610822294604F15C00FFF71CFFDB
:103B9000C4E90D55C4E912552046F8BD6834D9E78B
:103BA00004213846FFF762FF044630600028D5D173
:103BB000FFF778FF0C233B60EEE700BFE44C00000A
:103BC0000100FFFF2DE9F8438046894600F14804D3
:103BD000002614B93046BDE8F883D4E90175013FE9
:103BE00001D52468F5E7AB89012B07D9B5F90E306B
:103BF000013303D029464046C84706436835EEE7FF
:103C00007047704770470000F8B5CD1C25F00305DC
:103C100008350C2D38BF0C25002D064601DBA942C6
:103C200003D90C2333600020F8BD00F0E1FD2149E9
:103C30000A6814469CB9204F3B6823B92146304698
:103C400000F018FB38602946304600F013FB431C97
:103C500023D10C233360304600F0D0FDE3E7236826
:103C60005B1B17D40B2B03D923601C44256004E095
:103C70006368A2420CBF0B605360304600F0BEFD8B
:103C800004F10B00231D20F00700C21ACCD01B1A30
:103C9000A350C9E722466468CCE7C41C24F003049F
:103CA000A042E3D0211A304600F0E4FA0130DDD121
:103CB000CFE700BF500A0020540A00209368013B60
:103CC000002B10B4936008DA9469A34201DB0A293F
:103CD00003D15DF8044B00F021BB1368581C106041
:103CE000197008465DF8044B7047F8B506460F4654
:103CF0001446D518AC4201D1002007E03A4614F82A
:103D0000011B3046FFF7DAFF431CF3D1F8BD00007A
:103D10002DE9F04F0D469DB014461E46074618B1DA
:103D200083690BB9FFF7D0FE854B9D421BD17D689F
:103D30006B6ED90705D4AB899A0502D4A86DFFF73D
:103D400060FFAB891B0701D52B69EBB929463846C3
:103D500000F048FBC0B16B6ED8070ED54FF0FF30B6
:103D60001DB0BDE8F08F774B9D4201D1BD68DFE704
:103D7000754B9D4208BFFD68DAE7AB899905EDD424
:103D8000A86DFFF73FFFE9E70023099320238DF893
:103D90002930DFF8B891039630238DF82A304FF0A0
:103DA000010A23461E4613F8012B0AB1252AF9D130
:103DB000B6EB040B0BD05B46224629463846FFF78C
:103DC00094FF013000F0A380099B5B440993337892
:103DD000002B00F09C8000234FF0FF32CDE905233B
:103DE0000136049307938DF853301A933446052215
:103DF00014F8011B554800F0ABFC049BC0B9DA066F
:103E000044BF20228DF85320180744BF2B228DF881
:103E1000532032782A2A13D0079A344600200A26E3
:103E2000214611F8013B303B092B4BD970B914E006
:103E3000A0EB09000AFA00F0184304902646D5E7E3
:103E4000039A111D12680391002A01DB079204E016
:103E5000524243F002030792049323782E2B0CD195
:103E600063782A2B33D1039B1A1D1B680392002B06
:103E7000B8BF4FF0FF3302340593354E217803224B
:103E8000304600F065FC38B14023801B03FA00F097
:103E9000049B03430134049314F8011B2D488DF84F
:103EA0002810062200F054FC00283FD02A4B13BBF8
:103EB000039B073323F0070308330393099B434411
:103EC00009936EE706FB023201200C46A8E70023A7
:103ED0000134059319460A26204610F8012B303A82
:103EE000092A03D9002BC8D00591C6E706FB01219A
:103EF00001230446F0E703AB00932A46174B04A9BD
:103F00003846AFF30080B0F1FF3F8046D6D16B6EEC
:103F1000D90705D4AB899A0502D4A86DFFF772FEC4
:103F2000AB895B063FF51AAF099819E703AB00931D
:103F30002A460A4B04A9384600F088F8E3E700BF98
:103F4000084D0000284D0000E84C0000484D0000DE
:103F50004E4D0000524D000000000000EB3C000000
:103F60002DE9F04791461F468A680B69DDF82080ED
:103F70009342B8BF1346C9F8003091F84320064673
:103F80000C4612B10133C9F800302368990642BFCC
:103F9000D9F800300233C9F80030256815F006055D
:103FA00007D104F1190AE368D9F800209B1AAB4243
:103FB00028DC94F843302268003318BF01239206AE
:103FC0002DD404F1430239463046C047013020D099
:103FD0002368E568D9F8002003F00603042B08BF26
:103FE000AD1AA36822690CBF25EAE5750025934246
:103FF000C4BF9B1AED184FF000091A344D451AD171
:10400000002008E00123524639463046C0470130BF
:1040100003D14FF0FF30BDE8F0870135C3E7E11869
:104020005A1C302081F84300224494F8451082F84D
:1040300043100233C5E70123224639463046C047C4
:104040000130E6D009F10109D8E700002DE9F0437D
:1040500006460C4601F14300097E85B06E2998465C
:1040600017460C9B00F0BA8024D8632939D00AD8AF
:10407000002900F0C380582900F0918004F1420526
:1040800084F8421035E0642901D06929F6D1256809
:104090001A6815F0800F02F104012CD01268196023
:1040A000002A03DA2D23524284F84330DFF8BCC1E2
:1040B0000A233FE0732900F0A58008D86F2921D09A
:1040C0007029DBD1226842F02002226003E07529CA
:1040D00018D07829D2D1782284F84520DFF890C111
:1040E00061E01A68111D1960136884F8423004F108
:1040F0004205012393E01268196015F0400F18BFC4
:1041000012B2CDE7D4F800C01A681CF0800F02F19B
:1041100004051D6001D0126803E01CF0400FFAD0C6
:104120001288DFF848C16F290CBF08230A23002139
:1041300084F843106568A560002DA2BF216821F0B6
:10414000040121600AB9002D46D00546B2FBF3F107
:1041500003FB112E93421CF80EE005F801ED39D94E
:10416000082B0BD12368DA0708D5236962689A42C5
:10417000DEBF302305F8013C05F1FF35401B20610F
:10418000CDF800803B4603AA21463046FFF7E8FE03
:10419000013049D14FF0FF3005B0BDE8F083DFF8C2
:1041A000CCC084F845101D68216855F8042B1D60AB
:1041B0000D060BD5CD0744BF41F0200121601AB98F
:1041C000236823F0200323601023B0E74B0648BF89
:1041D00092B2EFE70A46B9E70546C1E71A68D4F894
:1041E00000C06169151D1D601CF0800F136801D0AF
:1041F000196003E01CF0400FFAD0198000232361FE
:104200000546BDE71A68111D19601568626800212E
:10421000284600F09DFA08B1401B60606368236186
:10422000002384F84330ABE723692A4639463046F9
:10423000C0470130AED023689B0713D4E068039BCE
:104240009842B8BF1846A7E701234A463946304688
:10425000C04701309ED00135E368039A9B1AAB42F8
:10426000F2DCEBE7002504F11909F5E7594D0000F0
:104270006A4D000038B5064C002305460846236009
:1042800000F06CFB431C02D1236803B12B6038BDE6
:10429000140B002010B50C46B1F90E1000F002FB13
:1042A0000028ABBF636DA3891B1823F48053ACBFF8
:1042B0006365A38110BD2DE9F0411F468B89DB05A5
:1042C00005460C46164605D502230022B1F90E100C
:1042D00000F0C8F9A389B4F90E1023F48053A38128
:1042E00032463B462846BDE8F04100F069B810B5BB
:1042F0000C46B1F90E1000F0B5F9431CA38915BFA7
:10430000606523F4805343F48053A38118BFA381D5
:1043100010BDB1F90E1000F0D3B80000F8B50E468C
:104320001446054618B183690BB9FFF7CDFB214B45
:104330009C422BD16C68A369A360A3891A072FD56F
:1043400023696BB323692068C01A6369F6B283429C
:10435000374604DC2146284600F048F930BBA36804
:10436000013BA36023685A1C22601E706369013000
:10437000834204D0A389DB0706D50A2E04D1214647
:10438000284600F033F988B93846F8BD0A4B9C42FC
:1043900001D1AC68CFE7094B9C4208BFEC68CAE783
:1043A0002146284600F01EF80028CBD04FF0FF37FA
:1043B000EAE700BF084D0000284D0000E84C00006F
:1043C00038B5074C054608461146002222601A46B9
:1043D00000F0D2FA431C02D1236803B12B6038BD30
:1043E000140B0020324B70B51D6806460C4625B1F3
:1043F000AB6913B92846FFF767FB2E4B9C420FD1E0
:104400006C68B4F90C309AB215072CD4D00611D4CC
:104410000922326043F04003A3814FF0FF303EE0B9
:10442000254B9C4201D1AC68EBE7244B9C4208BF72
:10443000EC68E6E7510712D5616B41B104F1440322
:10444000994202D0304600F0DFF900236363A3896C
:1044500023F02403A3810023636023692360A389DD
:1044600043F00803A38123694BB9A38903F42073A4
:10447000B3F5007F03D02146304600F029F9A28928
:1044800012F001030CD00023A36063695B42A361B7
:10449000236953B9B4F90C3013F08000BAD170BD60
:1044A000920758BF6369A360F2E70020F7E700BFF7
:1044B00038000020084D0000284D0000E84C0000A6
:1044C00038B5064C002305460846236000F01EFA66
:1044D000431C02D1236803B12B6038BD140B0020AC
:1044E0008A892DE9F041054610070C4658D44B68DF
:1044F000002B05DC0B6C002B02DC0020BDE8F081FA
:10450000E66A002EF9D0002312F480522F682B6047
:1045100032D0606DA3895A0705D56368C01A636BF2
:104520000BB1236CC01A00230246E66A216A2846B2
:10453000B047431CA38906D129681D292CD82A4AD3
:10454000CA40D60728D500226260D90422692260B9
:1045500004D5421C01D12B6803B96065616B2F60E3
:104560000029CAD004F14403994202D0284600F041
:104570004BF900206063C1E7216A01232846B04758
:10458000411CC7D12B68002BC4D01D2B01D0162B8A
:1045900001D12F60B1E7A38943F04003A381ADE7C8
:1045A0000F69002FA9D093070E6808BF4B690F60F1
:1045B00018BF0023A6EB07088B60B8F1000F9CDD45
:1045C00043463A46216AA66A2846B047002806DCD8
:1045D000A38943F04003A3814FF0FF308EE70744E7
:1045E000A8EB0008E9E700BF0100402038B50B69DF
:1045F00005460C4613B90025284638BD18B1836915
:104600000BB9FFF761FA144B9C421BD16C68B4F9EB
:104610000C30002BEFD0626ED00704D4990502D481
:10462000A06DFFF7EEFA28462146FFF759FF636EAB
:10463000DA070546E0D4A3899B05DDD4A06DFFF71A
:10464000E1FAD9E7054B9C4201D1AC68DFE7044BA6
:104650009C4208BFEC68DAE7084D0000284D0000D6
:10466000E84C000038B5074C0546084611460022C4
:1046700022601A4600F062F9431C02D1236803B19C
:104680002B6038BD140B002070B50E46B1F90E102A
:10469000002996B014461D4607DA00232B60B38923
:1046A0001A0610D44FF480630EE06A4600F00CF94D
:1046B0000028F2DB019A02F47042A2F500535A423C
:1046C0005A412A60EEE740230020236016B070BDF7
:1046D0008B8973B59D0706460C4607D504F1470341
:1046E000236023610123636102B070BD01AB6A46A0
:1046F000FFF7CAFF009905463046FFF785FA48B92B
:10470000B4F90C309A05EFD423F0030343F002030D
:10471000A381E3E70D4BB362A389206043F08003DC
:10472000A381009B6361019B20615BB1B4F90E1012
:10473000304600F0DBF828B1A38923F0030343F0EF
:104740000103A381A3891D43A581CDE7613A000040
:1047500001F0FF01102A2BDB10F0070F08D010F832
:10476000013B013A8B422DD010F0070F42B3F6D136
:10477000F0B441EA012141EA014122F007047FF04F
:1047800000070023F0E80256083C85EA010586EAA6
:10479000010685FA47F5A3FA87F586FA47F6A5FAE2
:1047A00087F68EB9EED1F0BC01F0FF0102F00702EE
:1047B00032B110F8013B013A83EA010313B1F8D199
:1047C0000020704701387047002D06BF354603387A
:1047D000073815F0010F07D1013015F4807F02BFB3
:1047E000013015F4C03F0130F0BC0138704700BF04
:1047F0000148FFF706BA00BF0C0B00200148FFF785
:1048000001BA00BF0C0B002038B50546002945D081
:1048100051F8043C0C1F002BB8BFE418FFF7E8FF69
:104820001F4A1368104633B9636014602846BDE818
:104830003840FFF7E3BFA3420CD9216862189342C6
:1048400004BF1A685B68636004BF5218226004608A
:10485000ECE713465A680AB1A242FAD91968581807
:10486000A0420BD120680144581882421960DDD162
:10487000106852685A6001441960D7E702D90C23C6
:104880002B60D3E7206821188A4204BF1168526860
:10489000626004BF091821605C60C7E738BD00BFD3
:1048A000500A002038B5074C05460846114600223C
:1048B00022601A4600F04AF8431C02D1236803B173
:1048C0002B6038BD140B002038B5074C002305467B
:1048D00008461146236000F021F8431C02D12368EA
:1048E00003B12B6038BD00BF140B002038B5064C57
:1048F000002305460846236000F018F8431C02D147
:10490000236803B12B6038BD140B0020024B5822E2
:104910001A604FF0FF307047140B0020024B5822F2
:104920001A604FF0FF307047140B0020024B5822E2
:104930001A600020704700BF140B0020024B582261
:104940001A604FF0FF307047140B0020024B5822C2
:104950001A604FF0FF307047140B0020044A0549DD
:104960001368002B08BF0B461844106018467047A8
:10497000580A0020180B0020024B58221A604FF0F2
:10498000FF307047140B0020FEE700BFF8B500BFF2
:10499000F8BC08BC9E467047F8B500BFF8BC08BC20
:1049A0009E467047FFFFFFFFFFFFFFFFFFFFFFFF78
:1049B000FFFFFFFF00000000000000000000D60124
:1049C00006010000C903000035040000C503000013
:1049D000756172745F6C6F675F6261636B656E6453
:1049E00000000000FC0500207F0000007C06002085
:1049F0004261636B656E647320666C757368656491
:104A00000000000061707000644A0000904A0000DD
:104A1000444A0000984A0000A04A0000A84A00004A
:104A2000B04A0000B84A0000C04A000020253032D9
:104A300078000000202020007C000000256300009A
:104A40000D0A00001B5B313B33316D0025734C6F49
:104A500067732064726F707065642028256429254F
:104A6000730D0A001B5B306D000000002573000011
:104A70003C25733E2025733A200000000000000012
:104A8000C84A0000D04A0000D84A0000E04A0000AE
:104A90001B5B313B33306D001B5B313B33326D00B0
:104AA0001B5B313B33336D001B5B313B33346D009B
:104AB0001B5B313B33356D001B5B313B33366D0087
:104AC0001B5B313B33376D006572726F7200000003
:104AD0007761726E696E6700696E666F0000000034
:104AE0006465627567000000466174616C206572E0
:104AF000726F720053797374656D2072657365749B
:104B00000000000030313233343536373839414215
:104B10004344454650525300554152540000000052
:104B20005541525445000000E7E7E7E7C2C2C2C260
:104B3000E7C2C3C4C5C6C7C801000000000000002A
:104B400001020000FA000300000102200000000042
:104B5000456E68616E6365642053686F636B427570
:104B60007273742052656365697665722045786159
:104B70006D706C6520737461727465642E00000042
:104B800054582053554343455353204556454E549E
:104B9000000000005458204641494C4544204556E9
:104BA000454E5400525820524543454956454420ED
:104BB0004556454E540000007472616D6520726563
:104BC000E775652021200A00526563656976696E84
:104BD00067207061636B65743A202530327800007D
:104BE00000202020202020202020282828282820BD
:104BF00020202020202020202020202020202020B5
:104C0000208810101010101010101010101010101C
:104C1000100404040404040404040410101010100C
:104C200010104141414141410101010101010101D6
:104C30000101010101010101010101011010101028
:104C400010104242424242420202020202020202A8
:104C500002020202020202020202020210101010FC
:104C60002000000000000000000000000000000024
:104C70000000000000000000000000000000000034
:104C80000000000000000000000000000000000024
:104C90000000000000000000000000000000000014
:104CA0000000000000000000000000000000000004
:104CB00000000000000000000000000000000000F4
:104CC00000000000000000000000000000000000E4
:104CD00000000000000000000000000000000000D4
:104CE000000000003C000020000000000000000068
:104CF00000000000000000000000000000000000B4
:104D000000000000000000000000000000000000A3
:104D10000000000000000000000000000000000093
:104D20000000000000000000000000000000000083
:104D30000000000000000000000000000000000073
:104D40000000000000000000232D302B2000686CC4
:104D50004C0065666745464700303132333435369E
:104D600037383941424344454600303132333435D7
:104D70003637383961626364656600000000000000
:104D8000144B000000000000184B00000000000061
:104D9000204B000000000000044A00000000040452
:104DA000C449000000000000D049000014000020A9
:104DB0000C010020D4010020DC010020140100209F
:044DC00018000000D7
:084DC4007CB4FF7F0100000038
:104DCC000000000000200040000000000020004017
:104DDC000000000000000000FF0000000090D00365
:104DEC00E7E7E7E7C2C2C2C2E7C2C3C4C5C6C7C8C9
:104DFC000805FF02130100003C0000200000000029
:104E0C00084D0000284D0000E84C00000000000098
:104E1C000000000000000000000000000000000086
:104E2C000000000000000000000000000000000076
:104E3C000000000000000000000000000000000066
:104E4C000000000000000000000000000000000056
:104E5C00000000000000000000000000250200001F
:044E6C00010200003F
:04000003000002B542
:00000001FF
