:020000022000DC
:1060000000000120B5620200DD620200DF620200D2
:10601000E1620200E3620200E562020000000000AB
:10602000000000000000000000000000E762020025
:10603000E962020000000000EB620200ED62020073
:10604000A5B50200EF62020071BD0200EF6202001E
:10605000EF620200EF62020039B90200EF62020053
:10606000EF620200EF620200EF620200EF620200E4
:10607000EF620200EF620200EF620200EF620200D4
:10608000EF620200B17F0200EF620200EF620200E5
:10609000EF620200EF6202004D430300EF62020074
:1060A000EF620200EF620200EF620200EF620200A4
:1060B000EF620200EF62020000000000000000003A
:1060C000EF620200EF620200EF620200EF62020084
:1060D000EF620200EF620200EF62020000000000C7
:1060E00000000000000000000000000000000000B0
:1060F00000000000000000000000000000000000A0
:10610000000000000000000000000000000000008F
:10611000000000000000000000000000000000007F
:10612000000000000000000000000000000000006F
:10613000000000000000000000000000000000005F
:10614000000000000000000000000000000000004F
:10615000000000000000000000000000000000003F
:10616000000000000000000000000000000000002F
:10617000000000000000000000000000000000001F
:10618000000000000000000000000000000000000F
:1061900000000000000000000000000000000000FF
:1061A00000000000000000000000000000000000EF
:1061B00000000000000000000000000000000000DF
:1061C00000000000000000000000000000000000CF
:1061D00000000000000000000000000000000000BF
:1061E00000000000000000000000000000000000AF
:1061F000000000000000000000000000000000009F
:1062000010B5054C237833B9044B13B10448AFF3F0
:1062100000800123237010BD4023002000000000F7
:10622000046F030008B5034B1BB103490348AFF3E8
:10623000008008BD0000000044230020046F03001C
:10624000154B002B08BF134B9D46A3F5803A002148
:106250008B460F461348144A121A0EF049FA0F4B98
:10626000002B00D098470E4B002B00D09847002001
:10627000002104000D000D48002802D00C48AFF3A7
:1062800000800EF0F5F92000290007F025F80EF047
:10629000DBF900BF00000800000001200000000042
:1062A00000000000402300204838002000000000CB
:1062B000000000000649074A074B9B1A03DD043B18
:1062C000C858D050FBDC04F0E5FDFFF7B9FF000033
:1062D000C47003005022002040230020FEE7FEE7A8
:1062E000FEE7FEE7FEE7FEE7FEE7FEE7FEE7FEE786
:1062F000F0B595B0002415460F4608461E4604F03A
:106300003FFB384623460895082205A91A9D0996A1
:106310000D950A948DF82C400C9404F095FB9DF893
:1063200014308DF81140DDE9061003F00302012A54
:10633000CDE9020127D0022A04D0384604F024FB1C
:1063400015B0F0BDBDF81650C3F3C2038DF8103080
:10635000AD090826082D2C4628BF082433462246BE
:106360000EA9384604F070FB2D1B214608AB02AA8B
:106370000EA8264400F09CFF002DEBD1384604F017
:1063800003FB15B0F0BDBDF81460059DC6F3831680
:10639000C3F3C204B2000EA9384608238DF810409A
:1063A000C5F3952504F050FB08AB324628460EA9EC
:1063B000009302AB00F006FF384604F0E5FA15B092
:1063C000F0BD00BF014B01221A707047A0230020CE
:1063D000704700BF00B583B0044B0093044A4023CC
:1063E000FFF786FF03B05DF804FB00BFF563020012
:1063F0006023002038B50E480E4D03780E4CEB5C40
:106400000025D2B2257053B1043006F0A3F958B973
:106410000A4B1B7813B12378002BFCD038BD0C300D
:1064200005F0FAFE0028F3D001F09AF9F0E700BF7A
:106430005022002044380020A02300205C230020AC
:1064400030B51448144A0378D35C89B0BBB104302A
:1064500006F0E2F8114D0FCD6C460FC495E80F0021
:10646000062584E80F00002269460A48009505F0D9
:1064700021F840B90A4B00221A7009B030BD0C3027
:1064800005F05EFEE6E701F06BF9054B00221A709D
:1064900009B030BD5022002044380020304A0300AB
:1064A0005C23002030B50E4D0FCD89B06C460FC473
:1064B00095E80F00062584E80F000A4A0A4800956F
:1064C000694604F0F7FF20B9084B01221A7009B0A1
:1064D00030BD01F045F9054B01221A7009B030BDFD
:1064E000304A0300C5630200502200205C230020D4
:1064F00008B5FFF7D7FF0421034800F0D5FD034B93
:1065000001225A7108BD00BFAC7003006422002054
:10651000064B074810B500221A7004F0C5F904466E
:1065200010B9044804F0E6FB204610BD7424002096
:10653000AC6F0300704A0300A9B1124B12495B1AF9
:10654000DB081AD030B4114C2288824217D00022C6
:1065500003E034F8225085420AD001329342F8D148
:10656000002030BC7047084A02EBC0021068704738
:1065700001EBC202106830BC7047184670470A46EB
:10658000F8E700BFAC700300D46F03003C23002089
:10659000094B013903EBC00003290BD8DFE801F0F8
:1065A000020806040220704740797047007970475E
:1065B0000420704700207047D46F03002DE9F0439A
:1065C0008D4CD4E901239A4285B060D00023C4F8F1
:1065D0001834BFF34F8FA568EAB2D31C04EB8301D4
:1065E00014F82330580718D566680B7803F00303B6
:1065F000012B42D0022B03D14B88023505EB9315BA
:10660000EAB2D4F81804D31C04EB830128B9AE42D3
:1066100039D914F823305B07E7D404EB82026B1CF2
:10662000D2680192DBB204EB830302F00302DB6861
:106630000293022A05F102062DD0012A00F08F8074
:10664000D4F810543DB12B6828469B689847EB68F6
:106650001D68002DF7D16948694B6A49C01AC00806
:10666000000440F0020000F0D3F8D4E90130C01A71
:1066700018BF012005B0BDE8F0830B880235C3F3D5
:1066800083131D44BCE7A66005B0BDE8F08300207D
:1066900005B0BDE8F083BDF806305B484FEA9319BA
:1066A000B9F1500FC84628BF4FF0500868F38F1358
:1066B00008F10801ADF8063004F0F8F807460028A4
:1066C000BED0F543EDB204F05BF90135002301A91A
:1066D0000822384604F084F9AD00F3B20333A8452C
:1066E00004EB830178D9A8EB050808232A4638462D
:1066F0005FFA88F804F074F9424605F1080343494B
:10670000384604F06DF909F1030806EB9808D4F84F
:106710001834002B6AD1D4F8105465B1EB685A795B
:1067200028463946002A5DD02B681B689847EB68DD
:106730001D68002DF2D1384604F026F900230DF132
:1067400003008DF8033001F09FFAD4F818340BB928
:10675000C4F808809DF8030001F0BCFA85E7BDF895
:1067600004202948C2F38313062B28BF062363F3B2
:10677000891202339900ADF8042004F097F8074617
:1067800000283FF45DAF04F0FBF80023082201A9C4
:10679000384604F025F9BDF8043013F4707F29D091
:1067A0006FF00109A9EB05090825F1B203312B4669
:1067B000042204EB8101384604F012F9BDF80430DC
:1067C00006F1010809EB0802C3F38313934246461E
:1067D00005F10405E9D89AE742460823384604F053
:1067E000FFF890E71D68002D98D1A4E7384604F023
:1067F000CBF83AE7B0468AE774240020FC6F030028
:10680000D46F03007C4A0300AC6F03008024002097
:106810002DE9F04F634C87B0002307460DF10B00C4
:106820008DF80B30884601F02FFAD4E9015303F5B7
:1068300080735B1B012B00F2B28004F21C4604F54E
:10684000836A04F214490121304603F0A7F8504648
:1068500003F0C8F8484603F0C5F8A368D8B2C21CD4
:1068600004EB820114F8222012F0040200F094805C
:1068700003F1020C91F800E00EF0030EBEF1010FDF
:10688000E34600F08480BEF1020F00F1030E6FD0EA
:1068900004EB8E01002AEDD104EB80000133C268C5
:1068A0000392DBB204EB830302F00302012AD968EE
:1068B00057D0022A53D1BDF80E309B090333090C7F
:1068C0000BEB930B4846019103F098F801990028CF
:1068D00043D03046C4F808B003F060F8D4E9013280
:1068E00002F58072D21A012AADD9DAB2033202332C
:1068F00005219DF80B0044F82210636001F0EAF9CD
:106900000021294803F010F880F310006B1CDBB263
:1069100004EB83020004EBB2033340EA1740D0607B
:1069200014F8232067F3C50204F8232054F8231039
:1069300068F39F2121F4717222F0030242F00102F8
:1069400044F8231024F8232023781BB1FFF736FEE8
:106950000028FBD107B0BDE8F08F3046BCE700212E
:10696000B0E7BDF80C30C3F38313090C9B44A9E7CF
:106970004B880CEB9313D8B2C11C03F1020C14F832
:106980002120E34604EB810102F0040282E70B8838
:10699000C3F383136344EEE703F1020B7CE72B465A
:1069A000A3E700BF74240020902800202DE9F04FB9
:1069B000664C87B0002307460DF10B008DF80B30B5
:1069C0008946019201F060F9D4E9015303F580731F
:1069D0005B1B022B00F2B88004F21C4604F5836AAC
:1069E00004F214480121304602F0D8FF504602F06C
:1069F000F9FF404602F0F6FFA368D8B2C21C04EBD0
:106A0000820114F8222012F0040200F09A8003F1AF
:106A1000020C91F800E00EF0030EBEF1010FE34608
:106A200000F08A80BEF1020F00F1030E75D004EB76
:106A30008E01002AEDD104EB80000133C26803927D
:106A4000DBB204EB830302F00302012AD9685DD0B4
:106A5000022A59D1BDF80E309B090333090C0BEB08
:106A6000930B4046009102F0C9FF0099002849D0DD
:106A70003046C4F808B002F091FFD4E9013202F5C3
:106A80008072D21A022AADD9DAB203320333452119
:106A90009DF80B0044F82210636001F01BF9AB1C59
:106AA000DBB204EB8303019A2948DA60002102F08B
:106AB0003BFF80F310006B1CDBB204EB830300048C
:106AC000EDB2033540EA1740D86014F8253067F37B
:106AD000C50304F8253054F8252069F39F2222F4D9
:106AE000717323F0030343F0410344F8252024F895
:106AF000253023781BB1FFF761FD0028FBD107B0DB
:106B0000BDE8F08F3046B6E70021AAE7BDF80C30AB
:106B1000C3F38313090C9B44A3E74B880CEB93133B
:106B2000D8B2C11C03F1020C14F82120E34604EB97
:106B3000810102F004027CE70B88C3F383136344F2
:106B4000EEE703F1020B76E72B469DE77424002065
:106B5000902800202DE9F04F6A4C89B000250746A7
:106B60000DF11300CDE902238DF81350894601F091
:106B70008BF8D4E9015303F580735B1B032B00F200
:106B8000BE8004F21C4604F5836A04F21448012115
:106B9000304602F003FF504602F024FF404602F068
:106BA00021FFA368D8B2C21C04EB820114F8222092
:106BB00012F0040200F0A08003F1020C91F800E052
:106BC0000EF0030EBEF1010FE34600F09080BEF11F
:106BD000020F00F1030E7BD004EB8E01002AEDD1F1
:106BE00004EB80000133C2680592DBB204EB83033F
:106BF00002F00302012AD96863D0022A5FD1BDF8EE
:106C000016309B090333090C0BEB930B40460191A3
:106C100002F0F4FE019900284FD03046C4F808B0C5
:106C200002F0BCFED4E9013202F58072D21A032AC6
:106C3000ADD9DAB20332043385219DF8130044F84C
:106C40002210636001F046F8AA1CEB1CD2B204EBE0
:106C50008202DBB204EB8303029ED6600021039A1A
:106C60002948DA6002F060FE80F310006B1CDBB292
:106C700004EB83030004EDB2033540EA1740D8600B
:106C800014F8253067F3C50304F8253054F825209F
:106C900069F39F2222F4717323F0030343F081030D
:106CA00044F8252024F8253023781BB1FFF786FC13
:106CB0000028FBD109B0BDE8F08F3046B0E70021D5
:106CC000A4E7BDF81430C3F38313090C9B449DE77C
:106CD0004B880CEB9313D8B2C11C03F1020C14F8CF
:106CE0002120E34604EB810102F0040276E70B88E1
:106CF000C3F383136344EEE703F1020B70E72B4603
:106D000097E700BF74240020902800202DE9F04F61
:106D10006D4C89B0002507460DF11300CDE9022323
:106D20008DF81350894600F0AFFFD4E9015303F505
:106D300080735B1B042B00F2C58004F21C4604F533
:106D4000836A04F214480121304602F027FE5046BF
:106D500002F048FE404602F045FEA368D8B2C21CCD
:106D600004EB820114F8222012F0040200F0A78044
:106D700003F1020C91F800E00EF0030EBEF1010FDA
:106D8000E34600F09780BEF1020F00F1030E00F021
:106D9000828004EB8E01002AECD104EB80000133E9
:106DA000C2680592DBB204EB830302F00302012AFE
:106DB000D96869D0022A65D1BDF816309B09033322
:106DC000090C0BEB930B4046019102F017FE019961
:106DD000002855D03046C4F808B002F0DFFDD4E9F1
:106DE000013202F58072D21A042AACD9DAB2033227
:106DF0000533C5219DF8130044F82210636000F0AC
:106E000069FFA81CEA1CC0B22B1D04EB8000D2B2A3
:106E1000029EC66004EB8202DBB204EB8303039E96
:106E2000D6600021129A2948DA6002F07DFD80F3D5
:106E300010006B1CDBB204EB83030004EDB20335DE
:106E400040EA1740D86014F8253067F3C50304F80A
:106E5000253054F8252069F39F2222F4717323F022
:106E6000030343F0C10344F8252024F82530237898
:106E70001BB1FFF7A3FB0028FBD109B0BDE8F08FE1
:106E80003046AAE700219EE7BDF81430C3F3831310
:106E9000090C9B4497E74B880CEB9313D8B2C11CA9
:106EA00003F1020C14F82120E34604EB810102F007
:106EB000040270E70B88C3F383136344EEE703F126
:106EC000020B6AE72B4691E77424002090280020EB
:106ED0002DE9F04F724C89B0002507460DF11300E3
:106EE000CDE902238DF81350894600F0CDFED4E998
:106EF000015303F580735B1B052B00F2CF8004F276
:106F00001C4604F5836A04F214480121304602F05D
:106F100045FD504602F066FD404602F063FDA36861
:106F2000D8B2C21C04EB820114F8222012F0040231
:106F300000F0B18003F1020C91F800E00EF0030EB6
:106F4000BEF1010FE34600F0A180BEF1020F00F197
:106F5000030E00F08C8004EB8E01002AECD104EBD0
:106F600080000133C2680592DBB204EB830302F0B8
:106F70000302012AD96873D0022A6FD1BDF81630F6
:106F80009B090333090C0BEB930B4046019102F074
:106F900035FD019900285FD03046C4F808B002F0F2
:106FA000FDFCD4E9013202F58072D21A052AACD96F
:106FB000DAB20332063340F205119DF8130044F8AB
:106FC0002210EE1C636000F085FEA91C2A1D6B1DBB
:106FD000C9B2F6B2DBB204EB8101D2B204EB860691
:106FE00004EB820204EB830C0298039BC860F360FD
:106FF000129BD3600021139B2A48CCF80C3002F07E
:1070000093FC80F310006B1CDBB204EB83030004E1
:10701000EDB2033540EA1740D86014F8253067F325
:10702000C50304F8253054F8252069F39F2222F483
:10703000717323F0030343F4807343F0010344F8B6
:10704000252024F8253023781BB1FFF7B7FA002854
:10705000FBD109B0BDE8F08F3046A0E7002194E7EE
:10706000BDF81430C3F38313090C9B448DE74B88A0
:107070000CEB9313D8B2C11C03F1020C14F82120BD
:10708000E34604EB810102F0040266E70B88C3F3D8
:1070900083136344EEE703F1020B60E72B4687E7B7
:1070A0007424002090280020F0B41B4ED6F8103431
:1070B0000746002B2DD0DC68257900218D4208463B
:1070C00017D0234603E0DB681A798A4211D01B6887
:1070D000002BF8D1FB681871D6F810349BB1DA6830
:1070E000FB6812681A60D6F81034DB681F60F0BCC9
:1070F0007047092901F1010301D01946DEE74FF07D
:10710000FF30F0BC7047C6F81074FA681360F0BC2A
:1071100070471846DEE700BF7424002038B5084BDE
:10712000D3F8104401251D704CB1E3685D712368EC
:1071300020465B689847E3681C68002CF5D138BD91
:107140007424002030B5C38883B004460D4613BBB9
:10715000217A05291DD0637AA08873B9124B53F8A0
:1071600021400021FFF7E8F910490346224628464E
:1071700003B0BDE8304002F0B9BCFFF709FA0C4B90
:107180000C4953F82020284602F0B0FC217AA08850
:10719000E4E703B030BD084A00920849084A28468F
:1071A00002F0A4FCD4E700BF044B0300F84A03003C
:1071B000944A030054620300F04A0300D84A0300D3
:1071C000D04A03002DE9F04385B01D460C9C0023F6
:1071D00081460E46174694F80C80237321462846B4
:1071E000FFF7B0FF062F09D8DFE807F0042E343B85
:1071F000444F1F004946204602F078FC2B7A052BAD
:1072000005D06B7A5BB92749204602F06FFC204617
:1072100002F060FC84F80C8005B0BDE8F083224ADF
:107220002249204602F062FCEDE7D6E90413F26839
:107230000393B3680291CDE900324946D6E90023B1
:10724000204602F053FCD9E732684946204602F056
:107250004DFCD3E74946D6E90023204602F046FC20
:10726000CCE7B36800934946D6E90023204602F0F4
:107270003DFCC3E7D6E90232019200934946D6E9C4
:107280000023204602F032FCB8E7D6E90321B368B8
:107290000291CDE900324946D6E90023204602F0AA
:1072A00025FCABE7CC4A0300F04A0300546203001C
:1072B000082900D970472DE9F04F1D4683B00024FE
:1072C0001B7B2C7307460E461046294691460193B8
:1072D000DFF8C8A0DFF8C880FFF734FF05E03A5DAB
:1072E000013402F003FC082C09D0A642414628468E
:1072F000F5D85146013402F0F9FB082CF5D12249AA
:10730000DFF8A0A0214CDFF8A080284602F0EEFBB9
:107310004FF0000B0EE012F8081011F0970F08BFA5
:107320002E22214628460BF1010B02F0DFFBBBF1B8
:10733000080F10D05E4505D917F80B207E2AEAD930
:107340002E22EEE7514628460BF1010B02F0CEFB50
:10735000BBF1080FEED199F80830052B02D099F84F
:1073600009305BB90A49284602F0C0FB284602F002
:10737000B1FB019B2B7303B0BDE8F08F054A0649B2
:10738000284602F0B3FBEDE7C44A0300C84A0300F5
:10739000CC4A0300F04A030054620300C04A0300D1
:1073A000B84A0300004B0300FD6D030038B5184BCD
:1073B000197851B3174B1A68C4B21078844222D09E
:1073C000002301338B4220D012F83300844202EBB9
:1073D000C305F6D104F0A6FA6B78A3F10103B3FA62
:1073E00083F35B09834200D038BD0B4BD3E9002304
:1073F0001343F9D1094B0A48196800224908BDE82E
:10740000384000F0D3BB1546E4E700231B78FFDECD
:107410002C29002070290020582900203029002024
:1074200038290020F0B54508704E725D044610F012
:10743000010014BF130902F00F0383B0042B10D80E
:10744000DFE803F01F034B6D1100002940F0BA8004
:107450000C4600280EBFF0230F2321461A4011438B
:10746000715503B0F0BD002967D0002814BF0F216B
:10747000F02101EA020114BF302203220A437255AF
:10748000EFE70029EDD000280CBFF0210F2101EA21
:1074900002010CBF012210220A4300230DF1070054
:1074A00072558DF80730C4F1200500F0EDFB012383
:1074B0004F499DF80700A4F1200223FA05F503FACD
:1074C00002F22A43D1E9005603FA04F432432C4372
:1074D000C1E9004200F0FEFBC3E7002966D00028A6
:1074E000444B14BF0F21F02101EA0201187814BFA8
:1074F000302203220A4372550028B2D03E4B1A684C
:107500001378A34261D0002303E012F83310A142A4
:107510005CD00133834202EBC305F6D1A1E7002919
:107520009FD100280CBFF0210F2101EA02010CBFFE
:10753000042240220A43725593E72E4F002814BFBD
:107540000F23F02338781A40725570B12A4B1B680C
:107550001A78A24204D141E013F83120A2423ED071
:107560000131814203EBC105F6D100230DF1070083
:107570008DF80730C4F1200500F086FB01231C497B
:107580009DF80700A4F1200223FA05F503FA02F2A0
:107590002A43D1E9005603FA04F426EA020225EA56
:1075A0000404C1E9004200F095FB5AE700280CBF33
:1075B000F0210F2101EA02010CBF012210220A432F
:1075C00072554EE72024022143E715466B68002BD5
:1075D0003FF447AF20460121984742E71D466B68BC
:1075E000002BC2D0002120469847BEE7602900202A
:1075F000582900202C290020702900202DE9F04175
:10760000174F3B78E3B1DFF868800024D8F80050CA
:1076100005EBC40615F8340004F084F97178A1F183
:107620000101B1FA81F14909091AB1FA81F115F89C
:1076300034004909FFF7F6FE3B780134A342E5DC4C
:10764000084BD3E90023134301D1BDE8F081064B79
:107650000648196800224908BDE8F04100F0A6BAC2
:107660002C2900205829002030290020382900200A
:1076700070290020092A43D92DE9F04182B00D4636
:107680000646144604F00CF8002832D0214A22495C
:10769000224B16600D701022002121481C600DF055
:1076A00027F8204B002000216C1EC3E90001E4B242
:1076B00045B306EBC4044FF003081B4F02E0B4428D
:1076C00020D01C469DF80630A57820788DF80480DF
:1076D00023F007033A4601A98DF806308DF80550CE
:1076E00003F0E8FFA4F108030028E8D002B0BDE8E9
:1076F000F08103F089FF0028C8D002B0BDE8F08116
:1077000007207047094A0A48002100F041FA02B0F8
:10771000BDE8F081702900202C29002030290020AC
:107720006029002058290020AD730200FD75020079
:10773000704B030070B5084D2B785BB1074E0024E9
:107740003368012113F8340004F08CF82B780134ED
:10775000A342F5D8002070BD2C29002070290020FC
:1077600000B585B000230390194601AA44F2010038
:10777000CDE9013300F004F805B05DF804FB00BF6B
:1077800010B572B6FFF7CAFCFEF718FF0028FBD150
:10779000104B114C1149E41AE408240444F0010090
:1077A000FFF736F80E4B1B68DB0700D500BE44F030
:1077B00002000C49FFF72CF8BFF34F8F0A490B4B1F
:1077C000CA6802F4E0621343CB60BFF34F8F00BF7F
:1077D000FDE700BFD46F0300FC6F0300804B030084
:1077E000F0ED00E08C4B030000ED00E00400FA0532
:1077F000D0E90223D1E90201994208BF90422CBF8F
:1078000001200020704700BF2DE9F04F87B00746E8
:1078100000F08CFB40B1B74AD2E9003113F180731C
:1078200041F10001C2E900310021384600F09AFB25
:10783000B14C60B1236853B1B04B25681B7823B1BC
:107840001DB12B7F002B40F01C8100232360012100
:10785000384600F087FB002840F0F48005A9A848CE
:1078600001F0B4FF30B3A74DDFF89082A44E037847
:10787000012B00F0C680002B00F0CB80022B0FD133
:1078800028464FF0000903F06DFA30B180F81C90E3
:10789000284603F067FA0028F8D1012388F8003061
:1078A00005A9304601F0C2FF05A9304601F08EFF60
:1078B0000028DCD1DFF84C82934E3BE0404603F0D9
:1078C00051FAD0E902B105463046039100F05AFB67
:1078D000884B0399D3E9002312EB000943F1000A16
:1078E0008A4BD3E900239A4508BF914505D219F187
:1078F000807399464AF100039A46BBEB0903009353
:1079000061EB0A030193DDE90023012A73F1000111
:107910002ADBDFF8FCB15A456DD8AA684FF496030C
:107920000021304600F076FA00285ED00D281FD0E6
:1079300000232360404603F01BFA236800287BD015
:10794000002BBBD02368D0E90201D3E9022399427E
:1079500008BF90424CD223681B7F002BAED0216819
:10796000404603F0EBF9A9E70021304600F0EEFABB
:10797000624B1B78002BDBD02B7F002BD8D03046FE
:1079800000F000FB5B49614BD1E900ABD3E9002378
:107990001AEB000A4BF1000B9B4508BF924550467D
:1079A000594603D21AF180704BF10001D5E9022348
:1079B000994208BF90425FD32B6903B92B77D5E971
:1079C0000530984729690029B2D02B7F002BAFD012
:1079D000D5E9022312EB010A43F1000BC5E902AB22
:1079E0002946404603F0AAF9A2E72368EBB12560D7
:1079F00007B0BDE8F08F304600F0C4FA00EB0B0290
:107A00008CE741682368994213D0284603F0B4F903
:107A100046E743681A7F002A7FF442AF01221A77B3
:107A20004168284603F08AF93AE7384600F0C4F97D
:107A3000DDE70023236033E7002BD9D1384600F07F
:107A4000BFF9D5E73048314D00F09CFA294BD3E916
:107A50000089D5E9002318EB000A49F1000B9B458A
:107A600008BF92455046594603D21AF180704BF137
:107A70000001C5E90001F1E62946404603F05EF940
:107A800056E7214800F07EFA1A4B2049D3E900233B
:107A9000D1E9008912EB000A43F1000BCB4508BF86
:107AA000C2455046594603D21AF180704BF100018D
:107AB000D5E90223994208BF90422BD32B6903B921
:107AC0002B77D5E905309847296900293FF4BDAEE9
:107AD0002B7F002B3FF4B9AED5E9022312EB01084E
:107AE00043F10009C5E902892946064803F026F951
:107AF000ABE600BF78290020F8290020802900206B
:107B0000DC290020A04B03006C220020F02900207B
:107B1000FFFFB4002946024803F010F995E600BFC4
:107B2000A04B030010B5134B13491B68134882B0D8
:107B300058220193082301F0D1FD044610B12046DC
:107B400002B010BD0E4A0F4801A900F0DBF8044650
:107B50000028F4D101210B4800F0DEF90123194679
:107B6000094A084800F030F9084B012220461A70F3
:107B700002B010BD9C4B030084290020DC290020AA
:107B8000097802006C220020FFFF7F00802900207E
:107B90004AB1A1F101010368B1FA81F14909C3E9D0
:107BA0000412002070470720704700BF037F0BB10D
:107BB000002070472DE9F048826182B004461D48DC
:107BC0000D4600F0DFF91C4B1C49D3E90023D1E935
:107BD000006712EB000B43F1000CBC4508BFB34536
:107BE00003D21BF1807B4CF1000C1BEB05002369D9
:107BF0004CF10001C4E9020103B1256101A910485B
:107C000001F0A6FD50B100254460057001A90C48A3
:107C100001F0CCFD30B902B0BDE8F088042002B01C
:107C2000BDE8F088034800F0B1F9284602B0BDE88D
:107C3000F08800BF6C22002078290020F029002065
:107C4000DC29002030B5002583B00446057701A962
:107C50000B4801F07DFD78B101234460037001A958
:107C6000074801F0A3FD08B903B030BD054800F096
:107C70008DF9284603B030BD042003B030BD00BFED
:107C8000DC2900206C22002070B4EFF3108472B65F
:107C90000D4B9A68AAB90D490D4E01259D60D1F88A
:107CA000805035401D60C1F88060D1F884505D601F
:107CB0004FF0FF33C1F88430027004B962B670BC73
:107CC000704701230370F8E73838002000E100E036
:107CD000FC06FFBD094B9A687AB170B910B4EFF396
:107CE000108172B6064A1C6814605C685460986023
:107CF00001B962B65DF8044B704770473838002010
:107D000000E100E0F8B5244E4579244C244B254F82
:107D10009B1B04EBC506DB08367947F825201B04BE
:107D200096BB02680D88C2F8085590F9042089783E
:107D3000002A21DB02F1604202F561424901C9B229
:107D400082F8001390F90420002A07DB164D02F098
:107D50001F0601215209B14045F82210427913490A
:107D600044F8320004EBC20443F003000123237102
:107D7000FEF74EFD0020F8BD0D4D02F00F02490147
:107D80001544C9B22976DDE743F002000949FEF740
:107D90003FFD0820F8BD00BFD46F0300FC29002080
:107DA0000C700300042A002000E100E0EC4B03000B
:107DB000FCEC00E0C84B0300036801221A60704726
:107DC000036801225A607047F0B404684FF48035AC
:107DD0008D40C4F80853066801F15004C6F84853B2
:107DE000A4000668A4B20027375182B0365904684F
:107DF000019601F5A87122F07F42019E44F82120EE
:107E00000268C2F8445313B10368C3F8045302B0C4
:107E1000F0BC70472DE9F0430E464FF480370168FF
:107E2000B740C1F848730168C1F808730168044697
:107E300001EB8600D1F804C5D0F84015C0F840C564
:107E400006F15005AD002068ADB24FF0000940F8D2
:107E5000059085B0A1EB0C014059029021F07F41C3
:107E6000012922F07F48029A45D02268D2F80455B1
:107E7000C2F84473A8EB050222F07F42012A06F5FE
:107E8000A87627D0226842F826802068D0F80455CA
:107E9000A8EB0501C3F1FF13013903F57F4321F07E
:107EA0007F418B4212D341B1C0F844732368002054
:107EB000C3F8047305B0BDE8F08308F1010240F88F
:107EC00026202068D0F804359D42EDD00D2005B065
:107ED000BDE8F08320680F4B08F1010240F826202E
:107EE00043F001034FF4806098472068D0F80435D0
:107EF0009D42D9D0EAE7074A019342F001024FF4CC
:107F0000806090472268019B42F805905259039285
:107F1000039AAAE7C04B030002680223C2F8443365
:107F200011B10268C2F80433704700BF0368D3F888
:107F3000040100B97047002282B0C3F80421D3F8CD
:107F400004310193019B012002B070474FF480334C
:107F5000026803FA01F1C2F848130368C3F8081372
:107F6000704700BF5031890089B20368585800B982
:107F7000704700225A5082B05B580193019B012048
:107F800002B070470368D3F80405704790F90430D5
:107F9000002B09DB5A09403203F01F03012103487B
:107FA00001FA03F340F82230704700BF00E100E01F
:107FB000024A034B10681B68184700BFFC290020C9
:107FC000042A00202DE9F04102230B80846801344B
:107FD00030D000F58055083072B3334F9E464FF6CF
:107FE000FF764FF0010C4388DC1C00EB8404A542B3
:107FF00052D38488B44249D00488002C46D0846887
:10800000B4F1FF3F42D0D7F80080A04503D23C60D6
:10801000B1F800E04388734403331FFA83FEA1F8EC
:1080200000E04488033400EB8400854202D90468F0
:108030000134D8D1BDE8F0811B4C9E464FF6FF7647
:108040004388DA1C00EB8202954227D38288B24231
:108050000BD002884AB18268571C06D02768974225
:1080600003D22260B1F800E04388734403331FFA5F
:1080700083FEA1F800E04288033200EB82008542D3
:10808000D8D903680133DBD1BDE8F08182F800C0A4
:10809000B1F800E04388BEE7012313704FF480631A
:1080A0000B80BDE8F08100BF402A0020F0B4436897
:1080B0001BB1394AD468A34249D20023374F0B8001
:1080C0007A684FF0010C02F580544FF6FF760832C3
:1080D00094420ED8BCF1020FA1F800C007F11407BA
:1080E00057D07A6802F58054083294424FF0020C5F
:1080F000F0D913680133EDD05388033302EB8303C7
:108100009C42E7D39588B5420DD015885DB195683E
:10811000B5F1FF3F07D00368AB4211D0538803335A
:1081200002EB8302D4E79C42D4D91A6801321A4682
:10813000D0D05D88033503EB85039C42E2D2C9E7CA
:10814000174B42601B8903810120F0BC7047126904
:108150009342B2D813F00305AFD1114A04891289B2
:108160009442AAD104689A689442A6D10B48426806
:10817000934203D902F58052934207D38269934216
:1081800007D902F58052934203D201250D800120C8
:10819000DBE70020D9E700BF28230020482A002081
:1081A0002C2A00202DE9F04FA34E8BB005464FF648
:1081B000FF793468002C00F0BB802278531E052B19
:1081C00000F23782DFE803F0583B3B1E1E03002D10
:1081D00040F0B580DFF888C29CF80C209CF8003095
:1081E000002A00F0D280013B8CF80C50062B00F2E4
:1081F0002082DFE813F02D040E035F0139011E0217
:10820000FA020E02002D40F09A802379012B00F033
:108210005182002B00F0368205AF022B0595C7E98D
:1082200002553D6101D048F20E6506952378023B68
:10823000042B33D8DFE803F0644C702C6000B4F8F2
:1082400014A0A17D002D40F006824FEA8A087B4FE2
:1082500008EB0A0307EB83031D895B6803EB8505C5
:10826000062900F25684DFE811F0C501B401A1012E
:108270008E01690150013A01002D40F0E18123791E
:10828000032B77D8DFE813F0CB00B800AD008E00E9
:1082900004238DF81430E388ADF82030684C04F1E5
:1082A000100554F8043B384603B19847A542F8D16D
:1082B000644965480025356001F0B8FA012163483A
:1082C00001F078FB00287FF474AF0BB0BDE8F08FAD
:1082D00002238DF814302389ADF82030A388ADF83F
:1082E0002230E3680793A37DA3F10603B3FA83F377
:1082F0005B098DF82430D1E705238DF81430CDE7E4
:1083000001238DF814302389ADF82030A388ADF80F
:108310002230E3680793C1E703238DF81430E38824
:10832000ADF820302389ADF82230E3680793B5E734
:108330004449454801F04AFA044630603DE705AF3C
:108340000023BB600593C7E903334FF406456CE790
:1083500000239A001A4407EB82030020596800901A
:10836000082307F822003A4A3A4801F079FF00282A
:10837000ABD03468384A05AF002353600593C7E992
:1083800002333B6148F20D654FE7072B00F24B8348
:10839000DFE813F0C0024903490300032E033F0145
:1083A0003F0143032D4D2A4A29682A48234F4FF0A5
:1083B000000884F804800823CDF8008001F050FF05
:1083C000274B2C685B88A98803EB830307EB8302A8
:1083D00007F8238053682B60022354601181AB801F
:1083E000C5E71E4A1B4811680023237102249480AC
:1083F000012201F0D3FFBAE7104F3B78022BA7D040
:108400003B7D022B00F07E83134A05AF01231370DE
:10841000002353600593C7E902333B6105E70F4B27
:10842000104A19680B480123237100230093082385
:1084300001F016FF9BE700BF442A0020482A0020D5
:10844000142A00203C2A0020FC2A00200C2B0020AB
:10845000044C030028230020242A0020102B002095
:108460002C2A00200C4C0300BCF80230B74F03EB61
:10847000830307EB8307FB68002B40F03D82042257
:108480008CF800207968B248012201F087FF054688
:10849000002D3FF41AAF346805AF41F61D5200239A
:1084A0009542BB600593C7E9033308BF1D463FF4FF
:1084B000BCAE0FE3DCF80420A6485388848801682A
:1084C000A34803339BB29B0001EB8401002400947A
:1084D00003248CF8004001F0C3FE0546D8E7E2888B
:1084E000204641F61D5508EB0A0107EB8101D31C1C
:1084F0000A8913440B81E2880446D04407EB8807BD
:108500007B89033B9B1A7B81C6E7934B934A1D886B
:1085100051688F48924A00234FF0060C84F816C029
:108520000093042301F09CFE18BB05EB850507EBC7
:10853000850701233B740BB0BDE8F08F874BA26920
:1085400085491A604FF0000B1846C3F804B0FFF7D6
:10855000ADFD002800F0C1820223A3750423294643
:10856000CDF800B0E2187A4801F07AFE00283FF416
:10857000ACAEA37D3068E288022B00F2BB820446D9
:1085800048F20D65B9E7E388226971484FF0010CA4
:1085900005F10C01002584F816C09B00009501F040
:1085A0005FFE0028E5D10BB0BDE8F08F2369684875
:1085B000002B14BF032301230022A37505F108013A
:1085C0000092042304F10C0201F04AFE0028D0D1ED
:1085D0007BE6032A0CBF052306230022A375291D71
:1085E0000092042304F10802594801F039FE0028E2
:1085F000BFD16AE602230022A37504230092294614
:10860000E218534801F02CFE0028B2D10BB0BDE8AF
:10861000F08F504B534A19684D4800230093CCF813
:10862000043007238CF80030082301F019FE0546BA
:108630002EE705AF0023BB600593C7E90333F2E5DE
:1086400005AF494A002353600593C7E902333B61F4
:108650004FF40645E9E50229E28869D83B4F4FEA25
:108660008A0808EB0A0107EB810105AF4B89033B40
:108670009B1A00224B81BA600592C7E903224FF48E
:108680000645D2E502232371CDE9065505AFE3681F
:10869000059338460DF11201FFF708FD002840F060
:1086A000DA8148F209650023C7E90033C7E90233DC
:1086B0003B61BAE52C4B1B78002B00F0FF81DFF803
:1086C000ACE0BEF80480B8F1010F10D81F4F08EBE2
:1086D000880207EB82021378B3B108F1010399B263
:1086E00001299846AEF8043002F11402F3D905AF1F
:1086F000082200211D480BF0FBFF0023BB600593FF
:10870000C7E90333346890E55368DEF8001003F5D9
:10871000805003F1080C002900F0CE814B88033310
:1087200001EB8301884223D80023CEF80030D4E740
:108730004FEA8A08054F08EB0A0107EB8101D31CB9
:108740000A8913440B81E2888BE700BF482A002086
:1087500028230020102B00201C2B0020082A00209A
:10876000004C03000C4C0300242A0020202B002086
:108770000B680133D8D04B88033301EB8303984255
:10878000D2D30392B1F804A0CA451ED0B1F800B00C
:10879000BBF1000F19D08A68013216D0E388039A22
:1087A000CEF800105345B6D100230093B64AB7481F
:1087B000042301F055FD002840F09F8108EB880854
:1087C00007EB880701233B747FE598420BD91968B2
:1087D0000131194607D0B3F802A00AF1030A03EBEE
:1087E0008A039842CED2039A9EE7BCF80220A84F93
:1087F0009300134407EB8307062000237968A54AFA
:1088000000938CF800000823A04801F029FD0546DC
:108810003EE6BCF802E09E4FDCF804204FEA8E04EE
:1088200004EB0E0307EB8303596801F58050002A1F
:1088300040F0C88001F10802904240F2CA801368FB
:10884000013300F0C6805388033302EB8303984260
:10885000C0F0BF8095884D4500F020811588002D1F
:1088600000F01C819568013500F01881CCF80420D7
:10887000894C5388A5882168844803339BB29B00A8
:1088800001EB850122E6012005468400231807EB51
:108890008303DCF804205968ACF8025001F5805ECF
:1088A000002A00F033815388033302EB83027245C0
:1088B0001CD21368013319D05388033302EB8303AE
:1088C0009E4513D395884D4504D0158815B19568FC
:1088D0000135CBD19E4509D91A6801321A4605D017
:1088E0005D88033503EB85039E45EBD2231807EB28
:1088F0008307FB68002B72D0674B6448196802221B
:108900009A8005228CF800200023012201F046FD08
:108910000546BDE55E4FBCF808103A7D3B78B2FADB
:1089200082F252090131B3FA83F35B098CF80B2010
:10893000ACF80810002201218CF80A30ACF80220B3
:108940008CF80C208CF800104BB1514FF8680022C5
:108950008CF80A2018B93A7C002A40F0D5809CF89F
:108960000B304BB14A4F3B6A00228CF80B201BB9ED
:1089700097F82430002B86D105AF0023BB608CF81C
:108980000030ACF80230CCF804300593C7E903336B
:1089900034684AE4BCF802E03F4D3D4FDCF8042067
:1089A000AB8850884FEA8E0404EB0E0107EB81017F
:1089B0000333496803444FF0020801F58050AB804F
:1089C0008CF800805388033302EB830290423FF619
:1089D00036AF744407EB8407FB68002B8CD104206E
:1089E0008CF800000122294801F0D8FC05464FE52B
:1089F000BCF80220264F28489300991807EB810104
:108A000005684C68B0F804E04D600460002502245D
:108A1000A1F808E00D748480EBE601238CF80030A7
:108A20009CF80A3090E7013B062B3FF602AE01A20C
:108A300052F823F0518A020013880200B584020024
:108A40006984020033860200EB870200138602006D
:108A50009CF80A3078E706990B4A8B88E3800B88EC
:108A600023810A4800950423BDF8124001F0F8FB69
:108A700000283BD1064B04EB840403EB8404012360
:108A800023740BB0BDE8F08F004C030028230020B6
:108A9000482A0020044C0300102B0020834298D267
:108AA0001A6801321A4694D05D88033503EB8503BA
:108AB00083427FF6CFAE8CE7614633E605AF2946A9
:108AC000082216480BF014FE0595C7E902553D61D2
:108AD00048F201653468FFF7A8BB05AF0590C7E908
:108AE0000200386148F20965FFF79FBB346848F21D
:108AF0000D65D8E548F20D65F5E4346848F20D657A
:108B000005AFD0E5012324E40546BEE601F10802E5
:108B1000CDE6E288204648F20E65E4E4202B0020F2
:108B20004068FFF73FBB00BF2DE9F04782B0002A45
:108B300064D0B2F800A0B2F802900E46054601A932
:108B40004848984600F004FE1C22044600210BF021
:108B5000CFFD002C3ED0002784F80080A4F814A09C
:108B6000A7757368236101213F4800F017FFE0609B
:108B7000338823817388A380B8F1030FA4F806908B
:108B800018D0678101A9374800F010FE3DB10023DD
:108B90006B60E168354A29601289AB722A81012134
:108BA000334800F0EFFE044670B10024204602B0C6
:108BB000BDE8F0870423A3752B68A36101A9678131
:108BC000284800F0F3FDE2E7FFF7ECFA204602B098
:108BD000BDE8F087274B0AEB8A0A03EB8A0AC9F53E
:108BE0007F49BAF80A3048F2076409F1FD0999444F
:108BF0002046AAF80A9002B0BDE8F087B1F80890C4
:108C000009F1030292B240F2FE34A2421AD8194C82
:108C100027783FB96689258935441544ADB2B5F545
:108C2000806F12D9257D3DB9E68BA58B354415445F
:108C3000ADB2B5F5806F10D948F20664204602B097
:108C4000BDE8F08748F20864B0E7BA46BD003D448D
:108C500004EB8504324462816FE74FF0010A574606
:108C6000F4E700BFFC2A0020402A00202C2A002024
:108C70000C2B0020482A002038B5094B1A68042A1A
:108C80000AD01D68074C02460121184644F82520E9
:108C900000F084FE002038BD48F20B6038BD00BFF4
:108CA000182B0020142A00202DE9F04F994D89B08F
:108CB0002A780023CDE90333CDE90533079372B158
:108CC000954C04F1100554F8043B03A803B19847F0
:108CD000A542F8D10024204609B0BDE8F08F281D38
:108CE00002F0FF0900F072FE0028F3D140F6F8739D
:108CF0001B685C1C46D04FF0805211695269DFF846
:108D000044828649C8F810304046A3F540530022FB
:108D1000C8F80C3001F076FA04460028DBD11C2399
:108D20008C227F497F48DFF820A200F0D7FC26463E
:108D30004FF0030B2746D8F80C3016EB030CF25813
:108D400075D0794B9A4228D1DCF8043077498B42B0
:108D500000F0928001318B4269D1B9F1000F40F0EF
:108D6000A280734B7349C3F800C060460022019390
:108D7000FFF728F9019B9B88022B0CBF04230823D3
:108D80001C431BE06C4B4FF080521B681169526909
:108D9000581C08BF02FB01F3B1E701324CD007EBCE
:108DA00087030AEB830203210BF1FF3B01370AF82B
:108DB00023101FFA8BFBBFB2C2F804C006F5805621
:108DC000B6F5405FB7D1BBF1010F40F2A080E4B22D
:108DD000022C00F09C80062C0ED14F4C0122002367
:108DE0002A7004F110066B6054F8043B03A803B129
:108DF0009847A642F8D16DE7002C00F0888002A9C0
:108E0000484800F0A5FC1C22054600210BF070FC30
:108E1000002D79D00123013C2B700A2C5CD8DFE8AF
:108E200004F06D5B6D5B705B705B6A596A00531C8C
:108E300002D03D4B9A42B2D10CF104030CF58051A3
:108E40001A68013203F10403A9D18B42F8D1384BDF
:108E50001A68002A37D007EB87030AEB8301022246
:108E60003648C1F804C00A810AF82320791C4780DB
:108E70008FB244F00104A1E707EB870399000022B9
:108E80000AF823200AEB010301F1100208315244D1
:108E90005144C3F804C060460137FFF793F844F02B
:108EA0000204BFB28AE7254A214B578007EB870EA1
:108EB0000AEB8E02022118680AF82E100137506062
:108EC0001181BFB24EE70222C3F800C09A804FF072
:108ED0000109CEE702232B7102A9124800F066FCBB
:108EE0000121174800F04EFD044600287FF4F2AE41
:108EF000FFF758F9EFE603232B71EDE700232B7101
:108F0000EAE701232B71E7E748F20764E3E648F25A
:108F10000A64E0E6242A0020142A0020204E0300E0
:108F2000702A0020FC2A0020DEC0ADDEFE011EF10A
:108F3000102B0020142B0020141000102C2A0020CD
:108F40000C2B002028230020482A002010B309B34E
:108F500070B582B00C460DF106010546FFF7A6F884
:108F600018B948F2096002B070BDBDF806000B4B9D
:108F70006E6800EB800003EB800001210C3000F0F4
:108F80000DFD26606B6801220C3300206360AA721D
:108F900002B070BD48F20460704700BF482A00204C
:108FA00010B310B582B00DF106010446FFF77EF84C
:108FB000B0B1BDF806300E4A03EB830302EB830326
:108FC000DA684AB1A27A3AB1DA680021013A084671
:108FD000DA60A17202B010BD48F2056002B010BDA7
:108FE00048F2096002B010BD48F20460704700BF4B
:108FF000482A00202DE9F047514B1B7882B073B30B
:10900000002944D00A884FF6FF739A4221D04B883A
:10901000FBB14D6815F0030533D1B1F8089009F1A3
:1090200003039BB240F2FE32934233D8454A147890
:109030003CB95689148934441C44A4B2B4F5806FF9
:109040002BD9147D8CB148F20665284602B0BDE8E4
:10905000F08748F20365284602B0BDE8F08748F281
:109060000165284602B0BDE8F087D68B948B344466
:109070001C44A4B2B4F5806FE5D84FF00108C44693
:109080000DE048F20265284602B0BDE8F08748F2DC
:109090000465DAE748F20865D7E7A846AC464FEA28
:1090A0008C07674402EB870733440C46824601A9CC
:1090B00025487B8100F04CFB1C22064600210BF06A
:1090C00017FB002E30D002230027A6F8148033703F
:1090D000B7756368336101211C4800F05FFCF060E4
:1090E000238833816388B38001A97781A6F806902D
:1090F000154800F05BFBBAF1000F0AD0CAF8047003
:10910000F268134BCAF800201B898AF80A70AAF883
:10911000083001210F4800F035FC0446002894D1A6
:10912000FFF740F8254690E77B89C9F57F4909F1AB
:10913000FD099944A7F80A9048F2076585E700BF42
:10914000242A0020482A0020FC2A0020402A00204F
:109150002C2A00200C2B0020A0B1114A1278CAB191
:1091600081B110B40C884FF6FF7294420DD04A883A
:109170005AB14A6812F003020FD103235DF8044B81
:10918000FFF7D2BC48F20460704748F203605DF814
:10919000044B704748F20160704748F20260F6E7FE
:1091A000242A002070B51D4B1B7882B00BB34FF6FC
:1091B000FF73984227D001A90446194800F0C8FA65
:1091C0001C22054600210BF093FABDB105230126B0
:1091D000EC8001A92B702E71114800F0E7FA31469E
:1091E000104800F0CFFB044690B10024204602B0A6
:1091F00070BD48F20164204602B070BD48F20764B9
:10920000204602B070BD48F20364204602B070BD33
:10921000FEF7C8FF204602B070BD00BF242A002020
:10922000FC2A00200C2B002010B5194B1B7882B0B3
:10923000F3B101A9174800F08BFA1C220446002163
:109240000BF056FAF4B10623237001A9114800F07F
:10925000ADFA114B1A780AB101221A7301210F4895
:1092600000F090FB044640B10024204602B010BD3F
:1092700048F20164204602B010BDFEF793FF20467D
:1092800002B010BD48F20764204602B010BD00BF16
:10929000242A0020FC2A00202C2A00200C2B00204D
:1092A0002DE9F0473A4C2478002C69D0002A6BD085
:1092B000002B69D0B3F804C0BCF1010F16D8354EAD
:1092C0000CEB8C048A4606EB84064FF6FF7E4FF0CB
:1092D000000834786CB10CF1010C1FFA8CF4022CEC
:1092E0009C8006F114064FF0010CF2D148F209609F
:1092F00032E01C68756805F58057002C3DD0658804
:10930000033504EB8504BC4202D3C3F80080E2E7D6
:1093100025680135F9D06588033504EB8505BD4224
:10932000F3D8B4F80490F14518D0B4F80090B9F12E
:10933000000F13D0A168013110D01C60A5888542B0
:10934000D8D125885545D5D1A16811601968124B2F
:1093500051601B8913810020BDE8F087AF42D4D94A
:109360002C6801342C46D0D0B5F8029009F10309DD
:1093700005EB8905AF42D4D2C7E705F10804C2E77F
:1093800048F20160BDE8F08748F20460BDE8F0876C
:10939000242A0020482A00202C2A0020374B1B7842
:1093A000002B64D0002965D0002A63D02DE9F0435A
:1093B0009788012F14D8324D07EB8703814605EBC0
:1093C00083054FF6FF7C4FF0000E2B785BB1013721
:1093D000BBB2022B938005F114054FF00107F4D1C5
:1093E00048F209602FE013686C6804F58056002B82
:1093F0003AD05C88033403EB8403B34202D3C2F84F
:1094000000E0E4E71C680134F9D05C88033403EB26
:109410008404B442F3D8B3F80480E04515D0B3F81F
:109420000080B8F1000F10D0986801300DD01360A3
:109430001C884C45D8D19B680B601268114B4A6060
:109440001B890B810020BDE8F083A642D7D9236891
:1094500001332346D3D0B4F8028008F1030804EBAB
:109460008804A642D7D2CAE704F10803C5E748F248
:109470000160704748F20460704700BF242A002052
:10948000482A00202C2A0020374B1B78002B64D060
:10949000002965D0002A63D02DE9F0439788012F79
:1094A00014D8324D07EB8703814605EB83054FF651
:1094B000FF7C4FF0000E2B785BB10137BBB2022B63
:1094C000938005F114054FF00107F4D148F20960CB
:1094D0002FE013686C6804F58056002B3AD05C8846
:1094E000033403EB8403B34202D3C2F800E0E4E7A1
:1094F0001C680134F9D05C88033403EB8404B44263
:10950000F3D8B3F80480E04515D0B3F80080B8F183
:10951000000F10D0986801300DD013609C884C4526
:10952000D8D19B680B601268114B4A601B890B8174
:109530000020BDE8F083A642D7D923680133234633
:10954000D3D0B4F8028008F1030804EB8804A642E3
:10955000D7D2CAE704F10803C5E748F201607047B3
:1095600048F20460704700BF242A0020482A0020E7
:109570002C2A002020B119B103680B60002070472D
:1095800048F20460704700BF2DE9F84F504B1B783C
:10959000002B00F095800446002800F095801222F0
:1095A00000210BF0A5F8DFF82CE16088218965899E
:1095B000DFF8248103237246238000264FF6FF7CC8
:1095C0004FF0010A814613895089576803449BB2C2
:1095D000002F43D03868404540D1786800F16E6074
:1095E00000F5FF300230012838D8B00030440EEBCF
:1095F00080001D44C768A089B944A4F80290578927
:109600006581C3F580639BB29842394438BFA3811A
:1096100021815768BB68013307F1080B07F58050BB
:1096200017D07F8903370BEB8707B84245D35B46DA
:109630009F88674516D01F88A7B19F68013711D052
:10964000A7880137A7805F88033703EB8703984219
:109650001AD814327EB30020BDE8F88F2088013874
:109660002080C2E7B4F806B0E7890BF1010BA4F83B
:1096700006B0B3F802B003375F44E7815F88033771
:1096800003EB87039842E4D91F680137E1D05F8874
:10969000033703EB8707B842CAD2C31AC3F38F0359
:1096A000E788E08984F810A001370344E780E3816C
:1096B0001432002ECFD1012685E740F2FE33EFE7CA
:1096C00048F20160BDE8F88F48F20460BDE8F88F09
:1096D000242A0020482A0020DEC0ADDE99B110B453
:1096E000B2FBF3F403FB1424A4B244B9C0E90014A0
:1096F00084608281C38120465DF8044B7047092055
:109700005DF8044B70470E20704700BF82B050E8F0
:10971000022FC188B2EB324F4FF0000317BF92B255
:1097200041EA014142EA014104E04268B2EB324FB2
:1097300008BF012340E80212002AE8D18DF8073063
:109740009DF80730002B0CBF1120002002B070479D
:1097500030B482B050E8013F9DB2C4892544848969
:10976000A54228BF2D1B0489A54202BFBFF32F8F3E
:10977000002207E0C5EA030540E80154002CE9D1C6
:109780004FF001028DF803200193019B9DF8032007
:109790000B602AB10B880068184402B030BC7047D7
:1097A00002F0FF03184602B030BC70470A884B88AD
:1097B0009A4201D00020704750E8012FC2EA0242CD
:1097C00040E80123002BF7D10120704730B482B06C
:1097D00050E8023F1FFAA3F5C488A54202BFBFF3B9
:1097E0002F8F00220DE0C48925448489A54228BF1B
:1097F0002D1BC3EA054540E80254002CE8D14FF088
:1098000001028DF803200193019B9DF803200B605A
:109810002AB14B880068184402B030BC704702F08F
:10982000FF03184602B030BC704700BF0A884B885F
:109830009A4201D00020704750E8022FC2EA22422B
:1098400040E80223002BF7D10120704701F01F02EE
:109850004B09012100EB8300914000F07BB800BF71
:1098600010B5012301F01F04490900EB810003FA40
:1098700004F100F063F8E04000F0010010BD00BF0B
:1098800001F01F0201234909934000EB8100D943F5
:1098900000F06CB84B0901F01F0150F82300C840DC
:1098A00000F00100704700BF2DE9F04F01F1FF3BD0
:1098B00083B04FEA5B1388460546019300274FF0BB
:1098C000010A55F8274005EB8709E44394FAA4F40C
:1098D000ECB1B4FA84F47E013444A04517D904F005
:1098E0001F0360090AFA03F105EB80009B4600F0B4
:1098F00025F820FA0BF0C30711D5D9F80030DB4367
:1099000093FAA3F3B3FA83F43444002BE5D1019A1C
:10991000BA4207F1010301D01F46D2E74446204670
:1099200003B0BDE8F08F00BF50E8002F0B4640E8C1
:10993000003C9CF0000FF7D11046704750E8002F14
:1099400042EA010340E8003C9CF0000FF6D11046CB
:10995000704700BF50E8003F43EA010240E8002C96
:109960009CF0000FF6D11046704700BF50E8003F52
:1099700003EA010240E8002C9CF0000FF6D11046EB
:10998000704700BF50E8002F02EB010340E8003CA5
:109990009CF0000FF6D11046704700BF50E8003F22
:1099A00003EB010240E8002C9CF0000FF6D11046BA
:1099B000704700BF50E8003FA3EB010240E8002CD5
:1099C0009CF0000FF6D11046704700BF012350E80D
:1099D00000CF4CEA030240E8002191F0000FF6D1DD
:1099E00060467047012350E8002F42EA030C40E82C
:1099F00000C191F0000FF6D160467047002350E897
:109A000000CF0CEA030240E8002191F0000FF6D1EC
:109A100060467047B8B130B4D0E90112521A0468F8
:109A2000D2B2531E2160DBB242B101680A685C1EEB
:109A3000551C0D601370E3B2FF2BF6D103680020B4
:109A4000187130BC70470E20704700BFF0B583B06E
:109A5000044600250DF107008DF80750FEF714F9B4
:109A6000D4E900311A688A4210D9511E1960216860
:109A7000A3680F6812F8015C0A79268AE068DB1B8C
:109A8000DBB29A4206FB050538BF0B719DF8070053
:109A9000FEF720F9284603B0F0BD00BF30B50546FB
:109AA00083B000230DF107000C468DF80730FEF758
:109AB000EBF82A681368591C1160E9682A8A641A4D
:109AC000B4FBF2F41C709DF80700FEF703F903B035
:109AD00030BD00BF826842B110B5044643690168D9
:109AE000006998470023A36010BD70470EB400B50D
:109AF00082B0039921B104AB01AA019300F08EF862
:109B000002B05DF804EB03B0704700BF2DE9F84FD9
:109B100088469045164605461F46DDE90AB177D3CB
:109B200043464FF00109B3FBF6F39E4209F10109E8
:109B3000F9D9B94538BFB94611F0010AAA6802D16E
:109B4000BBF1000F45D1012402E0013F06FB04F404
:109B5000012FFAD8B8FBF4F18E42F7D92E4F07E067
:109B6000B442B4FBF6F315D3B8FBF3F1AA681C4674
:109B7000531CAB602B68785C9854D5E901329A424B
:109B800004FB1188ECD32846FFF7A4FFB4FBF6F3DF
:109B9000B442E9D2BAF1000F15D0BBF1000F12D0D8
:109BA000CB4510D92024AB682A68591CA960D4542D
:109BB000D5E901329A420BF1FF3B06D2BBF1000F0F
:109BC00001D0CB45EFD1BDE8F88F2846FFF782FFE3
:109BD000F4E78B0717D42024CB45B4D92B68511C4C
:109BE000A9609C54D5E901329A420BF1FF3B05D2A2
:109BF000BBF1000FA7D0CB45F0D1A4E72846FFF773
:109C000069FFAA68F4E7002F0CBF30242024E3E7A3
:109C10004FF001098DE700BF144C0300002900F04C
:109C200043822DE9F04F054683B093460C460B78EE
:109C300001E0237893B1013483B1252B15D0AA68B4
:109C40002968501CA8608B54D5E901329A42F0D3A0
:109C50002846FFF73FFF2378002BECD12B7B002B0E
:109C600040F0198103B0BDE8F08F2146002711F8BC
:109C7000012B2D2A00F0E580302A00F0E6802B2A07
:109C800000F0D6802A2A00F0E480A2F13006F3B278
:109C9000092B03D904E2A3F130060146084606EB7E
:109CA000860310F8012BA2F13004092C02EB4303C8
:109CB000F1D92E2A00F0D9804FF0000802F0FB0302
:109CC000682B01F1010405D114F8012B02F0FB030C
:109CD000682BF9D0253A532AABD801A353F822F0C8
:109CE000BF9E0200339C0200339C0200339C0200A2
:109CF000339C0200339C0200339C0200339C020020
:109D0000339C0200339C0200339C0200339C02000F
:109D1000339C0200339C0200339C0200339C0200FF
:109D2000339C0200339C0200339C0200339C0200EF
:109D3000339C0200339C0200339C0200339C0200DF
:109D4000339C0200339C0200339C0200339C0200CF
:109D5000339C0200339C0200339C0200339C0200BF
:109D6000339C0200339C0200339C0200339C0200AF
:109D7000339C0200339C0200339C0200339C02009F
:109D8000339C0200339C0200339C0200339C02008F
:109D9000339C0200339C0200339C0200339C02007F
:109DA000339C0200339C0200339C0200D99E0200C7
:109DB000339C0200339C0200339C0200339C02005F
:109DC000339C0200339C0200339C0200339C02004F
:109DD000339C0200339C0200F59E0200179F020094
:109DE000339C0200339C0200339C0200339C02002F
:109DF000179F0200339C0200339C0200339C020038
:109E0000339C0200339C0200339C0200A59F020099
:109E1000339C0200339C02001FA00200339C02000E
:109E2000A39E0200339C0200339C0200D99E0200D4
:109E300047F004070C46214611F8012B2D2A7FF428
:109E40001BAF47F001070C46F5E747F002070C4649
:109E5000F1E7DBF800301A1DCBF8002062781E68AD
:109E60002E2A04F102007FF427AF4A78A2F13003D2
:109E7000092B01464FF000083FF620AF08EB880899
:109E800002EB480811F8012FA2F13003092BA8F1C9
:109E90003008F3D912E7284603B0BDE8F04FFFF7CA
:109EA00019BEDBF800301A1DCBF8002019680197A5
:109EB000434600960A222846FFF728FEB9E6AB681B
:109EC0002A68591CA9604FF02501D154D5E9013207
:109ED0009A42FFF4AEAEBBE6DBF800301A1DCBF8B9
:109EE0000020196801974346009610222846FFF784
:109EF0000DFE9EE6DBF80020131DCBF80030AB68AA
:109F000029681278581CA860CA54D5E901329A42CF
:109F1000FFF48FAE9CE6DBF800301A1DCBF8002072
:109F2000D3F8009089EAE972A2EBE972092A4FF0AE
:109F3000010A01DC09E01A46B04B632AA3FB0213B5
:109F40000AF1010A4FEAD303F5DCC24538BFC24625
:109F500007F00203002E40F0A880002B40F015818E
:109F60000026B9F1000FC0F2FD807B070CD5AA686E
:109F70002B68501C2B21A8609954D5E901329A42D4
:109F800002D32846FFF7A6FD07F00303022B00F0DB
:109F90000881CDE90067434649460A222846FFF773
:109FA000B5FD46E6DBF80020131DCBF80030AB68AA
:109FB00029681768581C3022A860CA54D5E90123C3
:109FC000934280F010812A68581C7821A860D154EF
:109FD000D5E90123934280F001810F2F03D93A463E
:109FE00012090F2AFCD84FF0805606E00F2E4FEAD8
:109FF00016137FF61EAE1E46AB682968B7FBF6F255
:10A00000581CA8607E48805CC854D5E9013199424B
:10A0100006FB1277EAD32846FFF75CFDE6E7DBF89C
:10A0200000301A1DCBF8002017F00107D3F800808C
:10A030005ED098F80020002A00F0DE80AB6847462A
:10A04000C8F101092968581CA860CA54D5E9012340
:10A05000934209EB07081AD217F8012F002AF1D111
:10A0600046457FF6E6AD202702E046453FF4E1ADE8
:10A07000AB682A68591CA960D754D5E901329A42C5
:10A0800006F1FF36F1D32846FFF724FDEDE7284619
:10A09000FFF720FD17F8012F002AE1D0AB68D1E7C8
:10A0A00008460026214604E67047B9F1000F01DB9F
:10A0B000790700D5013E002B62D1FA073FF551AF79
:10A0C000002E3FF44DAF56457FF64BAF2021AA68D6
:10A0D0002B68501CA8609954D5E901329A4206F1C8
:10A0E000FF3659D2002E3FF43BAF5645EFD138E74B
:10A0F000B8F1000F03D040460AF002FB0746BE420B
:10A1000015D9A6B14FF0200901E0BE420FD0AB68CF
:10A110002A68591CA96002F80390D5E901329A42D5
:10A1200006F1FF36F1D32846FFF7D4FCEDE798F8A7
:10A130000020002A3FF47DADAB682968581CA86058
:10A14000CA54D5E90123934204D218F8012F002AFA
:10A15000F3D16EE52846FFF7BDFC18F8012F002A61
:10A16000EAD166E5AA682B68501C2D21A860995495
:10A17000D5E901329A42C9F10009FFF405AF00E7C1
:10A18000B8F1000F3FF4EDAE97E7B8F1000F31D012
:10A19000F8073FF5E6AEE3E62846FFF79BFC2021F3
:10A1A000A0E7B8F1000F7FF4F4AE0EB356457FF68A
:10A1B000F0AE3021AA682B68501CA8609954D5E9EC
:10A1C00001329A4206F1FF3603D28EB15645F1D1E3
:10A1D000DFE62846FFF77EFC3021F6E72846FFF74A
:10A1E00079FCAB68F9E62846FFF774FCAB68EAE651
:10A1F0000026CEE64646B4E6904631E7CDCCCCCC40
:10A20000144C030010B582B038B1B9B101600B68CD
:10A21000114602B0BDE8104018470B480B4C0C4BE0
:10A220000C4A0D49001BC0080E24000440F0010038
:10A230000094FCF76BFD0E2002B010BD0248034CE9
:10A24000034B064AEDE700BF34700300D46F0300F0
:10A25000244C0300D84C0300E04C03000C4D0300D9
:10A260002DE9F04182B0002858D0002A68D0D0F8FB
:10A2700000C0BCF1000F68D01C4673B34768D7F824
:10A280000480B3FBF8F708FB1737002F37D18F078F
:10A290003AD112F0030F3CD1C768B94211D233480A
:10A2A000334C344B344A3549001BC0081024000499
:10A2B00040F001000094FCF729FD204602B0BDE803
:10A2C000F0814D1E06692C44B442E8D8DCF80C40FD
:10A2D000A44602B0BDE8F04160472448244C254B19
:10A2E000274A2649001BC0080924000440F0010049
:10A2F0000094FCF70BFD204602B0BDE8F0811B483E
:10A300001B4C1C4B1F4AECE71848194C194B1E4AB2
:10A31000C9E71648164C174B1C4AC4E71348144C9F
:10A32000144B1B4A1549001BC0080E24000440F0C2
:10A3300001000094FCF7EAFC204602B0BDE8F08181
:10A340000A480B4C0B4B134AECE7094C0748094BE6
:10A35000114A0A49001BC0080824000440F001000B
:10A360000094FCF7D3FC2046A8E700BF347003003C
:10A37000D46F0300384C0300DC4D0300E04C0300B5
:10A380001C4D0300744D0300A04D0300B84D0300A5
:10A39000D84C03006C4D0300604D0300F0B583B052
:10A3A000002843D0D0F800C0BCF1000F4ED03AB323
:10A3B0004768D7F800E00EF1FF370F4231D1C76888
:10A3C000B94210D229482A4C2A4B2B4A2B49001B50
:10A3D000C0081024000440F001000094FCF796FC33
:10A3E000204603B0F0BD4D1E04690EFB0255A54288
:10A3F000E8D8DCF81040A44603B0BDE8F040604760
:10A400001B4C1A481B4B1E4A1C49001BC008092440
:10A41000000440F001000094FCF778FC204603B0F3
:10A42000F0BD1248124C134B164ACFE7104C0F48A0
:10A43000104B154A1149001BC0080E24000440F0BF
:10A4400001000094FCF762FC2046CAE7084C07486C
:10A45000084B0E4A0949001BC0080824000440F0BC
:10A4600001000094FCF752FC2046BAE73470030068
:10A47000D46F03004C4C0300884C0300E04C0300F5
:10A480001C4D0300604C0300D84C0300604D0300DA
:10A4900029DF704728DF7047084670470020704763
:10A4A000024B187A003018BF01207047C42B0020DF
:10A4B000034B187A0122B0FA80F05A7440097047B1
:10A4C000C42B002008B510461A460AF003F90020F4
:10A4D00008BD00BF08B51422002104480AF008F99D
:10A4E0000348FFF713F9002008BD00BFC42B00206C
:10A4F000B42B002010B50A4C0A4B43602046FFF7EE
:10A5000065FA08B1002010BD09F01AFF1C23207461
:10A510008C2205490548FFF7E1F8002010BD00BF77
:10A52000C42B0020144E0300282B0020B42B002045
:10A5300030B55D4D2B7A87B0002B39D05B4B1C6852
:10A5400002232B722379002B3DD0012B24D02268CB
:10A550009368C3B1002368460093C0E90233032126
:10A5600003610191A36805932379002B57D0012B38
:10A5700007D102238DF80030E3681B03029363695F
:10A58000049393689847002349494A482B726B60AB
:10A59000FFF74CF907B030BDD4E903031844FFF7C7
:10A5A00079FF20B31128D2D101232B7207B030BD1F
:10A5B0003F494048FFF70AF93C4B04461860002821
:10A5C000BED16860E6E7D4E90520121AB2F5805FD3
:10A5D00028BF4FF48052D4E903139208012A38BFF0
:10A5E000012201441844FFF753FF0028DAD12B7CE5
:10A5F000002BCFD12B7A002BCCD0022B0AD1E860D4
:10A600002379DBB1012B05D1D4E904320133934224
:10A6100023611FD06B7C73B9FFF78AFFBAE7012370
:10A620008DF8003023690293E36803936369049310
:10A6300093689847A7E709F073FEABE7D4E90523D1
:10A64000D11AB1F5805F94BF5B1803F580539A422D
:10A65000A361DFD100232B7222689168A9B16846FB
:10A660000093C0E90133C0E90333A368059323795C
:10A6700083B1012B07D102238DF80030E3681B035F
:10A680000293636904939368984709490948FFF75F
:10A69000CDF8BFE701238DF8003023690293E3680A
:10A6A000039363690493EEE7C42B0020DC2B0020A6
:10A6B000D82B0020B42B002000F0FD03012B00D08C
:10A6C0007047A0F10100044BB0FA80F0400900226D
:10A6D00018745A74FFF72CBFC42B00202DE9F047E3
:10A6E00084B082468946184803A990461F46FFF762
:10A6F0002FF820B3044600211C220D46134E09F00A
:10A70000F7FF0C9BC4F800A0A360C4E9038967614C
:10A7100003A925710C48FFF749F8301DFFF756F9DA
:10A7200018B1284604B0BDE8F087737C002BF9D13E
:10A730000190FFF7FDFE019804B0BDE8F08704200A
:10A7400004B0BDE8F08700BFB42B0020C42B00206C
:10A750002DE9F04385B081460D46174803A91746F9
:10A760009846FEF7F5FF18B304461C22002109F0B5
:10A77000BFFF124EC4F8009001232D0BC4E90285DF
:10A78000676103A923710C48FFF710F8301DFFF72C
:10A790001DF918B1002005B0BDE8F083737C002BD3
:10A7A000F9D10190FFF7C4FE019805B0BDE8F08330
:10A7B000042005B0BDE8F083B42B0020C42B00209A
:10A7C000831E012B3FD810B5334C237A86B0002B63
:10A7D00037D0022B31D103283AD0304B00221B68EE
:10A7E000E2601A79002A40D0012A26D1D3E9042157
:10A7F00001328A421A6120D10020207219688A68C9
:10A80000BAB10022CDE90322029200929A68019027
:10A8100005921A79002A35D0012A07D1DA685B69D6
:10A8200004931303022202938DF800208B6868467C
:10A8300098471B491B48FEF7F9FF637C23B9FFF7D4
:10A8400077FE06B010BD704709F06AFD06B010BD76
:10A85000E3680133082B01D8E360EEE70F4B0022D9
:10A860001B68E26022720D20C8E7D3E90512881A3E
:10A87000B0F5805F94BF121802F5805291429A6140
:10A88000DBD1B9E7012218698DF80020DA685B692D
:10A890000493CDE90202C9E7C42B0020DC2B002081
:10A8A000D82B0020B42B0020FFF7B4B82DE9F041DD
:10A8B000058ACF1C043D2F440646B7FBF5F7FFF78A
:10A8C000C5F8002834D0FFB24FF48073013F04462E
:10A8D000C580066083802CD08046002509E063791E
:10A8E000AF4203F101036371C8F8000006608046BF
:10A8F0001FD03046FFF7AAF801350028EFD194F8B1
:10A9000005802768B8F1010316D03D460130834227
:10A910002D68FBD1B8F1000F0AD0002601E03C46BB
:10A920003F68214601362846FFF7B8F8B045F6D80B
:10A9300000242046BDE8F08121463846FFF7AEF8F6
:10A94000F6E700BFF8B5477906687A1E014611D0D0
:10A950003446002301339A422468FBD14FB10025CD
:10A9600001E03146366801352046FFF797F8AF42DF
:10A97000F7D8F8BD3046BDE8F840FFF78FB800BF04
:10A9800004300121FFF70AB82DE9F0410121044606
:10A990000430FFF70FF8C0B208B1BDE8F08194F8B9
:10A9A00005802568B8F1010314D02E46013083429A
:10A9B0003668FBD1B8F1000FEFD0002701E02C463C
:10A9C0002D68214601373046FFF768F8B845F6D8BC
:10A9D000BDE8F08121462846BDE8F041FFF75EB8AA
:10A9E0002DE9F8430546C6884079144606FB00F277
:10A9F000043A04EB030C1F1D624538BFD41ABE4253
:10AA00008846B7FBF6F106FB117002D801392D68B4
:10AA1000FCD1371AA74228BF27469CB14FF0000946
:10AA20000430E41B28443A4608EB090109F052FEC1
:10AA3000A642B9442D6837464FF0000028BF27468C
:10AA4000002CEDD1BDE8F8832DE9F8430546C68812
:10AA50004079144606FB00F2043A04EB030C1F1D78
:10AA6000624538BFD41ABE428846B7FBF6F006FBF3
:10AA7000107102D801382D68FCD1771AA74228BF7F
:10AA800027469CB14FF0000904312944E41B3A46A3
:10AA900008EB090009F01EFEA642B9442D683746AE
:10AAA0004FF0000128BF2746002CEDD1BDE8F88308
:10AAB00041DF7047064A074B10B5002414701C6034
:10AAC000BFF35F8F0449054800F022F9204610BD0E
:10AAD000E82B0020EC2B0020404E0300E02B002050
:10AAE00000B583B000230DF107008DF80730FDF7A6
:10AAF000CBF8F1EE103A23F09F03E1EE103ABFF3EA
:10AB00005F8F0B4B4022C3F884219DF80700FDF7AF
:10AB1000E1F809F015FC28B920BF40BF20BF03B001
:10AB20005DF804FBFFF7C4FF03B05DF804FB00BF52
:10AB300000E100E0F0B5044683B000250DF1070008
:10AB40000E468DF80750FDF79FF82368A268196834
:10AB50005868904238BF451CA94213D05F685D68B1
:10AB6000AA420CD800225A60E2686068531E072B84
:10AB700042D8DFE803F03B3741334141411801350A
:10AB80005D60F1E7217C00293CD15F685868824212
:10AB90002FD859602268A16813688B4234BF0133F3
:10ABA00000231360E0E7D6E9002300EBC700C0E90B
:10ABB00000232268136851688B4282BFA06801306D
:10ABC0000918CB1A91689DF80700994238BF936025
:10ABD000FDF780F80024204603B0F0BD336840F84C
:10ABE0002730E6E7338820F81730E2E73378C3559B
:10ABF000DFE701305860CDE7314607FB020009F07E
:10AC000069FDD6E79DF80700FDF764F804242046A7
:10AC100003B0F0BD70B5044682B000230DF107000B
:10AC20000E4615468DF80730FDF72EF82368196893
:10AC30005A68914212D018682DB91A68A1688A42E0
:10AC400038BF551C1D60E2686168531E072B3BD856
:10AC5000DFE803F01A243A2F3A3A3A0C9DF807003D
:10AC6000FDF738F80524204602B070BD01EBC001A5
:10AC7000D1E900239DF80700C6E90023FDF72AF873
:10AC80000024204602B070BD0B5C33709DF80700B5
:10AC9000FDF720F80024204602B070BD31F81030D6
:10ACA00033809DF80700FDF715F80024204602B018
:10ACB00070BD51F8203033609DF80700FDF70AF8A9
:10ACC0000024204602B070BD00FB0211304609F09E
:10ACD00001FD9DF80700FCF7FDFF0024204602B0AF
:10ACE00070BD00BF036818685B68C01AB0FA80F0D6
:10ACF000400970478268002393608268136182680C
:10AD000053618268D36082685360826813607047C1
:10AD100001600B6843604A68934204BF00234360AC
:10AD2000704700BF436843B1026891680B444360B9
:10AD30005268934204BF00234360704770B5446873
:10AD4000064620680D4618B908E02468206828B136
:10AD5000B368294698470028F7D120682860256005
:10AD600070BD00BF4368186808B102681A60704778
:10AD700043681868704700BF4068036873B1994220
:10AD800003D107E0814204D0034618680028F9D1B6
:10AD9000704718460B6803600120704718467047DB
:10ADA00030B41F49A1F594728B1ADB1003EBD373F7
:10ADB0005B10DD0052F83330984202EB050420D2DC
:10ADC000A24218D2ED1005EBD5756D1002EBC5014E
:10ADD00052F83530984205D310E052F8333098429B
:10ADE0000FD221468B1ADB1003EBD3735B108A4220
:10ADF00002EBC304F1D30B4830BC704722460C462B
:10AE00001146984204D904F108028A42CCD3F2E7F1
:10AE10006068044B30BC002808BF1846704700BF6C
:10AE2000A04F0300644E03000A7B10B4D1E9004335
:10AE3000002A0ABF234600220122027103605DF846
:10AE4000044B704710B4037904688A6883B14B6877
:10AE5000191B914206D80022036002715DF8044B71
:10AE600018467047A31803605DF8044B18467047F6
:10AE70000B68E11A914205D9A31A03605DF8044BEF
:10AE8000184670470122036002715DF8044B1846B2
:10AE9000704700BF30B4AC4B1B68591C04BFAB4BB0
:10AEA0001B78062B05D1AA4BAA4A1B68C3F30423BF
:10AEB0001360A64B1B78062B00F0E780A24B1B68A3
:10AEC0005A1C04BFA14B1B78062B05D1A24BA34AE9
:10AED0001B68C3F3423313609C4B1B78062B00F0B6
:10AEE000C780994B1B685D1C04BF984B1B78062BD1
:10AEF00008D14FF080430022C3F80C21C3F8102181
:10AF0000C3F83825914B1B78062B00F09B808E4BA5
:10AF10001A68541C1FD0924B062A1B6823D0914AF2
:10AF2000D2F8883043F47003C2F88830BFF34F8FF3
:10AF3000BFF36F8F4FF01023D3F80022002AC0F226
:10AF4000D280D3F80432002BC0F2CD80864B874AE2
:10AF50001A6030BC70477D49854B09781B6806290B
:10AF6000DDD1C3F30313033B012B48D94FF08052CB
:10AF7000804BD2F80414C3F82015D2F80814C3F893
:10AF80002415D2F80C14C3F82815D2F81014C3F8FD
:10AF90002C15D2F81414C3F83015D2F81814C3F8CD
:10AFA0003415D2F81C14C3F84015D2F82014C3F895
:10AFB0004415D2F82414C3F84815D2F82814C3F85D
:10AFC0004C15D2F82C14C3F85015D2F83014C3F82D
:10AFD0005415D2F83414C3F86015D2F83814C3F8F5
:10AFE0006415D2F83C14C3F86815D2F840145648DA
:10AFF000C3F86C15D2F844140268C3F87015501CDD
:10B000006CD0062A8BD15C4B4F4A1B685B49126897
:10B0100003F04F030B60511C42D0062A7FF47FAF30
:10B020004FF08043D3F80034DA0745D44C4B1B680B
:10B03000033B022B7FF673AF514A136843F48063DE
:10B0400013606CE74A4B1B68C3F30313032B7FF4B5
:10B050005EAF4C4D4C482B604C4C4D494D4A05233E
:10B060000360012500203F232560086013604EE740
:10B070003F4B1B68C3F30313032B7FF432AF464AE5
:10B08000D36823F08073D3602BE7394B1B68C3F37D
:10B090000313032B7FF412AF404B414A1A600DE7B4
:10B0A0002A4B1B78062B7FF43AAF4FF08043D3F83E
:10B0B0000034DB077FF533AF234B1B684FF0804232
:10B0C0006FF00101062BC2F800147FF428AF244B67
:10B0D0001B68033B022B7FF622AFADE71B4B1B78AF
:10B0E000062B90D01BE72F4A0123C2F80435D2F873
:10B0F0000034002BFBD04FF010231521294AC3F850
:10B100000012D2F80034002BFBD04FF01023152191
:10B11000244AC3F80412D2F80034002BFBD00023D9
:10B120002049C2F80435D1F80034002BFBD0BFF31E
:10B130004F8F0C491C4BCA6802F4E0621343CB608A
:10B14000BFF34F8F00BFFDE730010010E00F00F0AC
:10B150002403001040350140440200103C0500402B
:10B160003401001000ED00E0742200200090D003B4
:10B17000E80F00F000C0004058020010E40E00404C
:10B180003C170040A0050040105600408856004083
:10B190001856004014560040F0ED00E074C007401F
:10B1A0000DF0ADBA00E001400400FA05054A4FF089
:10B1B000A043105CD3F8043523FA00F0C04300F03C
:10B1C0000100704790530300044B195C4FF0A042FC
:10B1D00001238B40C2F80C35704700BF9053030029
:10B1E000044B195C4FF0A04201238B40C2F8083594
:10B1F000704700BF905303004FF0A04310B44FF4CA
:10B2000080204FF400344FF400214FF48012C3F833
:10B210000845C3F80805C3F80815C3F808255DF804
:10B22000044B70474FF0A04310B44FF480204FF40C
:10B2300000344FF400214FF48012C3F80C45C3F8DA
:10B240000C05C3F80C15C3F80C255DF8044B7047CA
:10B25000074B4FF0A041185CD1F804350122824021
:10B2600022EA03001340C1F80805C1F80C35704705
:10B2700090530300054A4FF0A043105CD3F81035FB
:10B2800023FA00F0C04300F0010070478C53030024
:10B290000D2809D00E2809D00F2809D010280CBF7E
:10B2A00003204FF0FF3070470020704701207047A7
:10B2B00002207047014B185C704700BF8C5303009D
:10B2C000C20730B41AD54FF0A0430322C3F8442775
:10B2D0004FF40035C3F848274FF48024C3F84C27B7
:10B2E0004FF40021C3F850274FF48012C3F80855DB
:10B2F000C3F80845C3F80815C3F8082583070AD51D
:10B300004FF0A0430C22C3F83427C3F83827C3F802
:10B310003C27C3F8402730BC704700BF10B568B960
:10B320000E4CA368012262703BB1D3E900230020D8
:10B33000A2609847A368002BF7D110BD0128FCD16B
:10B34000064C2369A070002BF7D0D3E9002301201D
:10B35000226198472369002BF7D110BDF02B002004
:10B3600070B910B5074CA368012262703BB1D3E9F4
:10B3700000230020A2609847A368002BF7D110BDDE
:10B38000704700BFF02B002030B5012883B026D0D5
:10B39000D8B1032817D1294C00F0D6F800230DF1BD
:10B3A00007008DF80730FCF76FFCE368013BE360B2
:10B3B000E36823B9224BD3F80054002D37D09DF811
:10B3C0000700FCF787FC03B030BD1E4B0122C3F819
:10B3D0008020BFF34F8FBFF36F8F03B030BD174C8A
:10B3E00000230DF107008DF80730FCF74DFC2378A2
:10B3F00053B1E3689DF8070001330122E360A270B6
:10B40000FCF768FC03B030BD0F486360A3602361A4
:10B41000E36000F08DF808F093FF60B10123084A63
:10B420002370D2F80024002AE3D0A370E1E700F0F3
:10B430009DF8A570C3E700F087F8EFE7F02B002038
:10B440000000014000E100E01DB3020030B585B00E
:10B45000047845688DF80040D0E90240064A074B61
:10B46000039053F8213001958DF8084052F82110CF
:10B470006846984705B030BD042C0020082C0020F9
:10B4800030B585B0047845688DF80040D0E90240B9
:10B49000064A074B039053F8213001958DF8084078
:10B4A00052F821106846984705B030BD042C0020A2
:10B4B000082C0020F0B5194B0678194D0C6991F84D
:10B4C0001DE045F826408446164803F806E040F89B
:10B4D00026200C4617460FCC89B06D460FC594E860
:10B4E0000F0085E80F000496BEF1000F0AD0002F70
:10B4F0000D4A69460CF1040008BF3A4600F0A4FF6B
:10B5000009B0F0BD002F094A69460CF10C0008BFD4
:10B510003A4600F049FD09B0F0BD00BF44380020B4
:10B52000042C0020082C00204DB4020081B402003D
:10B53000044A137923B9012110609180184670479D
:10B54000852070470C2C0020074B1A68D20704D4C2
:10B55000C02283F8002301221A604FF080430122A9
:10B56000C3F81825704700BF00E100E010B40B4B92
:10B570000B494FF0804200200224C2F8084383B0F8
:10B5800018601B680193012301980B60D2F81834EE
:10B59000DB03FBD403B05DF8044B704704010040AB
:10B5A0000C00004010B5154B1A6882B062B1002142
:10B5B000134A19601B68507900934FF080410123B2
:10B5C000009CC1F80833A8B10E4B1A6882B1002262
:10B5D0001A601B6801934FF080420221084B0198CA
:10B5E000C2F808131B68012002B0BDE810401847DC
:10B5F00002B010BD116853718847E5E700010040B3
:10B600000C2C00200401004030B5204C94F8583038
:10B6100083B0002B37D14FF0FF3121FA03F2D2076C
:10B6200048BFE21803F1010348BF82F83010202B15
:10B63000F3D14FF0FF330422002115482365C4E9FC
:10B640000033C4E90233C4E90433C4E90633C4E96E
:10B650000833C4E90A3309F04BF80E4BC02283F8D3
:10B66000062340221A600C4B0C4A002018601B680D
:10B670000193019D01214FF0004384F85810C2F856
:10B68000043303B030BD082003B030BD142C0020BB
:10B69000682C002000E100E07C6100400060004078
:10B6A000034B93F85800003018BF0120704700BFCB
:10B6B000142C0020F0B5694B1C1894F93050002D63
:10B6C00063DA8E78C6F340069646002E57D01D6882
:10B6D000013500F0B6800124082553F824700137A5
:10B6E00056D004F1010C53F82C7001374FD0A71C31
:10B6F000AF4242D253F82720013200F0A08004F17B
:10B70000030CAC4539D253F82C7001373FD004F10B
:10B71000040CAC4531D253F82C70013737D004F10A
:10B72000050CAC4529D253F82C7001372FD004F109
:10B73000060CAC4521D253F82C70013727D004F108
:10B74000070CAC4519D253F82C7001371FD004F107
:10B75000080CAC4511D253F82C70013717D004F106
:10B76000090CAC4509D253F82C7001370FD00A34BC
:10B77000AC4202D2DC6A01345FD00420F0BD1D6A05
:10B78000013564D009240C25A7E70820F0BD6446E4
:10B790001F1865B243F824E087F8305016B91C44EE
:10B7A00084F848008A78540714D4D6073BD44C78E0
:10B7B0004FF0A04600F5E072A40046F82240284E63
:10B7C000C40800F0070C375D012202FA0CF23A437C
:10B7D00032558A78097812F002021AD0AB0003F1D0
:10B7E000804303F5C0430202D3F8100520F447302C
:10B7F00020F44070C3F810050904D3F8100501F4D3
:10B80000403102F4F8520A430243C3F810250020E5
:10B81000F0BD083D2B44104693F8502042EA8111B8
:10B8200083F85010F0BD820002F1A042D2F8004728
:10B8300024F00204C2F80047C1E70B24A8E73C4605
:10B84000A6E70025C3F800E084F83050AAE70826F0
:10B8500084F830601A6235463446A0E7142C002084
:10B86000682C002070B42D4C251883B095F9303029
:10B87000072B1CDD234493F848309B09032B40D051
:10B88000012B14BF4FF440314FF40031800000F120
:10B89000A040D0F8002722F44032C0F80027D0F8AA
:10B8A00000370B43C0F8003703B070BC7047DAB202
:10B8B000072AF9D8980000F1804000F5C04003F154
:10B8C00040029200D0F8106592B202F1804202F577
:10B8D000C04246F00106C0F81065002010601268F2
:10B8E0000192019A0029DFD095F9302054F82220E6
:10B8F000002AD9D001220A4902FA03F3C1F804331D
:10B90000D2E74FF0A043D3F81035C34013F0010F36
:10B910000CBF4FF400314FF44031B7E7142C002036
:10B92000006000404FF0A043D3F8103523FA00F038
:10B9300000F00100704700BFF0B585B00023C54A94
:10B9400001931168012900F0E1811E46C24B1A687B
:10B95000012A00F0CD81C14B1A68012A00F0BA819A
:10B96000BF4B1A68012A00F0A781BE4B1A68012A52
:10B9700000F09481BC4B1A68012A00F08181BB4B16
:10B980001A68012A00F05881B94B1A68012A07D0B9
:10B99000B84B1A68012A00F0C581F6B905B0F0BDB0
:10B9A000B54AD2F804231206F2D500221A601968AB
:10B9B0000291603319680298012946F080060CD183
:10B9C0001A601B6803934FF0A043039AD3F8202515
:10B9D0000192C3F8202546F00046A84F0024012517
:10B9E000A30003F180432E4203F5C0434FEA45050F
:10B9F0000BD0D3F8100557F82420D3F81015C0F356
:10BA00000420C1F3014102B190470134082CE7D171
:10BA1000002EC3DA994C01254FF0A04694F950103E
:10BA20004F1C3CD0C9B204AB21F0C00003EBD002E4
:10BA300001F0070312F80C2C05FA03F31A422ED07A
:10BA4000830003F1A04305FA00FCD3F80027D3F8E4
:10BA5000007727F44037C3F80077C2F30142D3F8E8
:10BA60000077022A0CBF4FF4403E4FF4003E47EAF5
:10BA70000E0E2718C3F800E7C6F820C597F9303036
:10BA800054F823305BB18909032900F06D81022A43
:10BA900000F06781032A02D1022900F0658194F940
:10BAA0005110481C3CD0C9B204AB21F0C00003EBDC
:10BAB000D00201F0070312F80C2C05FA03F31A4226
:10BAC0002ED0830003F1A04305FA00FCD3F8002731
:10BAD000D3F8007727F44037C3F80077C2F3014268
