:020000022000DC
:1060000000000120B5620200DD620200DF620200D2
:10601000E1620200E3620200E562020000000000AB
:10602000000000000000000000000000E762020025
:10603000E962020000000000EB620200ED62020073
:10604000A9940200EF620200759C0200EF62020058
:10605000EF620200EF6202003D980200EF62020070
:10606000EF620200EF620200EF620200EF620200E4
:10607000EF620200EF620200EF620200EF620200D4
:10608000EF620200C57E0200EF620200EF620200D2
:10609000EF620200EF62020049CF0200EF620200ED
:1060A000EF620200EF620200EF620200EF620200A4
:1060B000EF620200EF62020000000000000000003A
:1060C000EF620200EF620200EF620200EF62020084
:1060D000EF620200EF620200EF62020000000000C7
:1060E00000000000000000000000000000000000B0
:1060F00000000000000000000000000000000000A0
:10610000000000000000000000000000000000008F
:10611000000000000000000000000000000000007F
:10612000000000000000000000000000000000006F
:10613000000000000000000000000000000000005F
:10614000000000000000000000000000000000004F
:10615000000000000000000000000000000000003F
:10616000000000000000000000000000000000002F
:10617000000000000000000000000000000000001F
:10618000000000000000000000000000000000000F
:1061900000000000000000000000000000000000FF
:1061A00000000000000000000000000000000000EF
:1061B00000000000000000000000000000000000DF
:1061C00000000000000000000000000000000000CF
:1061D00000000000000000000000000000000000BF
:1061E00000000000000000000000000000000000AF
:1061F000000000000000000000000000000000009F
:1062000010B5054C237833B9044B13B10448AFF3F0
:1062100000800123237010BD982B00200000000097
:1062200048F4020008B5034B1BB103490348AFF320
:10623000008008BD000000009C2B002048F40200F4
:10624000154B002B08BF134B9D46A3F5803A002148
:106250008B460F461348144A121A07F05FF80F4B8B
:10626000002B00D098470E4B002B00D09847002001
:10627000002104000D000D48002802D00C48AFF3A7
:10628000008007F019F82000290004F099FF06F0BB
:10629000FFFF00BF00000800000001200000000018
:1062A00000000000982B0020CC3E002000000000E1
:1062B000000000000649074A074B9B1A03DD043B18
:1062C000C858D050FBDC02F067FDFFF7B9FF0000B3
:1062D00058F50200D82A0020982B0020FEE7FEE7A0
:1062E000FEE7FEE7FEE7FEE7FEE7FEE7FEE7FEE786
:1062F000704700BF00B583B0044B0093044A4023AD
:1063000000F036F803B05DF804FB00BF156302002F
:10631000B82B002002B32DE9F843114B114E8846EB
:10632000144643F0010903270025224608EB050126
:10633000002005F087F803461D444FF47A40E41A24
:1063400023B9337833B1C847013F06D001233370F6
:10635000002CEAD1BDE8F88370473770BDE8F883B8
:1063600000E60200B42B0020704700BF05F028B9FA
:10637000F0B595B0002415460F4608461E4602F0BB
:10638000C1FB384623460895082205A91A9D09969F
:106390000D950A948DF82C400C9402F017FC9DF892
:1063A00014308DF81140DDE9061003F00302012AD4
:1063B000CDE9020127D0022A04D0384602F0A6FB1C
:1063C00015B0F0BDBDF81650C3F3C2038DF8103000
:1063D000AD090826082D2C4628BF0824334622463E
:1063E0000EA9384602F0F2FB2D1B214608AB02AA8B
:1063F0000EA8264400F038FD002DEBD1384602F0FF
:1064000085FB15B0F0BDBDF81460059DC6F383167D
:10641000C3F3C204B2000EA9384608238DF8104019
:10642000C5F3952502F0D2FB08AB324628460EA9EB
:10643000009302AB00F0A2FC384602F067FB15B0F7
:10644000F0BD00BF08B5FFF791FF0421034800F03D
:1064500007FC034B01225A7108BD00BF40F5020042
:10646000D82A0020064B074810B500221A7002F007
:10647000FBFA044610B9044802F0DCFB204610BDCC
:10648000C82C0020ACF4020024E60200A9B1124B93
:1064900012495B1ADB081AD030B4114C22888242B0
:1064A00017D0002203E034F8225085420AD001328E
:1064B0009342F8D1002030BC7047084A02EBC0027A
:1064C0001068704701EBC202106830BC7047184674
:1064D00070470A46F8E700BF40F50200C0F402002A
:1064E000982B0020094B013903EBC00003290BD87E
:1064F000DFE801F002080604022070474079704787
:10650000007970470420704700207047C0F40200F3
:106510002DE9F0438D4CD4E901239A4285B060D037
:106520000023C4F81834BFF34F8FA568EAB2D31C18
:1065300004EB830114F82330580718D566680B78EC
:1065400003F00303012B42D0022B03D14B88023509
:1065500005EB9315EAB2D4F81804D31C04EB8301BD
:1065600028B9AE4239D914F823305B07E7D404EBDD
:1065700082026B1CD2680192DBB204EB830302F04F
:106580000302DB680293022A05F102062DD0012ADC
:1065900000F08F80D4F810543DB12B6828469B68DA
:1065A0009847EB681D68002DF7D16948694B6A4927
:1065B000C01AC008000440F0020000F0D3F8D4E98B
:1065C0000130C01A18BF012005B0BDE8F0830B8868
:1065D0000235C3F383131D44BCE7A66005B0BDE8D4
:1065E000F083002005B0BDE8F083BDF806305B48BD
:1065F0004FEA9319B9F1500FC84628BF4FF0500821
:1066000068F38F1308F10801ADF8063002F02EFA96
:1066100007460028BED0F543EDB202F073FA01350B
:10662000002301A90822384602F09CFAAD00F3B21B
:106630000333A84504EB830178D9A8EB05080823A8
:106640002A4638465FFA88F802F08CFA424605F18D
:1066500008034349384602F085FA09F1030806EBBE
:106660009808D4F81834002B6AD1D4F8105465B1C6
:10667000EB685A7928463946002A5DD02B681B689A
:106680009847EB681D68002DF2D1384602F03EFABB
:1066900000230DF103008DF8033001F07FFAD4F8E8
:1066A00018340BB9C4F808809DF8030001F09CFA77
:1066B00085E7BDF804202948C2F38313062B28BFC1
:1066C000062363F3891202339900ADF8042002F027
:1066D000CDF9074600283FF45DAF02F013FA00231E
:1066E000082201A9384602F03DFABDF8043013F43F
:1066F000707F29D06FF00109A9EB05090825F1B2D7
:1067000003312B46042204EB8101384602F02AFAB9
:10671000BDF8043006F1010809EB0802C3F3831346
:106720009342464605F10405E9D89AE74246082314
:10673000384602F017FA90E71D68002D98D1A4E7BB
:10674000384602F0E3F93AE7B0468AE7C82C002061
:10675000E8F40200C0F4020030E60200ACF40200EB
:10676000D42C00202DE9F04F634C87B0002307465E
:106770000DF10B008DF80B30884601F00FFAD4E9CB
:10678000015303F580735B1B012B00F2B28004F20E
:106790001C4604F5836A04F214490121304601F0D5
:1067A00071FC504601F086FC484601F083FCA3686A
:1067B000D8B2C21C04EB820114F8222012F00402A9
:1067C00000F0948003F1020C91F800E00EF0030E4B
:1067D000BEF1010FE34600F08480BEF1020F00F12C
:1067E000030E6FD004EB8E01002AEDD104EB800084
:1067F0000133C2680392DBB204EB830302F00302AD
:10680000012AD96857D0022A53D1BDF80E309B090E
:106810000333090C0BEB930B4846019101F056FC36
:106820000199002843D03046C4F808B001F02AFC92
:10683000D4E9013202F58072D21A012AADD9DAB256
:106840000332023305219DF80B0044F822106360E7
:1068500001F0CAF90021294801F0F2FB80F3100091
:106860006B1CDBB204EB83020004EBB2033340EA9F
:106870001740D06014F8232067F3C50204F82320E2
:1068800054F8231068F39F2121F4717222F003025F
:1068900042F0010244F8231024F8232023781BB18E
:1068A000FFF736FE0028FBD107B0BDE8F08F304679
:1068B000BCE70021B0E7BDF80C30C3F38313090C2B
:1068C0009B44A9E74B880CEB9313D8B2C11C03F18E
:1068D000020C14F82120E34604EB810102F00402CB
:1068E00082E70B88C3F383136344EEE703F1020BE3
:1068F0007CE72B46A3E700BFC82C0020E430002033
:106900002DE9F04F664C87B0002307460DF10B00D0
:106910008DF80B308946019201F040F9D4E901531A
:1069200003F580735B1B022B00F2B88004F21C4657
:1069300004F5836A04F214480121304601F0A2FBF9
:10694000504601F0B7FB404601F0B4FBA368D8B253
:10695000C21C04EB820114F8222012F0040200F0A1
:106960009A8003F1020C91F800E00EF0030EBEF1E4
:10697000010FE34600F08A80BEF1020F00F1030E22
:1069800075D004EB8E01002AEDD104EB80000133B9
:10699000C2680392DBB204EB830302F00302012A14
:1069A000D9685DD0022A59D1BDF80E309B09033356
:1069B000090C0BEB930B4046009101F087FB00990B
:1069C000002849D03046C4F808B001F05BFBD4E998
:1069D000013202F58072D21A022AADD9DAB203323C
:1069E000033345219DF80B0044F82210636001F049
:1069F000FBF8AB1CDBB204EB8303019A2948DA6095
:106A0000002101F01DFB80F310006B1CDBB204EBD6
:106A100083030004EDB2033540EA1740D86014F850
:106A2000253067F3C50304F8253054F8252069F3B1
:106A30009F2222F4717323F0030343F0410344F8CF
:106A4000252024F8253023781BB1FFF761FD0028AD
:106A5000FBD107B0BDE8F08F3046B6E70021AAE7CA
:106A6000BDF80C30C3F38313090C9B44A3E74B8898
:106A70000CEB9313D8B2C11C03F1020C14F82120C3
:106A8000E34604EB810102F004027CE70B88C3F3C8
:106A900083136344EEE703F1020B76E72B469DE791
:106AA000C82C0020E43000202DE9F04F6A4C89B05A
:106AB000002507460DF11300CDE902238DF8135090
:106AC000894601F06BF8D4E9015303F580735B1B31
:106AD000032B00F2BE8004F21C4604F5836A04F224
:106AE00014480121304601F0CDFA504601F0E2FA97
:106AF000404601F0DFFAA368D8B2C21C04EB820161
:106B000014F8222012F0040200F0A08003F1020C1D
:106B100091F800E00EF0030EBEF1010FE34600F025
:106B20009080BEF1020F00F1030E7BD004EB8E01CA
:106B3000002AEDD104EB80000133C2680592DBB27C
:106B400004EB830302F00302012AD96863D0022A0E
:106B50005FD1BDF816309B090333090C0BEB930B87
:106B60004046019101F0B2FA019900284FD0304619
:106B7000C4F808B001F086FAD4E9013202F5807257
:106B8000D21A032AADD9DAB20332043385219DF833
:106B9000130044F82210636001F026F8AA1CEB1CD5
:106BA000D2B204EB8202DBB204EB8303029ED66016
:106BB0000021039A2948DA6001F042FA80F31000BC
:106BC0006B1CDBB204EB83030004EDB2033540EA37
:106BD0001740D86014F8253067F3C50304F8253052
:106BE00054F8252069F39F2222F4717323F00303E4
:106BF00043F0810344F8252024F8253023781BB185
:106C0000FFF786FC0028FBD109B0BDE8F08F3046C5
:106C1000B0E70021A4E7BDF81430C3F38313090CD7
:106C20009B449DE74B880CEB9313D8B2C11C03F136
:106C3000020C14F82120E34604EB810102F0040267
:106C400076E70B88C3F383136344EEE703F1020B8B
:106C500070E72B4697E700BFC82C0020E4300020E7
:106C6000F0B41B4ED6F810340746002B2DD0DC684C
:106C7000257900218D42084617D0234603E0DB68C2
:106C80001A798A4211D01B68002BF8D1FB68187161
:106C9000D6F810349BB1DA68FB6812681A60D6F82F
:106CA0001034DB681F60F0BC7047092901F1010353
:106CB00001D01946DEE74FF0FF30F0BC7047C6F850
:106CC0001074FA681360F0BC70471846DEE700BF26
:106CD000C82C002038B5084BD3F8104401251D708E
:106CE0004CB1E3685D71236820465B689847E368B0
:106CF0001C68002CF5D138BDC82C002030B5C388E5
:106D000083B004460D4613BB217A05291DD0637A52
:106D1000A08873B9124B53F821400021FFF7B6FB4E
:106D2000104903462246284603B0BDE8304001F032
:106D300045BAFFF7D7FB0C4B0C4953F820202846E7
:106D400001F03CFA217AA088E4E703B030BD084A9C
:106D500000920849084A284601F030FAD4E700BFFB
:106D6000BCE60200B0E6020048E60200ACE6020023
:106D7000A4E602008CE6020084E602002DE9F0435E
:106D800085B01D460C9C002381460E46174694F89C
:106D90000C80237321462846FFF7B0FF062F09D841
:106DA000DFE807F0042E343B444F1F0049462046DD
:106DB00001F004FA2B7A052B05D06B7A5BB92749D1
:106DC000204601F0FBF9204601F0ECF984F80C8034
:106DD00005B0BDE8F083224A2249204601F0EEF9D1
:106DE000EDE7D6E90413F2680393B3680291CDE9A5
:106DF00000324946D6E90023204601F0DFF9D9E701
:106E000032684946204601F0D9F9D3E74946D6E928
:106E10000023204601F0D2F9CCE7B368009349463D
:106E2000D6E90023204601F0C9F9C3E7D6E90232CA
:106E3000019200934946D6E90023204601F0BEF9AD
:106E4000B8E7D6E90321B3680291CDE9003249469B
:106E5000D6E90023204601F0B1F9ABE780E6020055
:106E6000A4E60200ACE60200082900D970472DE92B
:106E7000F04F1D4683B000241B7B2C7307460E4643
:106E80001046294691460193DFF8C8A0DFF8C88074
:106E9000FFF734FF05E03A5D013401F08FF9082C6B
:106EA00009D0A64241462846F5D85146013401F0A2
:106EB00085F9082CF5D12249DFF8A0A0214CDFF894
:106EC000A080284601F07AF94FF0000B0EE012F88E
:106ED000081011F0970F08BF2E22214628460BF10B
:106EE000010B01F06BF9BBF1080F10D05E4505D91D
:106EF00017F80B207E2AEAD92E22EEE751462846C3
:106F00000BF1010B01F05AF9BBF1080FEED199F822
:106F10000830052B02D099F809305BB90A49284698
:106F200001F04CF9284601F03DF9019B2B7303B0A9
:106F3000BDE8F08F054A0649284601F03FF9EDE724
:106F400078E602007CE6020080E60200A4E6020089
:106F5000ACE6020074E602006CE60200B8E602004D
:106F6000ADF2020038B5184B197851B3174B1A68B7
:106F7000C4B21078844222D0002301338B4220D047
:106F800012F83300844202EBC305F6D102F04CFC48
:106F90006B78A3F10103B3FA83F35B09834200D05A
:106FA00038BD0B4BD3E900231343F9D1094B0A48F1
:106FB000196800224908BDE8384000F011BC1546A8
:106FC000E4E700231B78FFDE80310020C031002081
:106FD000A83100208431002088310020F0B5450818
:106FE000704E725D044610F0010014BF130902F0E8
:106FF0000F0383B0042B10D8DFE803F01F034B6DA1
:107000001100002940F0BA800C4600280EBFF02382
:107010000F2321461A401143715503B0F0BD0029DA
:1070200067D0002814BF0F21F02101EA020114BF2C
:10703000302203220A437255EFE70029EDD00028E1
:107040000CBFF0210F2101EA02010CBF0122102226
:107050000A4300230DF1070072558DF80730C4F183
:10706000200500F09BFD01234F499DF80700A4F186
:10707000200223FA05F503FA02F22A43D1E9005669
:1070800003FA04F432432C43C1E9004200F0ACFDA2
:10709000C3E7002966D00028444B14BF0F21F0211C
:1070A00001EA0201187814BF302203220A43725504
:1070B0000028B2D03E4B1A681378A34261D0002357
:1070C00003E012F83310A1425CD00133834202EB9B
:1070D000C305F6D1A1E700299FD100280CBFF021FC
:1070E0000F2101EA02010CBF042240220A4372551B
:1070F00093E72E4F002814BF0F23F02338781A404F
:10710000725570B12A4B1B681A78A24204D141E033
:1071100013F83120A2423ED00131814203EBC10578
:10712000F6D100230DF107008DF80730C4F12005DA
:1071300000F034FD01231C499DF80700A4F1200252
:1071400023FA05F503FA02F22A43D1E9005603FABD
:1071500004F426EA020225EA0404C1E9004200F030
:1071600043FD5AE700280CBFF0210F2101EA02017C
:107170000CBF012210220A4372554EE7202402213F
:1071800043E715466B68002B3FF447AF20460121CB
:10719000984742E71D466B68002BC2D0002120466D
:1071A0009847BEE7B0310020A83100208031002090
:1071B000C03100202DE9F041174F3B78E3B1DFF8F3
:1071C00068800024D8F8005005EBC40615F8340098
:1071D00002F02AFB7178A1F10101B1FA81F14909AC
:1071E000091AB1FA81F115F834004909FFF7F6FEE2
:1071F0003B780134A342E5DC084BD3E90023134379
:1072000001D1BDE8F081064B064819680022490803
:10721000BDE8F04100F0E4BA80310020A831002040
:107220008431002088310020C0310020092A43D950
:107230002DE9F04182B00D460646144602F0B2F93F
:10724000002832D0214A2249224B16600D701022AC
:10725000002121481C6006F061F8204B002000212D
:107260006C1EC3E90001E4B245B306EBC4044FF061
:1072700003081B4F02E0B44220D01C469DF80630A4
:10728000A57820788DF8048023F007033A4601A9F9
:107290008DF806308DF8055002F08EF9A4F1080340
:1072A0000028E8D002B0BDE8F08102F02FF90028F4
:1072B000C8D002B0BDE8F08107207047094A0A48EB
:1072C000002100F07FFA02B0BDE8F081C03100205B
:1072D0008031002084310020B0310020A83100200E
:1072E000656F0200B571020028E7020070B5084D15
:1072F0002B785BB1074E00243368012113F834006A
:1073000002F032FA2B780134A342F5D8002070BD88
:1073100080310020C031002000B585B000230390EB
:10732000194601AA44F20100CDE9013300F004F846
:1073300005B05DF804FB00BF10B572B6FFF7CAFCDC
:10734000FFF7E6F80028FBD1104B114C1149E41A65
:10735000E408240444F00100FFF704FA0E4B1B6814
:10736000DB0700D500BE44F002000C49FFF7FAF934
:10737000BFF34F8F0A490B4BCA6802F4E062134314
:10738000CB60BFF34F8F00BFFDE700BFC0F402002A
:10739000E8F4020038E70200F0ED00E044E7020004
:1073A00000ED00E00400FA0559B142B1531E1A4045
:1073B00005D1826001608380C26010467047092059
:1073C00070470E20704700BF10B48468C26803463F
:1073D0008088121B904203D204205DF8044B704752
:1073E000DA681C6802400020A154DA680132DA60D1
:1073F0005DF8044B704700BF03468068DA6890422E
:107400000DD010B498689A881C6802400020A25CD5
:107410000A709A6801329A605DF8044B7047052043
:10742000704700BFD0E90223D1E90201994208BFA9
:1074300090422CBF01200020704700BF2DE9F04F83
:1074400087B0074600F0FCFC40B1B74AD2E90031F2
:1074500013F1807341F10001C2E900310021384687
:1074600000F00AFDB14C60B1236853B1B04B256800
:107470001B7823B11DB12B7F002B40F01C81002312
:1074800023600121384600F0F7FC002840F0F4802A
:1074900005A9A84800F076FD30B3A74DDFF890822B
:1074A000A44E0378012B00F0C680002B00F0CB80A7
:1074B000022B0FD128464FF0000901F0F3FB30B149
:1074C00080F81C90284601F0EDFB0028F8D101233C
:1074D00088F8003005A9304600F084FD05A9304643
:1074E00000F050FD0028DCD1DFF84C82934E3BE0E9
:1074F000404601F0D7FBD0E902B105463046039182
:1075000000F0CAFC884B0399D3E9002312EB000971
:1075100043F1000A8A4BD3E900239A4508BF9145FD
:1075200005D219F1807399464AF100039A46BBEBE4
:107530000903009361EB0A030193DDE90023012AAB
:1075400073F100012ADBDFF8FCB15A456DD8AA6857
:107550004FF496030021304600F0E6FB00285ED091
:107560000D281FD000232360404601F0A1FB2368B3
:1075700000287BD0002BBBD02368D0E90201D3E9DF
:107580000223994208BF90424CD223681B7F002BF4
:10759000AED02168404601F071FBA9E700213046DA
:1075A00000F05EFC624B1B78002BDBD02B7F002BA6
:1075B000D8D0304600F070FC5B49614BD1E900AB9C
:1075C000D3E900231AEB000A4BF1000B9B4508BFDF
:1075D00092455046594603D21AF180704BF1000192
:1075E000D5E90223994208BF90425FD32B6903B9C2
:1075F0002B77D5E90530984729690029B2D02B7F30
:10760000002BAFD0D5E9022312EB010A43F1000BA6
:10761000C5E902AB2946404601F030FBA2E72368EA
:10762000EBB1256007B0BDE8F08F304600F034FCC8
:1076300000EB0B028CE741682368994213D028467F
:1076400001F03AFB46E743681A7F002A7FF442AF15
:1076500001221A774168284601F010FB3AE73846C4
:1076600000F034FBDDE70023236033E7002BD9D1A2
:10767000384600F02FFBD5E73048314D00F00CFCC8
:10768000294BD3E90089D5E9002318EB000A49F119
:10769000000B9B4508BF92455046594603D21AF14C
:1076A00080704BF10001C5E90001F1E62946404632
:1076B00001F0E4FA56E7214800F0EEFB1A4B2049AE
:1076C000D3E90023D1E9008912EB000A43F1000B52
:1076D000CB4508BFC2455046594603D21AF18070C7
:1076E0004BF10001D5E90223994208BF90422BD308
:1076F0002B6903B92B77D5E905309847296900290B
:107700003FF4BDAE2B7F002B3FF4B9AED5E9022389
:1077100012EB010843F10009C5E902892946064830
:1077200001F0ACFAABE600BFC831002048320020BF
:10773000D03100202C32002058E70200E02A00203F
:1077400040320020FFFFB4002946024801F096FABB
:1077500095E600BF58E7020010B5134B13491B68AC
:10776000134882B058220193082300F0B5FB044669
:1077700010B1204602B010BD0E4A0F4801A900F01A
:107780004BFA04460028F4D101210B4800F04EFBCF
:1077900001231946094A084800F0A0FA084B0122C3
:1077A00020461A7002B010BD54E70200D431002008
:1077B0002C3200203D740200E02A0020FFFF7F00F1
:1077C000D03100204AB1A1F101010368B1FA81F181
:1077D0004909C3E90412002070470720704700BF21
:1077E000037F0BB1002070472DE9F048826182B021
:1077F00004461D480D4600F04FFB1C4B1C49D3E9C5
:107800000023D1E9006712EB000B43F1000CBC45EB
:1078100008BFB34503D21BF1807B4CF1000C1BEB7E
:10782000050023694CF10001C4E9020103B125619F
:1078300001A9104800F068FB50B1002544600570B4
:1078400001A90C4800F08EFB30B902B0BDE8F08809
:10785000042002B0BDE8F088034800F021FB284670
:1078600002B0BDE8F08800BFE02A0020C831002047
:10787000403200202C32002030B5002583B0044671
:10788000057701A90B4800F03FFB78B10123446064
:10789000037001A9074800F065FB08B903B030BDCB
:1078A000054800F0FDFA284603B030BD042003B0BF
:1078B00030BD00BF2C320020E02A002030B5047813
:1078C000012C83B026D0B4B1022C12D1384B394DE3
:1078D0001A78C168AA5C01918DF80040002A3FD057
:1078E000181D0122344902F0B3FE344B68461B6870
:1078F000984703B030BD32493248FFF77DFD00287C
:1079000035D02E4B03221B688DF80020684698471F
:1079100003B030BD037AC3B143682B4D19782846B4
:10792000FFF752FD002831D0244B01908DF8004024
:107930001B6868469847A968EB68AA885B1A9A4250
:1079400003D2224B01221A70D3E7194B194A1B7834
:107950001949D35C0122ABB11D4802F079FEC8E79A
:1079600003F10C000122144902F0D4FBBDE71048DA
:10797000104A0378D35CA3B101221149043002F00C
:10798000FFFDB6E7134802F0C5FBB2E7AA68EB6853
:107990009A42D0D0094B8DF800001B686846984782
:1079A000C9E7012206490C3002F040FBA1E700BF05
:1079B000E82A0020403E0020743200204C32002093
:1079C00078320020643200205032002060320020E3
:1079D000EC2A0020F42A00202DE9F045324C89B031
:1079E0002260002954D00C4680468A882F480968B6
:1079F0009A46FFF7D9FC10B109B0BDE8F085A2891D
:107A0000A1682B48FFF7D0FC0028F5D1294D98F844
:107A100010C0294ED8F814700FCD6C460FC495E8ED
:107A20000F0098F811501CF1000C18BF4FF0010C1A
:107A3000002D84E80F00D8F80850D8F80C40D8F88A
:107A40000430069714BF0E2200228DF81520D8F8B6
:107A500000701A4A8DF81CA0694630468DF814C093
:107A60000197CDE90245009301F0A6FC0028C3D19F
:107A7000D8F80030124A01331070BDD0114A337863
:107A8000D35C4BB1301D01220F4902F0E1FDB3E799
:107A9000072009B0BDE8F08506F10C0001220A4973
:107AA00002F038FBA8E700BF4C3200205032002023
:107AB0006432002070E70200E82A0020BD7802004E
:107AC00060320020403E00207432002070B5114C1E
:107AD000014611482678FFF78FFC05460EB9284667
:107AE00070BD0E480E4A0378D35C0022227053B159
:107AF000043001220B4902F0ABFD0028EFD0FFF764
:107B00000BFC284670BD012206490C3002F002FB36
:107B1000F3E700BF6032002050320020E82A002046
:107B2000403E00207432002070B501461548FFF732
:107B30004BFC044608B1204670BD134D134E2B7804
:107B4000F35CA3B1281D02F075FD0028F3D11049A4
:107B50000C48FFF751FC0028EDD12B780C49F35C61
:107B600001224BB10B48BDE8704002F009BD05F1A0
:107B70000C0002F0C3FAE8E70748BDE8704002F0E5
:107B800055BA00BF64320020E82A0020403E0020A1
:107B900078320020EC2A0020F42A002070B4EFF3A1
:107BA000108472B60D4B9A68AAB90D490D4E012585
:107BB0009D60D1F8805035401D60C1F88060D1F8DB
:107BC00084505D604FF0FF33C1F88430027004B917
:107BD00062B670BC704701230370F8E7343E0020A2
:107BE00000E100E0FC06FFBD094B9A687AB170B96C
:107BF00010B4EFF3108172B6064A1C6814605C681A
:107C00005460986001B962B65DF8044B70477047E4
:107C1000343E002000E100E0F8B5244E4579244CC4
:107C2000244B254F9B1B04EBC506DB08367947F830
:107C300025201B0496BB02680D88C2F8085590F9F0
:107C400004208978002A21DB02F1604202F56142BA
:107C50004901C9B282F8001390F90420002A07DB19
:107C6000164D02F01F0601215209B14045F82210BD
:107C70004279134944F8320004EBC20443F0030094
:107C800001232371FEF76EFD0020F8BD0D4D02F0BB
:107C90000F0249011544C9B22976DDE743F002001D
:107CA0000949FEF75FFD0820F8BD00BFC0F40200DF
:107CB0007C320020F8F402008432002000E100E071
:107CC000BCE70200FCEC00E098E702000368012238
:107CD0001A607047036801225A607047F0B4046864
:107CE0004FF480358D40C4F80853066801F1500404
:107CF000C6F84853A4000668A4B20027375182B0E2
:107D000036590468019601F5A87122F07F42019E60
:107D100044F821200268C2F8445313B10368C3F841
:107D2000045302B0F0BC70472DE9F0430E464FF407
:107D300080370168B740C1F848730168C1F808731B
:107D40000168044601EB8600D1F804C5D0F840155F
:107D5000C0F840C506F15005AD002068ADB24FF047
:107D6000000940F8059085B0A1EB0C014059029044
:107D700021F07F41012922F07F48029A45D02268F4
:107D8000D2F80455C2F84473A8EB050222F07F42F2
:107D9000012A06F5A87627D0226842F826802068B6
:107DA000D0F80455A8EB0501C3F1FF13013903F521
:107DB0007F4321F07F418B4212D341B1C0F844731D
:107DC00023680020C3F8047305B0BDE8F08308F110
:107DD000010240F826202068D0F804359D42EDD0FD
:107DE0000D2005B0BDE8F08320680F4B08F10102BB
:107DF00040F8262043F001034FF480609847206844
:107E0000D0F804359D42D9D0EAE7074A019342F001
:107E100001024FF4806090472268019B42F8059070
:107E200052590392039AAAE790E7020002680223DC
:107E3000C2F8443311B10268C2F80433704700BF7E
:107E40000368D3F8040100B97047002282B0C3F878
:107E50000421D3F804310193019B012002B0704743
:107E60004FF48033026803FA01F1C2F84813036843
:107E7000C3F80813704700BF5031890089B2036806
:107E8000585800B9704700225A5082B05B5801938D
:107E9000019B012002B070470368D3F804057047C6
:107EA00090F90430002B09DB5A09403203F01F031C
:107EB0000121034801FA03F340F82230704700BF64
:107EC00000E100E0024A034B10681B68184700BF3E
:107ED0007C3200208432002099B110B4B2FBF3F45C
:107EE00003FB1424A4B244B9C0E900148460828165
:107EF000C38120465DF8044B704709205DF8044BB0
:107F000070470E20704700BF30B482B050E8013F88
:107F10009DB2C48925448489A54228BF2D1B0489AC
:107F2000A54202BFBFF32F8F002207E0C5EA030579
:107F300040E80154002CE9D14FF001028DF80320F4
:107F40000193019B9DF803200B602AB10B88006808
:107F5000184402B030BC704702F0FF03184602B06C
:107F600030BC70470A884B889A4201D00020704785
:107F700050E8012FC2EA024240E80123002BF7D16A
:107F80000120704730B482B050E8023F1FFAA3F5D9
:107F9000C488A54202BFBFF32F8F00220DE0C48921
:107FA00025448489A54228BF2D1BC3EA054540E826
:107FB0000254002CE8D14FF001028DF80320019308
:107FC000019B9DF803200B602AB14B880068184480
:107FD00002B030BC704702F0FF03184602B030BC5C
:107FE000704700BF0A884B889A4201D00020704732
:107FF00050E8022FC2EA224240E80223002BF7D1C8
:108000000120704701F01F024B09012100EB8300A2
:10801000914000F01FB800BF01F01F020123490981
:10802000934000EB8100D94300F020B84B0901F0E8
:108030001F0150F82300C84000F00100704700BF46
:1080400050E8002F0B4640E8003C9CF0000FF7D1B1
:108050001046704750E8003F43EA010240E8002C18
:108060009CF0000FF6D11046704700BF50E8003F6B
:1080700003EA010240E8002C9CF0000FF6D1104604
:10808000704700BF50E8003F03EB010240E8002CBE
:108090009CF0000FF6D11046704700BF50E8003F3B
:1080A000A3EB010240E8002C9CF0000FF6D1104633
:1080B000704700BF012350E8002F42EA030C40E85C
:1080C00000C191F0000FF6D160467047002350E8E0
:1080D00000CF0CEA030240E8002191F0000FF6D136
:1080E00060467047B8B130B4D0E90112521A046842
:1080F000D2B2531E2160DBB242B101680A685C1E35
:10810000551C0D601370E3B2FF2BF6D103680020FD
:10811000187130BC70470E20704700BFF0B583B0B7
:10812000044600250DF107008DF80750FFF736FDD6
:10813000D4E900311A688A4210D9511E19602168A9
:10814000A3680F6812F8015C0A79268AE068DB1BD5
:10815000DBB29A4206FB050538BF0B719DF807009C
:10816000FFF742FD284603B0F0BD00BF30B505461D
:1081700083B000230DF107000C468DF80730FFF7A0
:108180000DFD2A681368591C1160E9682A8A641A6F
:10819000B4FBF2F41C709DF80700FFF725FD03B057
:1081A00030BD00BF826842B110B504464369016822
:1081B000006998470023A36010BD70470EB400B556
:1081C00082B0039921B104AB01AA019300F0B2F887
:1081D00002B05DF804EB03B0704700BF2DE9F04F2B
:1081E0008A4683B09245164605469846DDE90CB1AD
:1081F000C0F09C8053460127B3FBF6F39E4207F183
:108200000107F9D9474538BF474611F00103AA686D
:10821000009302D1BBF1000F68D1012403E008F103
:10822000FF3806FB04F4B8F1010FF8D8BAFBF4F0FC
:108230008642F6D9DFF8F8904FF00D0807E0B44217
:10824000B4FBF6F31CD3BAFBF3F0AA681C4619F88A
:10825000003029680A2B04FB10AA01EB020E02F180
:10826000010028D0A8608EF80030D5E901329A428A
:10827000E5D32846FFF796FFB4FBF6F3B442E2D20B
:10828000009BABB1BBF1000F12D0BB4510D920242D
:10829000AB682A68591CA960D454D5E901329A42C6
:1082A0000BF1FF3B1ED2BBF1000F01D0BB45EFD15C
:1082B00003B0BDE8F08FA86001F80280D5E9012085
:1082C000904204D22A6802EB000E0130CAE7284629
:1082D0000193FFF767FFAA682968019B501C01EB17
:1082E000020EBFE72846FFF75DFFDCE78B0717D4D8
:1082F0002024BB4591D92B68511CA9609C54D5E919
:1083000001329A420BF1FF3B05D2BBF1000F84D042
:10831000BB45F0D181E72846FFF744FFAA68F4E7A0
:10832000B8F1000F0CBF30242024E2E7012769E7F1
:10833000D0E70200002900F0E8822DE9F04F054661
:1083400085B091460C460E78DFF814A74FF00D0B60
:1083500013E0AB6828680A2E03F1010200EB030169
:1083600000F02681AA600E70D5E901329A4280F0B1
:1083700011812678002E00F014810134002E00F0C7
:108380001081252EE5D12146002711F8012B2D2A39
:1083900000F0E580302A00F0E6802B2A00F0D6803D
:1083A0002A2A00F01181A2F13006F3B2092B03D979
:1083B00022E2A3F130060146084606EB860310F8D8
:1083C000012BA2F13004092C02EB4303F1D92E2A30
:1083D00000F006814FF0000802F0FB03682B01F16A
:1083E000010405D114F8012B02F0FB03682BF9D02E
:1083F000253A532ABDD801A353F822F091870200F1
:10840000738302007383020073830200738302008C
:10841000738302007383020073830200738302007C
:10842000738302007383020073830200738302006C
:10843000738302007383020073830200738302005C
:10844000738302007383020073830200738302004C
:10845000738302007383020073830200738302003C
:10846000738302007383020073830200738302002C
:10847000738302007383020073830200738302001C
:10848000738302007383020073830200738302000C
:1084900073830200738302007383020073830200FC
:1084A00073830200738302007383020073830200EC
:1084B00073830200738302007383020073830200DC
:1084C0007383020073830200A98702007383020092
:1084D00073830200738302007383020073830200BC
:1084E00073830200738302007383020073830200AC
:1084F000738302006F8502000B8702007383020002
:108500007383020073830200738302000B870200EF
:10851000738302007383020073830200738302007B
:108520007383020073830200838602007383020058
:108530007383020029860200738302000D86020005
:108540007383020073830200A987020047F00407C7
:108550000C46214611F8012B2D2A7FF41BAF47F062
:1085600001070C46F5E747F002070C46F1E7D9F89A
:1085700000301A1DC9F800201E78AB680A2E00F0E2
:108580004C822A68591CA960D654D5E901329A4216
:10859000FFF4EFAE2846FFF705FE2678002E7FF4A5
:1085A000ECAE2B7B002B40F0218105B0BDE8F08FB5
:1085B000AA6000F803B0D5E901329A4280F00E813A
:1085C000296811440132CDE6D9F800301A1DC9F8E6
:1085D000002062781E682E2A04F102007FF4FAAEB1
:1085E0004A78A2F13003092B01464FF000083FF60C
:1085F000F3AE08EB880802EB480811F8012FA2F14E
:108600003003092BA8F13008F3D9E5E6D9F800309A
:108610001A1DC9F8002019680197434600960A22DE
:108620002846FFF7DBFDA4E6D9F800301A1DC9F88B
:10863000002017F00107D3F8008040F0EA80B8F17D
:10864000000F03D0404604F091FE0746BE4240F2C0
:108650005D81002E00F05A81202102E0BE4200F030
:108660005581AA682B68501CA8609954D5E901234C
:10867000934206F1FF36F1D32846FFF793FD202100
:10868000ECE7D9F80020131DC9F80030AB68296861
:108690001768581C3022A860CA54D5E901239342B8
:1086A00080F0F1802A68581C7821A860D154D5E95F
:1086B0000123934280F0E2800F2F03D93A4612093A
:1086C0000F2AFCD84FF0805606E00F2E4FEA161303
:1086D0007FF64FAE1E46AB68B7FBF6F21AF8028083
:1086E0002868B8F10A0F06FB127700EB030103F1CB
:1086F000010267D0AA6081F80080D5E901329A4270
:10870000E3D32846FFF74EFDDFE7D9F800301A1D06
:10871000C9F80020196881EAE172A2EBE172092A26
:108720004FF001000BDDDFF83CC300E01A46ACFB64
:1087300002E3632A00F101004FEAD303F6DC40456F
:10874000034638BF4346029307F00203002E57D07A
:108750000029C0F29D80780700F19A80002B00F07C
:108760009980B8F1000F40F095800029C0F2368161
:108770007B0700F1468107F00303022B00F0FD8028
:10878000CDE9006743460A222846FFF727FDF0E5BA
:10879000AB682A68581C2521A860D154D5E901325C
:1087A0009A42FFF4E6ADF5E6D9F800301A1DC9F893
:1087B0000020196801974346009610222846FFF7CB
:1087C0000DFDD6E5AA6000F803B0D5E901329A4262
:1087D00080F093802B68991801328BE72846FFF7C9
:1087E000E1FCAB6829685A1C1944BBE5284605B072
:1087F000BDE8F04FFFF7D6BC084600262146E6E567
:108800002BB1B8F1000F00F02581FB07ADD4002695
:10881000ABE798F80020002A00F02081AB684746BB
:10882000C8F10101D5F800E00A2A01EB07080EEBB8
:10883000030C03F1010054D0A8608CF80020D5E9A6
:108840000123934242D217F8012F002AEAD146456C
:108850007FF68FAD202702E046453FF48AADAA6837
:108860002B68511CA9609F54D5E901329A4206F148
:10887000FF36F1D32846FFF795FCEDE72846FFF7D2
:1088800091FCAB6818E72846FFF78CFCAB6809E75A
:10889000013E63E7FA073FF568AF002EB7D0029BB1
:1088A0009E427FF662AF2023AA68501CA860286809
:1088B0008354D5E90102824206F1FF3680F0BC8084
:1088C000002EA4D0029A9642EED14EE7284602919D
:1088D000FFF768FC17F8012F002AB8D0AB6802999F
:1088E000A0E7A8600EF803B0D5E90130984260D245
:1088F0002B6803EB000C01309EE72846FFF752FC83
:10890000A9682B684A1C1944F4E6704798F800607F
:10891000002E3FF42EADAB6828680A2E03F1010249
:1089200000EB030111D0AA600E70D5E90123934238
:108930001BD218F8016F002E3FF41BAD28680A2ED9
:1089400003F1010200EB0301EDD1AA6000F803B0CE
:10895000D5E901329A4239D2296811440132AA601C
:108960000E70D5E901239342E3D32846FFF71AFCA2
:1089700018F8016F002ECED1FBE4B8F1000F7FF4A0
:10898000FFAE002E68D0029B9E427FF6F9AE3023E8
:10899000AA68501CA86028688354D5E90102824265
:1089A00006F1FF364FD2002E56D0029A9642EFD1F2
:1089B000E6E62846CDE90221FFF7F4FBAB682A681A
:1089C000581C02EB030CDDE9022135E72846FFF7CE
:1089D000E9FBAB6829685A1C1944A4E7AA68531C30
:1089E000AB602B682D209854D5E901329A42C1F131
:1089F0000001FFF4C0AE28460391FFF7D3FB0399B3
:108A0000B9E6AA68531CAB602B682B209854D5E9B3
:108A100001329A42FFF4AFAEEDE72A68591CA96013
:108A200002F803B0D5E901239342FFF4AAAD28462A
:108A3000FFF7B8FBAB68A4E528460391FFF7B2FB4C
:108A4000202303993CE728460391FFF7ABFB302333
:108A50000399A8E7464688E6002691E69046F6E6A2
:108A6000D0E70200CDCCCCCCFFF73CBB2DE9F041E8
:108A7000058ACF1C043D2F440646B7FBF5F7FFF7E8
:108A80004DFB002834D0FFB24FF48073013F044601
:108A9000C580066083802CD08046002509E063797C
:108AA000AF4203F101036371C8F80000066080461D
:108AB0001FD03046FFF732FB01350028EFD194F884
:108AC00005802768B8F1010316D03D460130834286
:108AD0002D68FBD1B8F1000F0AD0002601E03C461A
:108AE0003F68214601362846FFF740FBB045F6D8DF
:108AF00000242046BDE8F08121463846FFF736FBCA
:108B0000F6E700BF04300121FFF7BCBA2DE9F041C0
:108B1000012104460430FFF7C1FAC0B208B1BDE834
:108B2000F08194F805802568B8F1010314D02E4631
:108B3000013083423668FBD1B8F1000FEFD0002737
:108B400001E02C462D68214601373046FFF70EFB29
:108B5000B845F6D8BDE8F08121462846BDE8F04189
:108B6000FFF704BB2DE9F8430546C6884079144653
:108B700006FB00F2043A04EB030C1F1D624538BFEC
:108B8000D41ABE428846B7FBF6F106FB117002D834
:108B900001392D68FCD1371AA74228BF27469CB15E
:108BA0004FF000090430E41B28443A4608EB090161
:108BB00004F0A6FBA642B9442D6837464FF00000EA
:108BC00028BF2746002CEDD1BDE8F8832DE9F843F6
:108BD0000546C6884079144606FB00F2043A04EBC9
:108BE000030C1F1D624538BFD41ABE428846B7FB2E
:108BF000F6F006FB107102D801382D68FCD1771A07
:108C0000A74228BF27469CB14FF0000904312944F0
:108C1000E41B3A4608EB090004F072FBA642B94493
:108C20002D6837464FF0000128BF2746002CEDD1B4
:108C3000BDE8F883826800239360826813618268CC
:108C400053618268D36082685360826813607047A2
:108C500001600B6843604A68934204BF002343608D
:108C6000704700BF436843B1026891680B4443609A
:108C70005268934204BF00234360704770B5446854
:108C8000064620680D4618B908E02468206828B117
:108C9000B368294698470028F7D1206828602560E6
:108CA00070BD00BF4368186808B102681A60704759
:108CB00043681868704700BF4068036873B1994201
:108CC00003D107E0814204D0034618680028F9D197
:108CD000704718460B6803600120704718467047BC
:108CE00030B41F49A1F594728B1ADB1003EBD373D8
:108CF0005B10DD0052F83330984202EB050420D2BD
:108D0000A24218D2ED1005EBD5756D1002EBC5012E
:108D100052F83530984205D310E052F8333098427B
:108D20000FD221468B1ADB1003EBD3735B108A4200
:108D300002EBC304F1D30B4830BC704722460C460B
:108D40001146984204D904F108028A42CCD3F2E7D2
:108D50006068044B30BC002808BF1846704700BF4D
:108D600034E90200F8E7020070B5161E07DD0C4674
:108D70008D1914F8010BFEF7D7FEA542F9D1304644
:108D800070BD00BF10B50C462046FEF79FFE0528BB
:108D9000FAD0012010BD00BF30B4AC4B1B68591C89
:108DA00004BFAB4B1B78062B05D1AA4BAA4A1B6804
:108DB000C3F304231360A64B1B78062B00F0E78057
:108DC000A24B1B685A1C04BFA14B1B78062B05D174
:108DD000A24BA34A1B68C3F3423313609C4B1B781E
:108DE000062B00F0C780994B1B685D1C04BF984B95
:108DF0001B78062B08D14FF080430022C3F80C21CA
:108E0000C3F81021C3F83825914B1B78062B00F0CE
:108E10009B808E4B1A68541C1FD0924B062A1B68ED
:108E200023D0914AD2F8883043F47003C2F88830D6
:108E3000BFF34F8FBFF36F8F4FF01023D3F8002293
:108E4000002AC0F2D280D3F80432002BC0F2CD80C9
:108E5000864B874A1A6030BC70477D49854B09783C
:108E60001B680629DDD1C3F30313033B012B48D94B
:108E70004FF08052804BD2F80414C3F82015D2F87A
:108E80000814C3F82415D2F80C14C3F82815D2F826
:108E90001014C3F82C15D2F81414C3F83015D2F8F6
:108EA0001814C3F83415D2F81C14C3F84015D2F8BE
:108EB0002014C3F84415D2F82414C3F84815D2F886
:108EC0002814C3F84C15D2F82C14C3F85015D2F856
:108ED0003014C3F85415D2F83414C3F86015D2F81E
:108EE0003814C3F86415D2F83C14C3F86815D2F8E6
:108EF00040145648C3F86C15D2F844140268C3F8FD
:108F00007015501C6CD0062A8BD15C4B4F4A1B68E5
:108F10005B49126803F04F030B60511C42D0062AD4
:108F20007FF47FAF4FF08043D3F80034DA0745D4A5
:108F30004C4B1B68033B022B7FF673AF514A1368FF
:108F400043F4806313606CE74A4B1B68C3F303135D
:108F5000032B7FF45EAF4C4D4C482B604C4C4D497D
:108F60004D4A05230360012500203F23256008604A
:108F700013604EE73F4B1B68C3F30313032B7FF4CF
:108F800032AF464AD36823F08073D3602BE7394B66
:108F90001B68C3F30313032B7FF412AF404B414A0A
:108FA0001A600DE72A4B1B78062B7FF43AAF4FF07F
:108FB0008043D3F80034DB077FF533AF234B1B68C6
:108FC0004FF080426FF00101062BC2F800147FF4CD
:108FD00028AF244B1B68033B022B7FF622AFADE783
:108FE0001B4B1B78062B90D01BE72F4A0123C2F89E
:108FF0000435D2F80034002BFBD04FF0102315219C
:10900000294AC3F80012D2F80034002BFBD04FF0ED
:1090100010231521244AC3F80412D2F80034002B7F
:10902000FBD000232049C2F80435D1F80034002BCE
:10903000FBD0BFF34F8F0C491C4BCA6802F4E062AF
:109040001343CB60BFF34F8F00BFFDE7300100102B
:10905000E00F00F0240300104035014044020010EE
:109060003C0500403401001000ED00E0FC2A002027
:109070000090D003E80F00F000C00040580200103C
:10908000E40E00403C170040A00500401056004090
:10909000885600401856004014560040F0ED00E09D
:1090A00074C007400DF0ADBA00E001400400FA05BD
:1090B000054A4FF0A043105CD3F8043523FA00F0C2
:1090C000C04300F00100704724ED0200044B195C1E
:1090D0004FF0A04201238B40C2F80C35704700BF0F
:1090E00024ED0200044B195C4FF0A04201238B4099
:1090F000C2F80835704700BF24ED02004FF0A043CE
:1091000010B44FF480204FF400344FF400214FF49A
:109110008012C3F80845C3F80805C3F80815C3F85A
:1091200008255DF8044B70474FF0A04310B44FF48E
:1091300080204FF400344FF400214FF48012C3F824
:109140000C45C3F80C05C3F80C15C3F80C255DF8E5
:10915000044B7047074B4FF0A041185CD1F8043521
:109160000122824022EA03001340C1F80805C1F839
:109170000C35704724ED0200054A4FF0A043105C07
:10918000D3F8103523FA00F0C04300F00100704717
:1091900020ED02000D2809D00E2809D00F2809D093
:1091A00010280CBF03204FF0FF307047002070479D
:1091B0000120704702207047014B185C704700BFC8
:1091C00020ED0200C20730B41AD54FF0A0430322AD
:1091D000C3F844274FF40035C3F848274FF48024E0
:1091E000C3F84C274FF40021C3F850274FF48012E6
:1091F000C3F80855C3F80845C3F80815C3F808258F
:1092000083070AD54FF0A0430C22C3F83427C3F8D4
:109210003827C3F83C27C3F8402730BC704700BF4D
:1092200010B568B90E4CA368012262703BB1D3E956
:1092300000230020A2609847A368002BF7D110BD3F
:109240000128FCD1064C2369A070002BF7D0D3E98C
:1092500000230120226198472369002BF7D110BD1C
:109260008832002070B910B5074CA36801226270E3
:109270003BB1D3E900230020A2609847A368002BEC
:10928000F7D110BD704700BF8832002030B50128EB
:1092900083B026D0D8B1032817D1294C00F0D6F8D6
:1092A00000230DF107008DF80730FEF777FCE36827
:1092B000013BE360E36823B9224BD3F80054002D4F
:1092C00037D09DF80700FEF78FFC03B030BD1E4B72
:1092D0000122C3F88020BFF34F8FBFF36F8F03B01D
:1092E00030BD174C00230DF107008DF80730FEF755
:1092F00055FC237853B1E3689DF807000133012240
:10930000E360A270FEF770FC03B030BD0F486360ED
:10931000A3602361E36000F08DF803F00FFE60B1FD
:109320000123084A2370D2F80024002AE3D0A37056
:10933000E1E700F09DF8A570C3E700F087F8EFE7DC
:10934000883200200000014000E100E0219202008C
:1093500030B585B0047845688DF80040D0E902400A
:10936000064A074B039053F8213001958DF80840C9
:1093700052F821106846984705B030BD9C32002055
:10938000A032002030B585B0047845688DF80040E3
:10939000D0E90240064A074B039053F8213001956B
:1093A0008DF8084052F821106846984705B030BD46
:1093B0009C320020A0320020F0B5194B0678194DE0
:1093C0000C6991F81DE045F826408446164803F8DC
:1093D00006E040F826200C4617460FCC89B06D46B3
:1093E0000FC594E80F0085E80F000496BEF1000F4A
:1093F0000AD0002F0D4A69460CF1040008BF3A4616
:1094000000F0D6FF09B0F0BD002F094A69460CF103
:109410000C0008BF3A4600F03DFD09B0F0BD00BFAA
:10942000403E00209C320020A032002051930200D8
:1094300085930200044A137923B9012110609180B9
:109440001846704785207047A4320020074B1A68E1
:10945000D20704D4C02283F8002301221A604FF0FF
:1094600080430122C3F81825704700BF00E100E0E7
:1094700010B40B4B0B494FF0804200200224C2F87D
:10948000084383B018601B680193012301980B60A7
:10949000D2F81834DB03FBD403B05DF8044B7047FB
:1094A000040100400C00004010B5154B1A6882B052
:1094B00062B10021134A19601B68507900934FF084
:1094C00080410123009CC1F80833A8B10E4B1A68F3
:1094D00082B100221A601B6801934FF08042022182
:1094E000084B0198C2F808131B68012002B0BDE8C0
:1094F0001040184702B010BD116853718847E5E766
:1095000000010040A43200200401004030B5204C8E
:1095100094F8583083B0002B37D14FF0FF3121FA47
:1095200003F2D20748BFE21803F1010348BF82F8F3
:109530003010202BF3D14FF0FF33042200211548C7
:109540002365C4E90033C4E90233C4E90433C4E940
:109550000633C4E90833C4E90A3303F0DFFE0E4BD7
:10956000C02283F8062340221A600C4B0C4A0020CC
:1095700018601B680193019D01214FF0004384F89E
:109580005810C2F8043303B030BD082003B030BD1A
:10959000AC3200200033002000E100E07C6100409C
:1095A00000600040034B93F85800003018BF0120C2
:1095B000704700BFAC320020F0B5694B1C1894F91D
:1095C0003050002D63DA8E78C6F340069646002EA2
:1095D00057D01D68013500F0B6800124082553F8E6
:1095E0002470013756D004F1010C53F82C70013768
:1095F0004FD0A71CAF4242D253F82720013200F0CF
:10960000A08004F1030CAC4539D253F82C7001371B
:109610003FD004F1040CAC4531D253F82C70013723
:1096200037D004F1050CAC4529D253F82C70013722
:109630002FD004F1060CAC4521D253F82C70013721
:1096400027D004F1070CAC4519D253F82C70013720
:109650001FD004F1080CAC4511D253F82C7001371F
:1096600017D004F1090CAC4509D253F82C7001371E
:109670000FD00A34AC4202D2DC6A01345FD004203D
:10968000F0BD1D6A013564D009240C25A7E7082028
:10969000F0BD64461F1865B243F824E087F83050E7
:1096A00016B91C4484F848008A78540714D4D607A5
:1096B0003BD44C784FF0A04600F5E072A40046F889
:1096C0002240284EC40800F0070C375D012202FA40
:1096D0000CF23A4332558A78097812F002021AD015
:1096E000AB0003F1804303F5C0430202D3F8100539
:1096F00020F4473020F44070C3F810050904D3F873
:10970000100501F4403102F4F8520A430243C3F851
:1097100010250020F0BD083D2B44104693F8502042
:1097200042EA811183F85010F0BD820002F1A0429C
:10973000D2F8004724F00204C2F80047C1E70B2426
:10974000A8E73C46A6E70025C3F800E084F83050BF
:10975000AAE7082684F830601A6235463446A0E746
:10976000AC3200200033002070B42D4C251883B09B
:1097700095F93030072B1CDD234493F848309B09C2
:10978000032B40D0012B14BF4FF440314FF4003174
:10979000800000F1A040D0F8002722F44032C0F849
:1097A0000027D0F800370B43C0F8003703B070BC77
:1097B0007047DAB2072AF9D8980000F1804000F526
:1097C000C04003F140029200D0F8106592B202F15D
:1097D000804202F5C04246F00106C0F81065002044
:1097E000106012680192019A0029DFD095F93020AB
:1097F00054F82220002AD9D001220A4902FA03F3A0
:10980000C1F80433D2E74FF0A043D3F81035C3407A
:1098100013F0010F0CBF4FF400314FF44031B7E7A4
:10982000AC320020006000404FF0A043D3F8103568
:1098300023FA00F000F00100704700BFF0B585B0DA
:109840000023C54A01931168012900F0E1811E46F9
:10985000C24B1A68012A00F0CD81C14B1A68012A57
:1098600000F0BA81BF4B1A68012A00F0A781BE4BF5
:109870001A68012A00F09481BC4B1A68012A00F092
:109880008181BB4B1A68012A00F05881B94B1A68D4
:10989000012A07D0B84B1A68012A00F0C581F6B931
:1098A00005B0F0BDB54AD2F804231206F2D5002265
:1098B0001A6019680291603319680298012946F00C
:1098C00080060CD11A601B6803934FF0A043039AE3
:1098D000D3F820250192C3F8202546F00046A84F72
:1098E00000240125A30003F180432E4203F5C04369
:1098F0004FEA45050BD0D3F8100557F82420D3F8CC
:109900001015C0F30420C1F3014102B190470134A6
:10991000082CE7D1002EC3DA994C01254FF0A04660
:1099200094F950104F1C3CD0C9B204AB21F0C000D8
:1099300003EBD00201F0070312F80C2C05FA03F335
:109940001A422ED0830003F1A04305FA00FCD3F89D
:109950000027D3F8007727F44037C3F80077C2F325
:109960000142D3F80077022A0CBF4FF4403E4FF477
:10997000003E47EA0E0E2718C3F800E7C6F820C5D8
:1099800097F9303054F823305BB18909032900F08E
:109990006D81022A00F06781032A02D1022900F0BA
:1099A000658194F95110481C3CD0C9B204AB21F038
:1099B000C00003EBD00201F0070312F80C2C05FAEB
:1099C00003F31A422ED0830003F1A04305FA00FCF2
:1099D000D3F80027D3F8007727F44037C3F800778F
:1099E000C2F30142D3F80077022A0CBF4FF4403E85
:1099F0004FF4003E4EEA070E2718C3F800E7C6F8FA
:109A000020C597F9303054F823305BB18909032918
:109A100000F02281022A00F01C81032A02D10229CF
:109A200000F01A8194F952104A1C3CD0C9B204AB20
:109A300021F0C00003EBD00201F0070312F80C2C58
:109A400005FA03F31A422ED0830003F1A04305FA6E
:109A500000FCD3F80027D3F8007727F44037C3F889
:109A60000077C2F30142D3F80077022A0CBF4FF40B
:109A7000403E4FF4003E4EEA070E2718C3F800E7B9
:109A8000C6F820C597F9303054F823305BB1890906
:109A9000032900F0DC80022A00F0D680032A02D1DC
:109AA000022900F0D48094F953104B1C3CD0C9B269
:109AB00004AB21F0C00003EBD00201F0070312F861
:109AC0000C2C05FA03F31A422ED0830003F1A043B5
:109AD00005FA00FCD3F80027D3F8007727F44037C5
:109AE000C3F80077C2F30142D3F80077022A0CBF13
:109AF0004FF4403E4FF4003E4EEA070E2718C3F8DD
:109B000000E7C6F820C597F9303054F823305BB130
:109B10008909032900F0A580022A00F09F80032A0A
:109B200002D1022900F09D80D6F820350193C6F8B5
:109B30002035002B7FF4F4AE05B0F0BD0F4AD2F80B
:109B4000042351067FF5A2AE00221A601B6802931F
:109B5000029B46F0400699E6006100400461004027
:109B6000086100400C610040106100401461004039
:109B7000186100401C6100407C61004000600040B2
:109B8000AC3200203A4AD2F8042390067FF579AE31
:109B900000221A601B680293029B46F0200670E6C2
:109BA000334AD2F80423D4067FF566AE00221A6049
:109BB0001B680293029B46F010065DE62C4AD2F821
:109BC000042315077FF553AE00221A601B68029329
:109BD000029B46F008064AE6254AD2F804235707B6
:109BE0007FF540AE00221A601B680293029B46F08C
:109BF000040637E61E4AD2F8042392077FF52DAEFD
:109C000000221A601B680293029B46F0020624E6BB
:109C10001749D1F8046316F001063FF419AE13603A
:109C200013680293029B13E600221A601B680393D9
:109C30004FF0A043039AD3F820250192C3F82025C2
:109C4000002E3FF469AE48E601297FF42CAF984717
:109C500029E701297FF4E6AE9847E3E601297FF47E
:109C600063AF984760E701297FF49BAE984798E679
:109C700000600040014B1B68184700BF08330020FC
:109C8000114B98421DD130B583B000230DF1070070
:109C90008DF807300D46FDF781FF0C4B1C794CB950
:109CA00001229DF807001D601A71FDF79DFF2046F7
:109CB00003B030BD9DF80700FDF796FF112003B0FB
:109CC00030BD0020704700BF002000400833002056
:109CD00030B56E4AD2F8043399058BB066D5D2F808
:109CE0002431002B62D00023C2F82431D2F8243171
:109CF00001934FF40171664B0198C2F8081393F871
:109D0000291009B901215160604902228DF81820FB
:109D1000D1F88024C1F880249869D968099200227A
:109D2000CDE90710C3E90622D3E9001406A8A0472D
:109D3000564AD2F81C31C3B1554B5869196A88424A
:109D400069D993F8281001F0FF00002963D1C2F807
:109D50001C01D2F81C11039103999C68186A196AB6
:109D6000205C01311962C2F81C05484AD2F844311E
:109D7000D3B10021464BC2F84411D2F8440193F804
:109D800029100090009800295CD19A6962B10022E4
:109D9000586AD9689A610122CDE907108DF8182018
:109DA00006A8D3E9001290470BB030BD374AD2F86D
:109DB00004335B07BCD5D2F80831002BB8D0344B44
:109DC0009969002941D00021C2F80811D2F8081180
:109DD00004910499D868596AD2F8182542545A6AED
:109DE000996901325A625A6A8A42A1D1DA691968BC
:109DF000002A33D0D8685D6A1C699A6107900022F6
:109E00000120DC60DA615A628DF8180008955B6801
:109E100006A898478CE71D4A0021C2F81C11D2F809
:109E20001C210292029A5A69002A9ED058699A68A7
:109E30008DF8181008905961079206A8D3E900120E
:109E4000904792E7012111609FE7C2F80811D2F80C
:109E5000080105900598D2F81825C4E793F8292041
:109E600012B90A4A01205060084A4FF40170C2F842
:109E70000803586ADA6808900024012007928DF8D8
:109E800018005A689C6106A8904751E700200040DE
:109E9000103300202DE9F041DFF88C8107792C2662
:109EA00006FB078682B096F82A30002B40F08780A8
:109EB0000C460546584900681646FFF7E1FE0028A3
:109EC00079D12368591C0CD001224FF0A04102FA2D
:109ED00003F3C1F80835236803F5E073032241F862
:109EE000232063685A1C06D003F5E0734FF0A042AC
:109EF000002142F823102B68A269C3F82425217D94
:109F0000637D2A680B43C2F86C35D4E900122B68D4
:109F1000C3F81425C3F80C15237D012B59D02C232D
:109F200003FB07F308EB03025660226948F803209D
:109F300076B32A68237F394C0021C2F81C11D2F86D
:109F40001C2100922A68009EC2F84411D2F84411E4
:109F50002A6801910199C2F804432A68120B51B290
:109F60005B010029DBB22EDB01F1604101F56141AB
:109F700081F8003329680A0B53B2002B09DB012159
:109F80005B09274C02F01F0201FA02F244F8232079
:109F900029682C2303FB0783002201250424C1F830
:109FA000004583F82A50C3E9062283F829205A6124
:109FB00002B0BDE8F081112002B0BDE8F0810820B8
:109FC00002B0BDE8F081174902F00F0211440B7690
:109FD000D0E7A368591C06D003F5E0734FF0A04208
:109FE000002142F82310E3685A1C0DD001224FF0E3
:109FF000A04102FA03F3C1F80835E36803F5E07302
:10A00000032241F82320E3682A68A168C2F80835D2
:10A01000C2F8101583E700BFD19C02008000020047
:10A0200000E100E0FCEC00E0103300202DE9F041FD
:10A03000314E05792C2303FB05630446586984B02F
:10A0400000284CD15A619960186283F82800226870
:10A05000C2F81C01D2F81C11226802910121029F52
:10A0600091602268D3F808C0C2F81C01D2F81C1114
:10A07000019101991F6A196A1CF807700131196270
:10A08000C2F81C755A6812B104B0BDE8F0815F696E
:10A090001A6A216897421BD9864602E093F8282065
:10A0A0000ABBD1F81C21002AF8D0C1F81CE1D1F874
:10A0B0001C210392039AD3F820801A6A1CF80880A6
:10A0C00001321A62C1F81C851A6A9742E9D82168E0
:10A0D000D1F81C31002BFBD00123CB6004E0112010
:10A0E00004B0BDE8F0810F202C2303FB056500239D
:10A0F0006B6104B0BDE8F081103300200379044A9D
:10A100002C2101FB03235869003018BF0120704740
:10A1100010330020F0B44D4F06792C2303FB067357
:10A1200086B05D6825B103684FF40174C3F8084335
:10A130002C2303FB06739C6934BB93F829509A6166
:10A14000D9605C62DC6185B90368C3F82451D3F837
:10A15000242103680192019AC3F80851D3F8082119
:10A1600003680292012202991A602C2303FB0673F2
:10A170000268596871B14FF40173C2F804330021C9
:10A18000084606B0F0BC7047DC69002C53D1196159
:10A19000DA61EAE7C2F84411D2F844210392039A43
:10A1A0000268D2F82441D2F80851D2F8441155B9C6
:10A1B000002933D1002CF4D02C2303FB0676002396
:10A1C000B3610321DCE7002CF6D149BB9C69C2F8DE
:10A1D000081184B1D2F808410494049CDD685C6ADB
:10A1E000D2F818252A555A6A9C6901325A625A6A6D
:10A1F0009442D5D806E0D2F808410594059CD2F8DF
:10A2000018255B6A2C2303FB0676002296F829307A
:10A21000B26163B1036801221A60B1E7002CCBD1AF
:10A220002C2303FB06760023B3610F21A8E7036804
:10A2300001225A60A4E735B103684FF40172C3F8F4
:10A24000042311219CE711219AE700BF103300205D
:10A25000F0B5554BD3F824218BB0002A73D00021E0
:10A26000C3F82411D3F82421049202228DF8182077
:10A27000049AD3F880044D4AC3F880040990D3F8B7
:10A280003C05D3680890C2E906110793116853682A
:10A2900006A89847444BD3F8442152B10021434AC1
:10A2A000C3F84411D3F8440191690390039800293D
:10A2B00038D13D4BD3F820215AB10021C3F82011E9
:10A2C000D3F8202102920120384A029CD8605069BC
:10A2D000D8B9354BD3F85821AAB10021C3F8581189
:10A2E000D3F85801314A01900198506958B1D3F818
:10A2F0004C05936808908DF818105161079306A8D3
:10A30000D2E9001398470BB0F0BDD3F84C05936821
:10A3100008908DF818105161079306A8D2E9001330
:10A320009847D6E7D3F83C35D16808930024002538
:10A33000012307918DF81830C2E90645D2E90013D0
:10A3400006A89847B5E7D3F810110029A2D0C3F8A2
:10A350001021D3F810111548059105998169D3F89A
:10A360003C458C4296D1C569C768D0E900168DB1CD
:10A37000D3F800C285612CF02005C261C3F80052F9
:10A380000369C3600122CDE907748DF8182006A87F
:10A39000B0477FE701238561CDE907748DF8183058
:10A3A00006A8B04776E700BF0020004040330020F9
:10A3B0002DE9F04307796D4E4FEAC70808EB070512
:10A3C00006EB850587B095F82030002B40F0A18082
:10A3D0000D460446664900689146FFF751FC002887
:10A3E00040F093802B68591C0CD001224FF0A04103
:10A3F00002FA03F3C1F808352B6803F5E073032272
:10A4000041F823206B685A1C06D003F5E0734FF027
:10A41000A042002142F823102368A969C3F824153B
:10A42000297D6A7D23680A43C3F86C25D5E900318C
:10A430002268C2F80C35C2F814152B7D012B72D09E
:10A4400008EB07029200B318C3F804902B69B350CD
:10A450002168B9F1000F47D000222B7FC1F81021ED
:10A46000D1F8101101912168DDF804C0C1F8202154
:10A47000D1F8201102912168DDF808C0C1F824212B
:10A48000D1F8241103912168DDF80CC0C1F84421F2
:10A49000D1F8441104912168DDF810C0C1F85821A9
:10A4A000D1F8581122680591324D0599C2F804532C
:10A4B0002268120B51B25B010029DBB22DDB01F1E6
:10A4C000604101F5614181F8003321680A0B53B204
:10A4D000002B09DB01215B09274D02F01F0201FA65
:10A4E00002F245F82320216808EB070306EB8303FB
:10A4F000002201250824C1F8004583F82050C3E953
:10A5000006225A6107B0BDE8F083112007B0BDE80C
:10A51000F083082007B0BDE8F083184902F00F026D
:10A5200011440B76D1E7AB68591C06D003F5E073F4
:10A530004FF0A042002142F82310EB685A1C0DD0C6
:10A5400001224FF0A04102FA03F3C1F80835EB688D
:10A5500003F5E073032241F82320EB682268A96821
:10A56000C2F80835C2F810156AE700BF4033002072
:10A5700051A202001003420000E100E0FCEC00E008
:10A5800001F06043B3F1005F2DD1F0B40579284E9E
:10A59000EF007C1906EB840482B06369002B3FD185
:10A5A0006261A1600268C2F82031D2F820C102685D
:10A5B000CDF804C0DDF804C0C2F85831D2F85821F3
:10A5C00000920268DDF800C0D4F814C0C2F8441547
:10A5D000C2F848C5026801219160626832B118462C
:10A5E00002B0F0BC7047102318467047026800E0C4
:10A5F000DBB9D2F82011D2F858310029F8D0A3B92C
:10A600000121D1600168D1F85821002AFBD03D44D6
:10A6100006EB850600221846726102B0F0BC704756
:10A620001123184602B0F0BC70470F23EFE700BFBC
:10A63000403300200379054A03EBC30302EB830395
:10A640005869003018BF0120704700BF4033002018
:10A6500001F06043B3F1005F75D1F0B40579464C69
:10A66000EB005E1904EB860682B0766826B10768B7
:10A670004FF4047CC7F808C32B4404EB83039D69A3
:10A68000002D41D19A61DD61D9600368C3F8105192
:10A69000D3F8106103680196019EC3F84451D3F8C2
:10A6A000445103680095009DC3F83415C3F838255C
:10A6B000036801221A6005790368EE00721904EB41
:10A6C000820252685AB14FF40472C3F80423002086
:10A6D00002B0F0BC704700293FD1002843D1D3F825
:10A6E0001021D3F84411D3F82401002AF3D03544C3
:10A6F00000284FF0000304EB850418BF03209942A3
:10A7000018BF0F20A361E3E7DD69F5B91961DA61CC
:10A710000368C3F81051D3F8106103680196019ED5
:10A72000C3F84451D3F8445103680095009DC3F821
:10A730003415C3F838250268D2F8003243F02003FC
:10A74000C2F80032B7E71020704796B103684FF4A3
:10A750000472C3F804231120BAE7354404EB8504DE
:10A760000F20A261B4E7354404EB85040320A16106
:10A77000AEE71120ACE700BF403300200220FEF717
:10A78000E9BC00BF2DE9F0470D460646FEF702FD85
:10A7900003281ED8012D04461DD075B1022D18D1F5
:10A7A0001C4B00EB40041C44657895B11A4B1B68A8
:10A7B0007BB12846BDE8F04718471848FDF75CF81C
:10A7C000144B174A04EB44010B44125D9D78AA42D6
:10A7D000EBD0BDE8F0870F4F4FEA400808EB0003CD
:10A7E000FA18FD5C53783BB9A04447440C4BBA7847
:10A7F0001A55002DEDD0D9E7DFF8289007484A46D2
:10A800004FF48041FCF7ECFF0028EDD189F800609F
:10A81000EAE700BFC8330020DC3300208833002083
:10A82000E43300206433002010B50078FEF7B2FC5A
:10A8300003280BD8064B00EB40001844407828B1A1
:10A84000044B1B6813B1BDE81040184710BD00BF92
:10A85000C8330020DC33002038B5C14D2B780446C6
:10A8600063B1C04B1B780020287023B3FEF73AFC7D
:10A870000120FEF737FC0320FEF734FC172C00F212
:10A880006C81DFE814F0E600FB00FB00A000B300E1
:10A89000C600D8004E001B0028001B0028005D00E9
:10A8A000640064006400640064008D0011012601EE
:10A8B000350057005700FEF721FCDFE7012318465B
:10A8C0002B70FEF747FC002240F26661A648BDE807
:10A8D0003840FCF785BF012318462B70FEF73AFC81
:10A8E00000224FF40051A048BDE83840FCF778BF83
:10A8F0009C4B1B78002B00F027810020FEF7F2FB19
:10A900000120FEF7EFFB0320FEF7ECFB0020FEF733
:10A91000DDFB0120FEF7DAFB944B15221A700025AF
:10A9200006E00020FEF7D2FB904B07221A700025AC
:10A93000284638BDFEF7F8FB8C4B00251C70F7E766
:10A94000FEF7F2FB894B0C221A700025F0E78848CD
:10A95000FCF792FFD4F11104054600F0E8800028CE
:10A9600040F0E580012C14D0C82303FB04F44FF41D
:10A970007A704FF400430021C3FB04014FF4FA62E4
:10A98000002303F0ABFC2A4601467948FCF728FF78
:10A9900005460220FEF79AFB724B01221A70C7E7A8
:10A9A000704B1B78002B00F0D2800020FEF79AFB42
:10A9B0000120FEF797FB0320FEF794FB6B4B12225E
:10A9C0001A700025B4E70020FEF772FB002840F063
:10A9D000A880FEF77BFB40F6CD41644B6248032420
:10A9E0001C700022BDE83840FCF7FABE0020FEF7DC
:10A9F0005FFB002840F08F80FEF768FB41F69A115C
:10AA00005A4B594804241C700022BDE83840FCF71A
:10AA1000E7BE0020FEF74CFB002878D1FEF756FB7E
:10AA2000524B514805241C70002240F6CD41BDE830
:10AA30003840FCF7D5BE0020FEF78CFB4B4B4A4854
:10AA400006241C70002240F26661BDE83840FCF725
:10AA5000C7BE444B1B78002B73D00020FEF742FB8F
:10AA60000120FEF73FFB0320FEF73CFB3E48FCF7CE
:10AA700003FF3E4B002205461A7059E70020FEF7FF
:10AA800017FB002839D1FEF721FB40F6CD4141F6F6
:10AA90009A13022C18BF1946344B33481C700022FD
:10AAA000BDE83840FCF79CBE2E4B1B78002B45D0F0
:10AAB0000020FEF717FB0120FEF714FB0320FEF732
:10AAC00011FB0020FEF702FB284B13221A70002511
:10AAD0002EE7244B1B78EBB30020FEF703FB01208D
:10AAE000FEF700FB0320FEF7FDFA0120FEF7EEFA69
:10AAF0001E4B14221A7000251AE70020FEF7F2FA06
:10AB0000022C47F2333118BF4FF48031C4E70020E4
:10AB1000FEF7E8FA84E70020FEF7E4FA4FF480310C
:10AB20006EE70020FEF7DEFA43F2333155E70220EC
:10AB3000FEF7D8FA0B4B00221A70F9E6FEF7DEFAA0
:10AB4000BFE7FEF7DBFA91E7FEF7D8FADEE6FEF79D
:10AB5000D5FA33E7FEF7D2FAC7E70025E8E600BFEB
:10AB6000D833002065330020A8330020E0330020D4
:10AB700068330020044B1B68DB0700D47047034B8D
:10AB80001878FFF769BE00BFD4330020E0330020FF
:10AB9000032801D900207047FEF7EEBA044B1B686A
:10ABA00013F0010301D118467047FFF755BE00BFEF
:10ABB000D433002038B5254B254A1960830710602F
:10ABC00000F0010402D44CBB204638BD214B224882
:10ABD0000E250F2210211D701125DA7099715D72FA
:10ABE00040F233320421FCF721FB054618B13CBB8F
:10ABF0002C46204638BDFCF779FB05460028F6D1E7
:10AC00000146164A1648FCF7DDFD0546002CEFD03C
:10AC10000120FEF7D7FA25B12C46EAE70120FEF71E
:10AC2000D1FA104A10480021FCF7CCFD0446002858
:10AC3000CAD10E4A0E480121BDE83840FCF7C2BD1A
:10AC40000120FEF7BFFA2C46D3E700BFDC3300201B
:10AC5000D4330020C833002054ED020029A802009C
:10AC600078ED020075AB02007CED02007DA70200CA
:10AC700074ED0200032807D8012A07D001291DD04E
:10AC80004BB28BB1022908D007207047012912D09E
:10AC900001294FF00002F3D110E00B4B00EB400014
:10ACA000034400205A707047074900EB40000144FC
:10ACB00018468A70704700F10E02D2B200EB4003D2
:10ACC00001490020CA547047C8330020032801D925
:10ACD0000620704708B5FEF76FFA800000F1A04328
:10ACE0000020D3F8002722F44032C3F80027D3F81D
:10ACF000002742F44032C3F8002708BD10B503888E
:10AD0000102B07D0112B04D1254B1868013818607F
:10AD100030B110BD224C216811B30131216010BD4A
:10AD200001220221FFF7A6FF40B1072806D01D4BE4
:10AD30001B68002BEDD0BDE8104018470722022108
:10AD40000120FFF797FF08B10728F0D1002108463E
:10AD50000A22FFF78FFF0028DBD00728E7D1D8E7CA
:10AD600001220846FFF786FF38B1072805D00D4BB2
:10AD70001B6803B198472168CFE707220221012011
:10AD8000FFF778FF08B10728F1D104220221002043
:10AD9000FFF770FF0028EED00728E8D1EBE700BFEF
:10ADA000EC330020E833002008B50020FFF78EFFC9
:10ADB00010B1062800D008BD0120FFF787FF00284A
:10ADC000F9D0062808BF002008BD00BF184B10B5F9
:10ADD000186031B101200C46FFF7DAFEF8B102230A
:10ADE0002370144B186808B1002010BD0122022105
:10ADF000FFF740FF08B10728F7D107220221012001
:10AE0000FFF738FF08B10728EFD1002108460A22D2
:10AE1000FFF730FF0028E7D00728E5D010BDFFF787
:10AE2000B7FE10B10B232370DBE72070D9E700BF1A
:10AE3000E8330020EC33002076DF70477ADF70477C
:10AE40007CDF70477FDF70478FDF7047B1DF70476F
:10AE500033DF7047FCF760BA10B50388103B82B04F
:10AE60000446462B3DD8DFE803F0245A3C6A3C3CBC
:10AE70003C3C3C3C3C3C3C3C3C3C3C463C3C3C3C08
:10AE80003C3C3C3C3C3C3C3C3C3C3C3C3C3C3C3C02
:10AE90003C3C3C3C3C3E3C3C3C3C3C3C3C3C3C3CF0
:10AEA0003C3C3C3C3C3C3C3C3C3C3C3C503C3C3CCE
:10AEB0003E00294B29482A49C01AC008000440F026
:10AEC0000300FBF74FFC0720FFF768FE002840D186
:10AED000244BA1882448198001F0CEFD08B1FCF76D
:10AEE0001BFA02B010BD80881321FFF7A5FF0028D0
:10AEF000F5D102B010BD00238088ADF8043001A95F
:10AF0000FFF7A2FF0028ECD0E9E7164A00231088DB
:10AF100019461A46FFF79AFF0028E2D0DFE70E4BEA
:10AF20000E481249C01AC008000440F00300FBF7A5
:10AF300019FC0C4B4FF6FF721A8002B010BD094A83
:10AF40000023108885211A46FFF77CFF0028C8D00F
:10AF5000C5E7FCF7E1F9BBE7C0F40200E8F4020042
:10AF600098ED0200062B002034390020A4ED0200E9
:10AF70000E4B4A881B889A4200D070470A8840F6D8
:10AF800077239A42F9D130B4094B0A488C880A4D8C
:10AF90000A49181A033CC008A4B2000423462246FA
:10AFA0002C8040F0030030BCFBF77EBD062B002058
:10AFB000E8F40200C0F40200042B0020B4ED02000B
:10AFC00008B5037803B108BD054B3B211888FFF78E
:10AFD00033FF0028F7D0BDE80840FCF79DB900BF5B
:10AFE000062B0020042808B508D0072805D10D4BF2
:10AFF0001A884FF6FF739A420CD008BD094B1321F3
:10B000001888FFF719FF30F00803F6D0BDE80840B4
:10B01000FCF782B9044801F003F830F00803F5D1D9
:10B0200008BD00BF062B0020E8340020F0B50378EF
:10B03000012B83B004D043B1022B01D003B0F0BD8B
:10B040004068FCF769F903B0F0BD194C194D207840
:10B050002844FCF73BFD22780132D2B2154422701D
:10B0600015F8013C0A2B05D00D2B03D0124B1B8881
:10B070009342E3D8012A12D9104F0E4E104DADF86D
:10B0800006203B880DF106023146284601F092FE6B
:10B09000082804D0132806D0052800D028B900239A
:10B0A000237003B0F0BD2278E9E7FCF735F9F6E745
:10B0B000E4340020F0330020042B0020062B002075
:10B0C000082B00202DE9F0410578D5B9838A064682
:10B0D0007BB3194F194BDFF86880FF1AFF083F0454
:10B0E00047F001073369585DFCF71EFD0446A8B917
:10B0F000B38A0135AB42F5D8013B3269D35C0D2BE5
:10B1000001D0BDE8F0810A20FCF70EFD1128F8D12E
:10B110000A20FCF709FD1128F5D0F2E7112C0246B0
:10B1200041463846DED0FBF7EBFB2046FCF7F4F84F
:10B13000DEE74FF0FF33E0E7E8F40200C0F402007E
:10B1400018EE020008B530B1032803D10220FFF742
:10B1500025FD50B908BDFFF721FD50B9FFF724FECA
:10B1600068B9FFF775FE0028F4D0BDE80840FCF789
:10B17000D3B8FCF7D1F8FFF717FE0028F1D0FCF7A1
:10B18000CBF8EEE7FCF7C8B808B50B490B4801F05F
:10B190005DFB28B9F721094801F070FB40B908BDF3
:10B1A000FCF7BAF8F721054801F068FB0028F6D053
:10B1B000BDE80840FCF7B0B871AF02001C390020B0
:10B1C00000B58B4B4FF0A0420324C2F82047B1B02A
:10B1D000C3F800470120C3F80447C3F80847C3F881
:10B1E0000C47C3F81047C3F81447C3F81847FDF7D6
:10B1F000E9FF20467F49FFF7DDFC002840F0CA80C8
:10B2000004A90020FFF7E2FD002840F0ED807A4D10
:10B210007A4B00930FCD04AC0FC495E80300784D32
:10B22000784A84E8030007234FF48074694604A831
:10B230000194CDE90254FCF7CFFB002840F0D18007
:10B240004FF480410020FBF70DF9002840F0C68044
:10B25000FBF7F8F8FCF780FA002840F0BC8001F01A
:10B26000E1FD002840F0B480002304A901200493EC
:10B2700001F0B8FE002840F0A88004A801F092FF79
:10B28000002840F09F8011235F488DF8003002F0C5
:10B290006DF85D4982B26846FFF7D2FD002840F0A4
:10B2A0008E800822002104A802F038F8574B04933E
:10B2B00004A84FF0C8730593FFF7C0FD00287BD1A9
:10B2C000FFF762FF524B5348049304A901F0C2FBFD
:10B2D00000286ED100210422684602F01FF84E4B70
:10B2E0004E480093694601F0F5FC00285ED1AC227F
:10B2F000002104A802F012F8494C4A4A189402218D
:10B300004FF4A06001238DF81010ADF81200402416
:10B3100044F2506504A94448ADF85C308DF88C3097
:10B32000CDE926452D9200F0ADFD00283BD101214D
:10B330003D4800F0A3FD1C22002104A801F0EEFF0F
:10B3400000233A4A0493ADF81E308DF82030384B74
:10B350004FF4A0354FF4F024032104A8CDE905549F
:10B360008DF81C10CDE9092300F0C4FFC0B93148A5
:10B3700001F0DCFF304B31483149C01AC0080004ED
:10B3800040F00300FBF7EEF90321274800F0FEFD33
:10B3900018B9FEE7FBF7C0FF32E7FBF7BDFFF8E7A0
:10B3A000FBF7BAFFE3E7FBF7B7FFC0E7FBF7B4FF34
:10B3B0009DE7FBF7B1FF8DE7FBF7AEFF80E7FBF7FB
:10B3C000ABFF6EE7FBF7A8FF5DE7FBF7A5FF54E7D0
:10B3D000FBF7A2FF48E7FBF79FFF40E7FBF79CFF67
:10B3E00036E7FBF799FF2BE7FBF796FF0FE700BF68
:10B3F00024000050E5AF020080ED0200403900203B
:10B40000403A00202DB00200D0ED020010003C00B8
:10B4100055AE020034390020C5B00200082B0020D0
:10B42000002B002045B10200E8340020C1AF02002B
:10B4300085B10200D8ED0200C0F40200E8F4020079
:10B44000ECED02002DE9F04F4400DFF870B1261852
:10B450000BEBC60683B0F76A012F80468A469146F9
:10B4600042D0002F63D0022F39D100F1010808EB40
:10B470004808756A4FEAC8080027B36A346AAB42C5
:10B4800003F1FF329CBF1B1903F1FF33A4EB05044A
:10B490008CBF531B5B1B0BEB08024C4528BF4C4673
:10B4A0009C42506828BF1C4628445146224601F061
:10B4B00027FF336A25449D422744A9EB0409A2448F
:10B4C00007D07562B9F1000FD7D1384603B0BDE897
:10B4D000F08F00257562B9F1000FCED1F5E7002796
:10B4E000384603B0BDE8F08FD6E90835B76AAF42F9
:10B4F00098BFFF18461C013F06EB46067F1B0BEB6F
:10B50000C606974228BF17467068A3EB05094F454A
:10B5100028442DD23A4601F0F3FEA0440BEBC80BB1
:10B520003D443846CBF8245003B0BDE8F08FB36AF1
:10B53000756AAB429CBF316A5B18013B5B1B9A4248
:10B54000C3D8044400F101080BEBC40408EB48081D
:10B550000BEBC80B236ADBF804005E1BB2422844E5
:10B5600015441BD2514601F0CBFE4F466562ACE755
:10B570004A46019301F0C4FE019B7068ED1A3D44F8
:10B580000AEB09012A4601F0BBFEA0440BEBC80BF5
:10B590003846CBF8245003B0BDE8F08FED1A3246A0
:10B5A000514601F0ADFE0AEB0601DBF804002A4625
:10B5B00001F0A6FE4F46656287E700BF443E0020CB
:10B5C00038B5114C114B1248E36110254FF400734C
:10B5D000104A11492362E06400232565E01D02251D
:10B5E000A3626362E362A3656365E365A261A2642B
:10B5F000C4E9045501F0B2FE2046084901F0AEFE50
:10B600002023A37138BD00BF443E0020503B0020E2
:10B61000403B002044EE020050EE020054EE0200D7
:10B620006DDF704779DF70477DDF704764DF7047FB
:10B630002DE9F04F87B00488119DDDF840A02E88D9
:10B640000396BDF848600196002C56D04FF00009D3
:10B650001E460292884607464C4603E03A8801346B
:10B6600094422BDAD8F8003053F8240005900022D9
:10B670000DF1130105A8FFF7D9FF834650BB9DF8D4
:10B680001320B242EAD12A889119B9F1000F25D0CE
:10B69000019B8B4237DB52440DF1130105A84FF09B
:10B6A0000109FFF7C3FF002833D129889DF8132033
:10B6B0000A442A803A8801349442D3DBB9F1000F5E
:10B6C0001BD02A88039B013AD21A92B2FF2A1AD8B9
:10B6D0000AF80320584607B0BDE8F08F019B0231FD
:10B6E00001328B4292B20EDB029B2A800AF80230B2
:10B6F0002A88013292B22A80CDE74FF0000B5846DB
:10B7000007B0BDE8F08F4FF00C0B584607B0BDE80E
:10B71000F08F8346584607B0BDE8F08F2DE9F0471B
:10B7200000231788138090F82D3088B01446054602
:10B730000E46002B40F0FF80AA78002A40F0F480EB
:10B74000E978A1B1DA1CBA4200F2F1800222F25487
:10B75000238801339BB201222380F25423881344AF
:10B760009BB22380F154238813449BB223806A68E0
:10B77000AAB1D91CB94200F2DA80022192F9002064
:10B78000F154238801339BB20A212380F15423888A
:10B7900001339BB22380F2542388013323802B8909
:10B7A000002B40F0F2802B8A002B40F027812B8B5E
:10B7B000002B40F08F812B6A002B44D02088821D03
:10B7C000BA4200F2B4801A88052A40F27F816FF4F1
:10B7D000486802EB080189B24FF27D3C614540F2B6
:10B7E00075815988052940F271816FF4486E8E4445
:10B7F0001FFA8EFEE64540F269814FF6FF7C6245F6
:10B8000004D0614502D08A4200F2608105223254A0
:10B810002288013292B212212280B1542288013250
:10B8200092B222801988B1543244090A5170228898
:10B83000023292B222805B88B35432441B0A5370A6
:10B840002388023323806B6A002B2FD09988B4F8A9
:10B8500000C0881C0CF102020244BA4267D8FE28DC
:10B8600065D8033106F80C102288013292B2FF210C
:10B870002280B1542288013292B222801988B154B8
:10B880003244090A51702088023080B220809A88A0
:10B8900062B199680593002900F01881304401F0E5
:10B8A0002FFD059B9A8823881344238095F82C301C
:10B8B000002B40F0BF802878002839D02B88012B3E
:10B8C00000F0048123889A1CBA4230D8012804D1A0
:10B8D0006978023119448F4229D3023FFF1ABFB25F
:10B8E000B01806A9ADF81870FFF79EFE00BB2A78C5
:10B8F000BDF81830022A00F00F8169789942C0F033
:10B9000006819F42C0F003810921FE2B0FD82288B7
:10B910005D1CB5542288013292B22280B154228833
:10B9200001321344238003E00433BB4249D90C2085
:10B9300008B0BDE8F087082FF9D906A8FFF770FE18
:10B940000028F5D123880822F254238801339BB2C2
:10B950001B222380F2542088013080B220800622EE
:10B9600030440DF1190101F0CBFC23889DF818201B
:10B9700006339BB212F0FE0218BF01222380F2545C
:10B98000238801339BB22380D6E605F1080805F130
:10B990000C090223CDE901470096404649461A4664
:10B9A000FFF746FE0028C3D1CDE90147009649467E
:10B9B000404610230622FFF73BFE00283FF4F3AE7B
:10B9C000B6E706A8FFF72EFE0028B1D12388BDF800
:10B9D00018200321F154238801339BB219212380BD
:10B9E000F154238801339BB2F1182380F254120AD8
:10B9F0004A70238802339BB22380A1E605F1100828
:10BA000005F11409CDE90147009640464946022355
:10BA10000322FFF70DFE00288AD1CDE901470096E9
:10BA20004946404610230722FFF702FE00283FF454
:10BA3000BEAE7DE7D5F82880B8F1000F46D0B8F843
:10BA400004200232FE2A3FF672AF23884FF000092D
:10BA50004FF0160A08E0AA6A02EB8808B8F804203A
:10BA60000232FE2A3FF663AF0132F25423880133DB
:10BA70009BB2238006F803A0238801339BB2238066
:10BA8000B8F80020F2543344120A5A702388023363
:10BA90009BB22380B8F80410F0180A4659B1D8F8C0
:10BAA0000830194693B101F02BFCB8F80420238824
:10BAB00013449BB2238009F1010995F82C205FFA09
:10BAC00089F94A4509EB4908C5D8F4E6072008B0CA
:10BAD000BDE8F08705F1180805F11C09CDE901471B
