:1000000000000120B5020000DD020000DF02000058
:10001000E1020000E3020000E50200000000000031
:10002000000000000000000000000000E7020000E7
:10003000E902000000000000EB020000ED020000F9
:10004000EF020000EF02000035080000EF020000A0
:10005000EF020000EF020000EF020000EF020000DC
:10006000EF020000EF020000EF020000EF020000CC
:10007000EF020000EF020000EF020000EF020000BC
:10008000EF020000EF020000EF020000EF020000AC
:10009000EF020000EF020000EF020000EF0200009C
:1000A000EF020000EF020000EF020000EF0200008C
:1000B000EF020000EF02000000000000000000005E
:1000C000EF020000EF020000EF020000EF0200006C
:1000D000EF020000EF020000EF020000000000004D
:1000E0000000000000000000000000000000000010
:1000F0000000000000000000000000000000000000
:1001000000000000000000000000000000000000EF
:1001100000000000000000000000000000000000DF
:1001200000000000000000000000000000000000CF
:1001300000000000000000000000000000000000BF
:1001400000000000000000000000000000000000AF
:10015000000000000000000000000000000000009F
:10016000000000000000000000000000000000008F
:10017000000000000000000000000000000000007F
:10018000000000000000000000000000000000006F
:10019000000000000000000000000000000000005F
:1001A000000000000000000000000000000000004F
:1001B000000000000000000000000000000000003F
:1001C000000000000000000000000000000000002F
:1001D000000000000000000000000000000000001F
:1001E000000000000000000000000000000000000F
:1001F00000000000000000000000000000000000FF
:1002000010B5054C237833B9044B13B10448AFF350
:1002100000800123237010BD880000200000000032
:100220004C28000008B5034B1BB103490348AFF34A
:10023000008008BD000000008C0000204C28000059
:10024000154B002B08BF134B9D46A3F5803A0021A8
:100250008B460F461348144A121A01F0A3FA0F4BAB
:10026000002B00D098470E4B002B00D09847002061
:10027000002104000D000D48002802D00C48AFF307
:10028000008001F06BFA2000290001F057F801F01E
:1002900051FA00BF0000080000000120000000002B
:1002A000000000008800002058030020000000002B
:1002B000000000000649074A074B9B1A03DD043B78
:1002C000C858D050FBDC01F0A9F8FFF7B9FF0000D7
:1002D000582800000000002088000020FEE7FEE70C
:1002E000FEE7FEE7FEE7FEE7FEE7FEE7FEE7FEE7E6
:1002F000C20730B41AD54FF0A0430322C3F84427F5
:100300004FF40035C3F848274FF48024C3F84C2736
:100310004FF40021C3F850274FF48012C3F808555A
:10032000C3F80845C3F80815C3F8082583070AD59C
:100330004FF0A0430C22C3F83427C3F83827C3F882
:100340003C27C3F8402730BC704700BF00B585B0DC
:1003500000230390194601AA44F20100CDE90133BC
:1003600000F004F805B05DF804FB00BF72B6094B5D
:100370001B68DB0700D500BEBFF34F8F0649074B54
:10038000CA6802F4E0621343CB60BFF34F8F00BF33
:10039000FDE700BFF0ED00E000ED00E00400FA052D
:1003A00059B142B1531E1A4005D182600160838069
:1003B000C26010467047092070470E20704700BF8A
:1003C00010B48468C26803468088121B904203D22E
:1003D00004205DF8044B7047DA681C680240002076
:1003E000A154DA680132DA605DF8044B704700BF4F
:1003F00003468068DA6890420DD010B498689A88F5
:100400001C6802400020A25C0A709A6801329A605F
:100410005DF8044B70470520704700BF30B5047885
:10042000012C83B026D0B4B1022C12D1384B394DF7
:100430001A78C168AA5C01918DF80040002A3FD06B
:10044000181D0122344900F0D9FE344B68461B6860
:10045000984703B030BD32493248FFF7C9FF002842
:1004600035D02E4B03221B688DF800206846984734
:1004700003B030BD037AC3B143682B4D19782846C9
:10048000FFF79EFF002831D0244B01908DF80040EB
:100490001B6868469847A968EB68AA885B1A9A4265
:1004A00003D2224B01221A70D3E7194B194A1B7849
:1004B0001949D35C0122ABB11D4800F09FFEC8E78B
:1004C00003F10C000122144900F0FAFBBDE71048CB
:1004D000104A0378D35CA3B101221149043000F023
:1004E00025FEB6E7134800F0EBFBB2E7AA68EB681D
:1004F0009A42D0D0094B8DF800001B686846984797
:10050000C9E7012206490C3000F066FBA1E700BFF5
:100510000000002048030020CC000020A4000020A0
:10052000D0000020BC000020A8000020B80000205F
:10053000040000200C0000202DE9F045324C89B069
:100540002260002954D00C4680468A882F480968CA
:100550009A46FFF725FF10B109B0BDE8F085A289E2
:10056000A1682B48FFF71CFF0028F5D1294D98F80A
:1005700010C0294ED8F814700FCD6C460FC495E802
:100580000F0098F811501CF1000C18BF4FF0010C2F
:10059000002D84E80F00D8F80850D8F80C40D8F89F
:1005A0000430069714BF0E2200228DF81520D8F8CB
:1005B00000701A4A8DF81CA0694630468DF814C0A8
:1005C0000197CDE90245009300F0F6F80028C3D169
:1005D000D8F80030124A01331070BDD0114A337878
:1005E000D35C4BB1301D01220F4900F007FEB3E789
:1005F000072009B0BDE8F08506F10C0001220A4988
:1006000000F05EFBA8E700BFA4000020A8000020C7
:10061000BC00002054270000000000201D04000042
:10062000B800002048030020CC00002070B5114C19
:10063000014611482678FFF7DBFE05460EB928462D
:1006400070BD0E480E4A0378D35C0022227053B16D
:10065000043001220B4900F0D1FD0028EFD0FFF754
:1006600075FE284670BD012206490C3000F028FBBB
:10067000F3E700BFB8000020A80000200000002021
:1006800048030020CC00002070B501461548FFF754
:1006900097FE044608B1204670BD134D134E2B78CB
:1006A000F35CA3B1281D00F09BFD0028F3D1104995
:1006B0000C48FFF79DFE0028EDD12B780C49F35C28
:1006C00001224BB10B48BDE8704000F02FBD05F191
:1006D0000C0000F0E9FAE8E70748BDE8704000F0D8
:1006E0007BBA00BFBC0000200000002048030020AF
:1006F000D0000020040000200C00002072B6024A46
:100700001368013313607047D4000020034A136854
:10071000013B136003B962B6704700BFD4000020EC
:1007200070B5161E07DD0C468D1914F8010BFFF786
:10073000ABFFA542F9D1304670BD00BF10B50C46E5
:100740002046FFF773FF0528FAD0012010BD00BF37
:1007500030B585B0047845688DF80040D0E9024096
:10076000064A074B039053F8213001958DF8084055
:1007700052F821106846984705B030BDD8000020D7
:10078000DC00002030B585B0047845688DF8004065
:10079000D0E90240064A074B039053F821300195F7
:1007A0008DF8084052F821106846984705B030BDD2
:1007B000D8000020DC000020F0B5194B0678194D58
:1007C0000C6991F81DE045F826408446164803F868
:1007D00006E040F826200C4617460FCC89B06D463F
:1007E0000FC594E80F0085E80F000496BEF1000FD6
:1007F0000AD0002F0D4A69460CF1040008BF3A46A2
:1008000000F0ACFB09B0F0BD002F094A69460CF1BD
:100810000C0008BF3A4600F013F909B0F0BD00BF64
:1008200048030020D8000020DC0000205107000011
:1008300085070000014B1B68184700BFE00000203F
:1008400038B50C4B984213D100200D46FFF756FFE8
:10085000094B1C7924B10020FFF758FF112038BD47
:10086000012220461D601A71FFF750FF204638BD57
:10087000002038BD00200040E000002030B56E4A66
:10088000D2F8043399058BB066D5D2F82431002B09
:1008900062D00023C2F82431D2F8243101934FF4FE
:1008A0000171664B0198C2F8081393F8291009B931
:1008B00001215160604902228DF81820D1F880246E
:1008C000C1F880249869D96809920022CDE90710FF
:1008D000C3E90622D3E9001406A8A047564AD2F875
:1008E0001C31C3B1554B5869196A884269D993F8CC
:1008F000281001F0FF00002963D1C2F81C01D2F8D2
:100900001C11039103999C68186A196A205C0131D3
:100910001962C2F81C05484AD2F84431D3B100210B
:10092000464BC2F84411D2F8440193F829100090C4
:10093000009800295CD19A6962B10022586AD9688E
:100940009A610122CDE907108DF8182006A8D3E995
:10095000001290470BB030BD374AD2F804335B0722
:10096000BCD5D2F80831002BB8D0344B9969002996
:1009700041D00021C2F80811D2F80811049104995D
:10098000D868596AD2F8182542545A6A99690132CE
:100990005A625A6A8A42A1D1DA691968002A33D0A8
:1009A000D8685D6A1C699A61079000220120DC60AA
:1009B000DA615A628DF8180008955B6806A89847B6
:1009C0008CE71D4A0021C2F81C11D2F81C210292AA
:1009D000029A5A69002A9ED058699A688DF81810B0
:1009E00008905961079206A8D3E90012904792E750
:1009F000012111609FE7C2F80811D2F808010590A3
:100A00000598D2F81825C4E793F8292012B90A4AA4
:100A100001205060084A4FF40170C2F80803586A78
:100A2000DA6808900024012007928DF818005A68AF
:100A30009C6106A8904751E700200040E800002094
:100A40002DE9F041DFF88C8107792C2606FB07861B
:100A500082B096F82A30002B40F087800C4605467D
:100A6000584900681646FFF7EBFE002879D1236845
:100A7000591C0CD001224FF0A04102FA03F3C1F837
:100A80000835236803F5E073032241F823206368E7
:100A90005A1C06D003F5E0734FF0A042002142F843
:100AA00023102B68A269C3F82425217D637D2A6861
:100AB0000B43C2F86C35D4E900122B68C3F8142537
:100AC000C3F80C15237D012B59D02C2303FB07F30E
:100AD00008EB03025660226948F8032076B32A68BF
:100AE000237F394C0021C2F81C11D2F81C2100923E
:100AF0002A68009EC2F84411D2F844112A68019174
:100B00000199C2F804432A68120B51B25B01002913
:100B1000DBB22EDB01F1604101F5614181F8003368
:100B200029680A0B53B2002B09DB01215B09274C12
:100B300002F01F0201FA02F244F8232029682C2354
:100B400003FB0783002201250424C1F8004583F834
:100B50002A50C3E9062283F829205A6102B0BDE871
:100B6000F081112002B0BDE8F081082002B0BDE89C
:100B7000F081174902F00F0211440B76D0E7A36809
:100B8000591C06D003F5E0734FF0A042002142F853
:100B90002310E3685A1C0DD001224FF0A04102FA45
:100BA00003F3C1F80835E36803F5E073032241F865
:100BB0002320E3682A68A168C2F80835C2F8101536
:100BC00083E700BF7D0800008000020000E100E034
:100BD000FCEC00E0E80000202DE9F041314E057901
:100BE0002C2303FB05630446586984B000284CD1CC
:100BF0005A619960186283F828002268C2F81C01C3
:100C0000D2F81C11226802910121029F9160226892
:100C1000D3F808C0C2F81C01D2F81C110191019947
:100C20001F6A196A1CF8077001311962C2F81C7535
:100C30005A6812B104B0BDE8F0815F691A6A216890
:100C400097421BD9864602E093F828200ABBD1F8C8
:100C50001C21002AF8D0C1F81CE1D1F81C21039214
:100C6000039AD3F820801A6A1CF8088001321A62AD
:100C7000C1F81C851A6A9742E9D82168D1F81C315D
:100C8000002BFBD00123CB6004E0112004B0BDE8B1
:100C9000F0810F202C2303FB056500236B6104B05A
:100CA000BDE8F081E80000200379044A2C2101FB13
:100CB00003235869003018BF01207047E800002066
:100CC000F0B44D4F06792C2303FB067386B05D68A4
:100CD00025B103684FF40174C3F808432C2303FBC8
:100CE00006739C6934BB93F829509A61D9605C62A1
:100CF000DC6185B90368C3F82451D3F82421036863
:100D00000192019AC3F80851D3F8082103680292AE
:100D1000012202991A602C2303FB067302685968AA
:100D200071B14FF40173C2F804330021084606B0D4
:100D3000F0BC7047DC69002C53D11961DA61EAE735
:100D4000C2F84411D2F844210392039A0268D2F8FF
:100D50002441D2F80851D2F8441155B9002933D1B1
:100D6000002CF4D02C2303FB06760023B36103216F
:100D7000DCE7002CF6D149BB9C69C2F8081184B1AC
:100D8000D2F808410494049CDD685C6AD2F8182506
:100D90002A555A6A9C6901325A625A6A9442D5D8D5
:100DA00006E0D2F808410594059CD2F818255B6A44
:100DB0002C2303FB0676002296F82930B26163B13A
:100DC000036801221A60B1E7002CCBD12C2303FB6E
:100DD00006760023B3610F21A8E7036801225A6059
:100DE000A4E735B103684FF40172C3F8042311215D
:100DF0009CE711219AE700BFE8000020F0B5554BB1
:100E0000D3F824218BB0002A73D00021C3F8241119
:100E1000D3F82421049202228DF81820049AD3F8E2
:100E200080044D4AC3F880040990D3F83C05D36888
:100E30000890C2E9061107931168536806A89847FD
:100E4000444BD3F8442152B10021434AC3F8441122
:100E5000D3F84401916903900398002938D13D4BA0
:100E6000D3F820215AB10021C3F82011D3F8202152
:100E700002920120384A029CD8605069D8B9354B9B
:100E8000D3F85821AAB10021C3F85811D3F858015A
:100E9000314A01900198506958B1D3F84C059368D4
:100EA00008908DF818105161079306A8D2E9001335
:100EB00098470BB0F0BDD3F84C05936808908DF8B7
:100EC00018105161079306A8D2E900139847D6E796
:100ED000D3F83C35D16808930024002501230791FD
:100EE0008DF81830C2E90645D2E9001306A89847E4
:100EF000B5E7D3F810110029A2D0C3F81021D3F818
:100F000010111548059105998169D3F83C458C422B
:100F100096D1C569C768D0E900168DB1D3F800C273
:100F200085612CF02005C261C3F800520369C360DB
:100F30000122CDE907748DF8182006A8B0477FE795
:100F400001238561CDE907748DF8183006A8B047F4
:100F500076E700BF00200040180100202DE9F04393
:100F600007796D4E4FEAC70808EB070506EB8505C4
:100F700087B095F82030002B40F0A1800D46044644
:100F8000664900689146FFF75BFC002840F09380BB
:100F90002B68591C0CD001224FF0A04102FA03F338
:100FA000C1F808352B6803F5E073032241F82320CC
:100FB0006B685A1C06D003F5E0734FF0A042002185
:100FC00042F823102368A969C3F82415297D6A7D96
:100FD00023680A43C3F86C25D5E900312268C2F8BA
:100FE0000C35C2F814152B7D012B72D008EB0702CB
:100FF0009200B318C3F804902B69B3502168B9F17B
:10100000000F47D000222B7FC1F81021D1F810111A
:1010100001912168DDF804C0C1F82021D1F8201128
:1010200002912168DDF808C0C1F82421D1F824110B
:1010300003912168DDF80CC0C1F84421D1F84411B6
:1010400004912168DDF810C0C1F85821D1F8581179
:1010500022680591324D0599C2F804532268120B9B
:1010600051B25B010029DBB22DDB01F1604101F5DA
:10107000614181F8003321680A0B53B2002B09DB70
:1010800001215B09274D02F01F0201FA02F245F827
:101090002320216808EB070306EB830300220125C8
:1010A0000824C1F8004583F82050C3E906225A619C
:1010B00007B0BDE8F083112007B0BDE8F083082039
:1010C00007B0BDE8F083184902F00F0211440B7617
:1010D000D1E7AB68591C06D003F5E0734FF0A0428E
:1010E000002142F82310EB685A1C0DD001224FF06A
:1010F000A04102FA03F3C1F80835EB6803F5E07389
:10110000032241F82320EB682268A968C2F8083559
:10111000C2F810156AE700BF18010020FD0D00009D
:101120001003420000E100E0FCEC00E001F060434D
:10113000B3F1005F2DD1F0B40579284EEF007C1992
:1011400006EB840482B06369002B3FD16261A16029
:101150000268C2F82031D2F820C10268CDF804C07C
:10116000DDF804C0C2F85831D2F858210092026864
:10117000DDF800C0D4F814C0C2F84415C2F848C560
:10118000026801219160626832B1184602B0F0BC79
:101190007047102318467047026800E0DBB9D2F8A8
:1011A0002011D2F858310029F8D0A3B90121D1601B
:1011B0000168D1F85821002AFBD03D4406EB850692
:1011C00000221846726102B0F0BC70471123184625
:1011D00002B0F0BC70470F23EFE700BF18010020FA
:1011E0000379054A03EBC30302EB8303586900301C
:1011F00018BF0120704700BF1801002001F06043B4
:10120000B3F1005F75D1F0B40579464CEB005E197F
:1012100004EB860682B0766826B107684FF4047C3A
:10122000C7F808C32B4404EB83039D69002D41D10B
:101230009A61DD61D9600368C3F81051D3F8106179
:1012400003680196019EC3F84451D3F844510368E2
:101250000095009DC3F83415C3F8382503680122B2
:101260001A6005790368EE00721904EB8202526875
:101270005AB14FF40472C3F80423002002B0F0BC4A
:10128000704700293FD1002843D1D3F81021D3F86B
:101290004411D3F82401002AF3D0354400284FF03C
:1012A000000304EB850418BF0320994218BF0F20E8
:1012B000A361E3E7DD69F5B91961DA610368C3F891
:1012C0001051D3F8106103680196019EC3F8445190
:1012D000D3F8445103680095009DC3F83415C3F852
:1012E00038250268D2F8003243F02003C2F80032F9
:1012F000B7E71020704796B103684FF40472C3F843
:1013000004231120BAE7354404EB85040F20A261C1
:10131000B4E7354404EB85040320A161AEE7112056
:10132000ACE700BF180100200378022B02D0012B8C
:1013300000D070474068FFF709B800BFF0B5012042
:101340008BB0304DFEF7D4FF2F4B00930FCD04AC84
:101350000FC495E803002D4D2D4A84E803000723B0
:101360004FF48074694604A80194CDE90254FFF754
:10137000E3F8002842D14FF0A0472648264D00F060
:1013800019FA03234FF40032C7F844374FF4002111
:10139000C7F80C250022C7F84C37C7F80C150A23EC
:1013A000CDF80220ADF806204FF486712A2245F0D0
:1013B0000105ADF800108DF802308DF806308DF87B
:1013C000052002AE6C462078FFF75EF90028FAD1BE
:1013D0000134A642F7D1D7F80435DA4302F40022EB
:1013E00003F40023C7F808254FF47A74C7F80C35C6
:1013F0004FF47A40A847013CFAD1E3E7FEF7A6FF95
:10140000B9E700BF742700003C0100203C02002027
:1014100029130000982700009027000030B4AC4B3F
:101420001B68591C04BFAB4B1B78062B05D1AA4B7C
:10143000AA4A1B68C3F304231360A64B1B78062B30
:1014400000F0E780A24B1B685A1C04BFA14B1B781D
:10145000062B05D1A24BA34A1B68C3F3423313608A
:101460009C4B1B78062B00F0C780994B1B685D1CBA
:1014700004BF984B1B78062B08D14FF08043002205
:10148000C3F80C21C3F81021C3F83825914B1B7801
:10149000062B00F09B808E4B1A68541C1FD0924B79
:1014A000062A1B6823D0914AD2F8883043F470038F
:1014B000C2F88830BFF34F8FBFF36F8F4FF0102308
:1014C000D3F80022002AC0F2D280D3F80432002BD5
:1014D000C0F2CD80864B874A1A6030BC70477D4988
:1014E000854B09781B680629DDD1C3F30313033B41
:1014F000012B48D94FF08052804BD2F80414C3F826
:101500002015D2F80814C3F82415D2F80C14C3F827
:101510002815D2F81014C3F82C15D2F81414C3F8F7
:101520003015D2F81814C3F83415D2F81C14C3F8C7
:101530004015D2F82014C3F84415D2F82414C3F887
:101540004815D2F82814C3F84C15D2F82C14C3F857
:101550005015D2F83014C3F85415D2F83414C3F827
:101560006015D2F83814C3F86415D2F83C14C3F8E7
:101570006815D2F840145648C3F86C15D2F84414D4
:101580000268C3F87015501C6CD0062A8BD15C4BD6
:101590004F4A1B685B49126803F04F030B60511CF4
:1015A00042D0062A7FF47FAF4FF08043D3F8003457
:1015B000DA0745D44C4B1B68033B022B7FF673AF15
:1015C000514A136843F4806313606CE74A4B1B680D
:1015D000C3F30313032B7FF45EAF4C4D4C482B60D9
:1015E0004C4C4D494D4A05230360012500203F2303
:1015F0002560086013604EE73F4B1B68C3F303137D
:10160000032B7FF432AF464AD36823F08073D36054
:101610002BE7394B1B68C3F30313032B7FF412AF83
:10162000404B414A1A600DE72A4B1B78062B7FF48A
:101630003AAF4FF08043D3F80034DB077FF533AF88
:10164000234B1B684FF080426FF00101062BC2F85C
:1016500000147FF428AF244B1B68033B022B7FF65A
:1016600022AFADE71B4B1B78062B90D01BE72F4A10
:101670000123C2F80435D2F80034002BFBD04FF020
:1016800010231521294AC3F80012D2F80034002B88
:10169000FBD04FF010231521244AC3F80412D2F8CE
:1016A0000034002BFBD000232049C2F80435D1F8C8
:1016B0000034002BFBD0BFF34F8F0C491C4BCA6882
:1016C00002F4E0621343CB60BFF34F8F00BFFDE72E
:1016D00030010010E00F00F02403001040350140FD
:1016E000440200103C0500403401001000ED00E011
:1016F000140000200090D003E80F00F000C000406C
:1017000058020010E40E00403C170040A0050040C5
:1017100010560040885600401856004014560040AD
:10172000F0ED00E074C007400DF0ADBA00E00140FC
:101730000400FA0508B5074B044613B10021AFF3C6
:101740000080054B1868836A03B19847204600F073
:10175000F3FF00BF00000000B427000070B50D4D7E
:101760000D4C641BA4100026A64209D10B4D0C4C55
:1017700000F0E4FF641BA4100026A64205D170BD52
:1017800055F8043B98470136EEE755F8043B984777
:101790000136F2E77C0000207C0000207C00002065
:1017A0008000002002440346934200D1704703F8B2
:1017B000011BF9E70FB40A4B13B51C6824B1A369E8
:1017C00013B9204600F066F805AB049AA1680193AE
:1017D000204600F083F902B0BDE8104004B0704725
:1017E00018000020002310B50446C0E900338360D0
:1017F00081814366C281C0E90433836119460822AE
:101800005C30FFF7CFFF054B6362054BA362054BCE
:10181000E362054B2462236310BD00BF612000001A
:1018200083200000BB200000DF200000014900F001
:10183000AFB800BFB923000070B54A1E68255543F4
:101840000E4605F1740100F0C5F8044640B10021D0
:10185000C0E900160C30A06005F16802FFF7A2FF96
:10186000204670BD014800F0B2B800BF510300200F
:10187000014800F0ADB800BF51030020014800F05E
:10188000A6B800BF4C030020014800F0A1B800BF7B
:101890004C03002010B50446FFF7F0FFA3691BB10D
:1018A000BDE81040FFF7F0BFC4E912332365134BC6
:1018B000134A1B68A262A34204BF0123A36120460E
:1018C00000F020F86060204600F01CF8A060204680
:1018D00000F018F80022E06004216068FFF782FF42
:1018E00001220921A068FFF77DFF02221221E06892
:1018F000FFF778FF0123A361D2E700BFB427000000
:101900002D180000F8B50746FFF7ACFF1E4B1E6808
:10191000B36913B93046FFF7BDFF4836D6E9013445
:10192000013B03D533680BB33668F7E7B4F90C50C5
:10193000D5B9164BE36004F15800656600F046F82F
:10194000FFF796FF2560C4E90155C4E90455A56178
:101950000822294604F15C00FFF724FFC4E90D5575
:10196000C4E912552046F8BD6834D9E70421384649
:10197000FFF762FF044630600028D5D1FFF778FFFB
:101980000C233B60EEE700BFB42700000100FFFF1F
:101990002DE9F8438046894600F14804002614B931
:1019A0003046BDE8F883D4E90175013F01D52468CC
:1019B000F5E7AB89012B07D9B5F90E30013303D018
:1019C00029464046C84706436835EEE770477047EA
:1019D00070470000F8B5CD1C25F0030508350C2D27
:1019E00038BF0C25002D064601DBA94203D90C2384
:1019F00033600020F8BD00F0E3FD21490A68144679
:101A00009CB9204F3B6823B92146304600F018FBB3
:101A100038602946304600F013FB431C23D10C23C9
:101A20003360304600F0D2FDE3E723685B1B17D438
:101A30000B2B03D923601C44256004E06368A24299
:101A40000CBF0B605360304600F0C0FD04F10B008A
:101A5000231D20F00700C21ACCD01B1AA350C9E7DF
:101A600022466468CCE7C41C24F00304A042E3D0FF
:101A7000211A304600F0E4FA0130DDD1CFE700BF93
:101A80003C030020400300209368013B002B10B46E
:101A9000936008DA9469A34201DB0A2903D15DF857
:101AA000044B00F021BB1368581C106019700846E5
:101AB0005DF8044B7047F8B506460F461446D51836
:101AC000AC4201D1002007E03A4614F8011B304631
:101AD000FFF7DAFF431CF3D1F8BD00002DE9F04F0A
:101AE0000D469DB014461E46074618B183690BB9D2
:101AF000FFF7D0FE854B9D421BD17D686B6ED907E9
:101B000005D4AB899A0502D4A86DFFF760FFAB89B5
:101B10001B0701D52B69EBB92946384600F048FB75
:101B2000C0B16B6ED8070ED54FF0FF301DB0BDE8C9
:101B3000F08F774B9D4201D1BD68DFE7754B9D4229
:101B400008BFFD68DAE7AB899905EDD4A86DFFF70A
:101B50003FFFE9E70023099320238DF82930DFF8C0
:101B6000B891039630238DF82A304FF0010A2346AE
:101B70001E4613F8012B0AB1252AF9D1B6EB040B46
:101B80000BD05B46224629463846FFF794FF0130CA
:101B900000F0A380099B5B4409933378002B00F08D
:101BA0009C8000234FF0FF32CDE9052301360493DA
:101BB00007938DF853301A933446052214F8011B0D
:101BC000554800F0ADFC049BC0B9DA0644BF2022A2
:101BD0008DF85320180744BF2B228DF853203278FC
:101BE0002A2A13D0079A344600200A26214611F8E3
:101BF000013B303B092B4BD970B914E0A0EB090035
:101C00000AFA00F0184304902646D5E7039A111DFE
:101C100012680391002A01DB079204E0524243F06C
:101C200002030792049323782E2B0CD163782A2B7E
:101C300033D1039B1A1D1B680392002BB8BF4FF0D2
:101C4000FF3302340593354E21780322304600F0ED
:101C500067FC38B14023801B03FA00F0049B034368
:101C60000134049314F8011B2D488DF82810062226
:101C700000F056FC00283FD02A4B13BB039B0733D0
:101C800023F0070308330393099B434409936EE74A
:101C900006FB023201200C46A8E70023013405931D
:101CA00019460A26204610F8012B303A092A03D992
:101CB000002BC8D00591C6E706FB0121012304468D
:101CC000F0E703AB00932A46174B04A93846AFF35D
:101CD0000080B0F1FF3F8046D6D16B6ED90705D4A6
:101CE000AB899A0502D4A86DFFF772FEAB895B063B
:101CF0003FF51AAF099819E703AB00932A460A4B40
:101D000004A9384600F088F8E3E700BFD8270000B0
:101D1000F8270000B8270000182800001E2800003F
:101D20002228000000000000B71A00002DE9F0474B
:101D300091461F468A680B69DDF820809342B8BF40
:101D40001346C9F8003091F8432006460C4612B1FC
:101D50000133C9F800302368990642BFD9F8003032
:101D60000233C9F80030256815F0060507D104F1E3
:101D7000190AE368D9F800209B1AAB4228DC94F8D2
:101D800043302268003318BF012392062DD404F19A
:101D9000430239463046C047013020D02368E56809
:101DA000D9F8002003F00603042B08BFAD1AA3687E
:101DB00022690CBF25EAE57500259342C4BF9B1A32
:101DC000ED184FF000091A344D451AD1002008E0F3
:101DD0000123524639463046C047013003D14FF007
:101DE000FF30BDE8F0870135C3E7E1185A1C302009
:101DF00081F84300224494F8451082F843100233DE
:101E0000C5E70123224639463046C0470130E6D0B7
:101E100009F10109D8E700002DE9F04306460C4618
:101E200001F14300097E85B06E29984617460C9B48
:101E300000F0BA8024D8632939D00AD8002900F0EC
:101E4000C380582900F0918004F1420584F84210C3
:101E500035E0642901D06929F6D125681A6815F0A2
:101E6000800F02F104012CD012681960002A03DAF5
:101E70002D23524284F84330DFF8BCC10A233FE0EF
:101E8000732900F0A58008D86F2921D07029DBD1F3
:101E9000226842F02002226003E0752918D07829D8
:101EA000D2D1782284F84520DFF890C161E01A6829
:101EB000111D1960136884F8423004F142050123B2
:101EC00093E01268196015F0400F18BF12B2CDE709
:101ED000D4F800C01A681CF0800F02F104051D60E0
:101EE00001D0126803E01CF0400FFAD01288DFF82E
:101EF00048C16F290CBF08230A23002184F843102E
:101F00006568A560002DA2BF216821F00401216051
:101F10000AB9002D46D00546B2FBF3F103FB112EA2
:101F200093421CF80EE005F801ED39D9082B0BD1CE
:101F30002368DA0708D5236962689A42DEBF302336
:101F400005F8013C05F1FF35401B2061CDF800800C
:101F50003B4603AA21463046FFF7E8FE013049D14F
:101F60004FF0FF3005B0BDE8F083DFF8CCC084F857
:101F700045101D68216855F8042B1D600D060BD512
:101F8000CD0744BF41F0200121601AB9236823F036
:101F9000200323601023B0E74B0648BF92B2EFE75F
:101FA0000A46B9E70546C1E71A68D4F800C0616976
:101FB000151D1D601CF0800F136801D0196003E02F
:101FC0001CF0400FFAD01980002323610546BDE7BD
:101FD0001A68111D1960156862680021284600F012
:101FE0009FFA08B1401B606063682361002384F896
:101FF0004330ABE723692A4639463046C0470130B3
:10200000AED023689B0713D4E068039B9842B8BF07
:102010001846A7E701234A4639463046C0470130F3
:102020009ED00135E368039A9B1AAB42F2DCEBE7E2
:10203000002504F11909F5E7292800003A280000D5
:1020400038B5064C002305460846236000F066FBC1
:10205000431C02D1236803B12B6038BD5403002018
:1020600010B50C46B1F90E1000F004FB0028ABBF10
:10207000636DA3891B1823F48053ACBF6365A381F0
:1020800010BD2DE9F0411F468B89DB0505460C4646
:10209000164605D502230022B1F90E1000F0C8F94A
:1020A000A389B4F90E1023F48053A38132463B4632
:1020B0002846BDE8F04100F069B810B50C46B1F90A
:1020C0000E1000F0B5F9431CA38915BF606523F419
:1020D000805343F48053A38118BFA38110BDB1F98D
:1020E0000E1000F0D3B80000F8B50E4614460546B1
:1020F00018B183690BB9FFF7CDFB214B9C422BD163
:102100006C68A369A360A3891A072FD523696BB3F1
:1021100023692068C01A6369F6B28342374604DC3B
:102120002146284600F048F930BBA368013BA36074
:1021300023685A1C22601E7063690130834204D0F8
:10214000A389DB0706D50A2E04D12146284600F0D4
:1021500033F988B93846F8BD0A4B9C4201D1AC68C6
:10216000CFE7094B9C4208BFEC68CAE721462846E6
:1021700000F01EF80028CBD04FF0FF37EAE700BF91
:10218000D8270000F8270000B827000038B5074C12
:10219000054608461146002222601A46FEF7C0FA9C
:1021A000431C02D1236803B12B6038BD54030020C7
:1021B000324B70B51D6806460C4625B1AB6913B9A4
:1021C0002846FFF767FB2E4B9C420FD16C68B4F991
:1021D0000C309AB215072CD4D00611D409223260E3
:1021E00043F04003A3814FF0FF303EE0254B9C427B
:1021F00001D1AC68EBE7244B9C4208BFEC68E6E7F2
:10220000510712D5616B41B104F14403994202D0E8
:10221000304600F0E1F900236363A38923F024032F
:10222000A3810023636023692360A38943F008032B
:10223000A38123694BB9A38903F42073B3F5007F0D
:1022400003D02146304600F029F9A28912F001039B
:102250000CD00023A36063695B42A361236953B977
:10226000B4F90C3013F08000BAD170BD920758BF9A
:102270006369A360F2E70020F7E700BF18000020C1
:10228000D8270000F8270000B827000038B5064C12
:10229000002305460846236000F020FA431C02D1C3
:1022A000236803B12B6038BD540300208A892DE9CF
:1022B000F041054610070C4658D44B68002B05DC4E
:1022C0000B6C002B02DC0020BDE8F081E66A002EDA
:1022D000F9D0002312F480522F682B6032D0606D49
:1022E000A3895A0705D56368C01A636B0BB1236CC9
:1022F000C01A00230246E66A216A2846B047431CFA
:10230000A38906D129681D292CD82A4ACA40D60794
:1023100028D500226260D9042269226004D5421CBB
:1023200001D12B6803B96065616B2F600029CAD0A9
:1023300004F14403994202D0284600F04DF90020F0
:102340006063C1E7216A01232846B047411CC7D119
:102350002B68002BC4D01D2B01D0162B01D12F6070
:10236000B1E7A38943F04003A381ADE70F69002FD4
:10237000A9D093070E6808BF4B690F6018BF0023F0
:10238000A6EB07088B60B8F1000F9CDD43463A4688
:10239000216AA66A2846B047002806DCA38943F0D4
:1023A0004003A3814FF0FF308EE70744A8EB0008FD
:1023B000E9E700BF0100402038B50B6905460C462F
:1023C00013B90025284638BD18B183690BB9FFF74A
:1023D00061FA144B9C421BD16C68B4F90C30002B91
:1023E000EFD0626ED00704D4990502D4A06DFFF738
:1023F000EEFA28462146FFF759FF636EDA070546D5
:10240000E0D4A3899B05DDD4A06DFFF7E1FAD9E7FD
:10241000054B9C4201D1AC68DFE7044B9C4208BFEE
:10242000EC68DAE7D8270000F8270000B82700009A
:1024300038B5074C054608461146002222601A4668
:1024400000F064F9431C02D1236803B12B6038BD4E
:102450005403002070B50E46B1F90E10002996B055
:1024600014461D4607DA00232B60B3891A0610D4E0
:102470004FF480630EE06A4600F00EF90028F2DBAC
:10248000019A02F47042A2F500535A425A412A605E
:10249000EEE740230020236016B070BD8B8973B532
:1024A0009D0706460C4607D504F1470323602361C8
:1024B0000123636102B070BD01AB6A46FFF7CAFF3A
:1024C000009905463046FFF785FA48B9B4F90C3053
:1024D0009A05EFD423F0030343F00203A381E3E75B
:1024E0000D4BB362A389206043F08003A381009B5E
:1024F0006361019B20615BB1B4F90E10304600F0BE
:10250000DDF828B1A38923F0030343F00103A3817D
:10251000A3891D43A581CDE72D1800000000000010
:1025200001F0FF01102A2BDB10F0070F08D010F884
:10253000013B013A8B422DD010F0070F42B3F6D188
:10254000F0B441EA012141EA014122F007047FF0A1
:1025500000070023F0E80256083C85EA010586EAF8
:10256000010685FA47F5A3FA87F586FA47F6A5FA34
:1025700087F68EB9EED1F0BC01F0FF0102F0070240
:1025800032B110F8013B013A83EA010313B1F8D1EB
:102590000020704701387047002D06BF35460338CC
:1025A000073815F0010F07D1013015F4807F02BF05
:1025B000013015F4C03F0130F0BC0138704700BF56
:1025C0000148FFF704BA00BF4D0300200148FFF7A0
:1025D000FFB900BF4D03002038B50546002945D09E
:1025E00051F8043C0C1F002BB8BFE418FFF7E8FFBC
:1025F0001F4A1368104633B9636014602846BDE86B
:102600003840FFF7E3BFA3420CD921686218934218
:1026100004BF1A685B68636004BF521822600460DC
:10262000ECE713465A680AB1A242FAD91968581859
:10263000A0420BD120680144581882421960DDD1B4
:10264000106852685A6001441960D7E702D90C2318
:102650002B60D3E7206821188A4204BF11685268B2
:10266000626004BF091821605C60C7E738BD00BF25
:102670003C03002038B5074C0546084611460022A9
:1026800022601A46FEF75AF8431C02D1236803B1B0
:102690002B6038BD5403002038B5074C0023054695
:1026A00008461146236000F021F8431C02D123683C
:1026B00003B12B6038BD00BF5403002038B5064C71
:1026C000002305460846236000F018F8431C02D199
:1026D000236803B12B6038BD54030020024B5822FD
:1026E0001A604FF0FF30704754030020024B58220D
:1026F0001A604FF0FF30704754030020024B5822FD
:102700001A600020704700BF54030020024B58227B
:102710001A604FF0FF30704754030020044A054907
:102720001368002B08BF0B4618441060184670470A
:102730004403002058030020FEE700BFF8B500BFA7
:10274000F8BC08BC9E467047F8B500BFF8BC08BC92
:102750009E467047FFFFFFFFFFFFFFFFFFFFFFFFEA
:10276000FFFFFFFF00000000000000000000D60196
:10277000060100001B0000001E0000000700000012
:10278000090000000000000000E0D7010000000088
:102790000338FDD8704700000D0A5541525420659A
:1027A00078616D706C6520737461727465642E0D50
:1027B0000A0000001C0000200000000000000000D3
:1027C0000000000000000000000000000000000009
:1027D00000000000000000000000000000000000F9
:1027E00000000000000000000000000000000000E9
:1027F00000000000000000000000000000000000D9
:1028000000000000000000000000000000000000C8
:102810000000000000000000232D302B2000686C19
:102820004C006566674546470030313233343536F3
:10283000373839414243444546003031323334352C
:102840003637383961626364656600000000000055
:08285000F0D9FF7F0100000038
:1028580000000000002000400000000000200040B0
:10286800000000000090D0031C00002000000000C1
:10287800D8270000F8270000B82700000000000053
:102888000000000000000000000000000000000040
:102898000000000000000000000000000000000030
:1028A8000000000000000000000000000000000020
:1028B8000000000000000000000000000000000010
:1028C80000000000000000000000000025020000D9
:0428D80001020000F9
:04000003000002B542
:00000001FF
